:020000040200F8
:10000000E047012271350002F9130002F1130002EA
:10001000F1130002F1130002F1130002F1130002C8
:10002000000000000000000000000000F1130002CA
:10003000F113000200000000F1130002F1130002AE
:10004000718500027186000229860002B9840002CF
:10005000918A0002518B0002D98A0002E9890002CC
:10006000E1390002718500027186000229860002D2
:10007000B9840002494100029183000259840002C0
:100080001184000251830002293A000271850002A6
:100090007186000229860002B984000231870002BD
:1000A0008187000219880002293A0002000000003E
:1000B0000000000000000000000000000000000040
:1000C0000000000000000000000000000000000030
:1000D0000000000000000000000000000000000020
:1000E0000000000000000000000000000000000010
:1000F0000000000000000000000000000000000000
:1001000000000000000000000000000000000000EF
:1001100000000000000000000000000000000000DF
:1001200000000000000000000000000000000000CF
:1001300000000000000000000000000000000000BF
:1001400000000000000000000000000000000000AF
:10015000000000000000000000000000000000009F
:10016000000000000000000000000000000000008F
:10017000000000000000000000000000000000007F
:10018000000000000000000000000000000000006F
:10019000000000000000000000000000000000005F
:1001A000000000000000000000000000000000004F
:1001B000000000000000000000000000000000003F
:1001C0002DE9F05F0546002092469B46884606468C
:1001D000814640241BE0284641464746224600F01F
:1001E00018F953465A46C01A914110D31146184681
:1001F000224600F0FFF82D1A67EB01084F46224611
:100200000120002100F0F6F817EB00094E41201EF6
:10021000A4F10104DFDC484631462A464346BDE8E6
:10022000F09F2DE9F0410024061B254671F10006E0
:1002300005DA01240027D0EB070067EB0101161E49
:1002400073F1000605DA0027D2EB0702012567EB00
:100250000303FFF7B5FF86460E4617469C46AC42A1
:1002600004D00025D0EB050E65EB010624B100207B
:10027000D2EB000760EB030C704631463A4663460A
:10028000BDE8F081A0F14101192900D82030704764
:10029000002800DA4042704740EA01039B0703D080
:1002A00009E008C9121F08C0042AFAD203E011F8B5
:1002B000013B00F8013B521EF9D27047D2B201E077
:1002C00000F8012B491EFBD270470022F6E710B55B
:1002D00013460A4604461946FFF7F0FF204610BDB4
:1002E00030B505462A460B4612F8010B13F8014BB0
:1002F00008B1A042F8D01CB1002802D06D1CF1E773
:10030000284630BD10B5044604E00B7800F8013BE8
:1003100003B1491C521EF8D2204610BDCAB2401E7D
:1003200010F8011F8A4202D00029F9D1002070473D
:10033000421C10F8011B0029FBD1801A704710B530
:10034000002200E0521C835C8C5CA34201D1002B94
:10035000F8D1D8B2E1B2401A10BD30B50546002040
:10036000034600E05B1C934205D2EC5CC85C201A9B
:1003700001D1002CF6D130BD0022CBB201789942D8
:1003800000D10246401C0029F8D1104670470000F9
:100390000FB400B58DB010A909900B9000914FF0EB
:1003A000FF300A9000200C90054806900548079001
:1003B0006A4609A80F9900F0B3FB0DB05DF814FB75
:1003C0003D0B00025B0B000230B50B4601460020DE
:1003D0002022012409E021FA02F59D4205D303FA07
:1003E00002F5491B04FA02F52844151EA2F1010288
:1003F000F1DC30BD202A04DB203A00FA02F10020B3
:1004000070479140C2F1200320FA03F31943904052
:100410007047202A04DB203A21FA02F000217047BD
:1004200021FA02F3D040C2F120029140084319465C
:1004300070472DE9FF4F1C4681B00021D4E90167C8
:1004400091464FF0FF358A468846A1696D1C029897
:100450008847216A834688470028F6D1BBF1FF3FD1
:100460000CD026F4C066002F1ADD700615D5BBF13E
:100470002B0F0AD0BBF12D0F0FD104E04FF0FF304E
:1004800005B0BDE8F08F46F48066A1696D1C029846
:1004900088477F1E8346002F02DDBBF1300F03D05B
:1004A000B9F1000F2AD025E0A1696D1C46F4007651
:1004B0007F1E029888478346002F05DDBBF1780F29
:1004C00006D0BBF1580F03D0B9F1000F10D011E0E6
:1004D000B9F1000F02D0B9F1100F0BD1A1696D1C59
:1004E00026F400767F1E029888478346102000E09D
:1004F000082081464FEAE970009017E00A20F8E7EB
:100500004346AAFB092803FB0980DDF800C07F1ED3
:100510000AFB0C0112EB0B0A41EBEB78A16946F4E4
:10052000007605F10105029888478346002F06DD15
:100530004946584600F0F9FC5FEA000BE0D5E16956
:1005400002988847B00502D46FF0010098E7F007E1
:1005500018D1700610D57005514605D50023D1EB92
:10056000030163EB080200E042462068031D23609C
:100570000068C0E9001205E02068011D21600068E4
:10058000C0E900A828467BE72DE9FF5F1D464FF034
:10059000FF3BD5E9014691465F464FF00008A96947
:1005A0007F1C01988847296A824688470028F6D12F
:1005B000BAF1FF3F0CD024F4C064002E19DD6006B0
:1005C00014D5BAF12B0F09D0BAF12D0F0ED103E0DB
:1005D000584604B0BDE8F09F44F48064A9697F1CCC
:1005E00001988847761E8246002E02DDBAF1300F50
:1005F00003D0B9F1000F26D032E0A969761E44F489
:1006000000747F1C019888478246002E05DDBAF1F0
:10061000780F06D0BAF1580F03D0B9F1000F10D0FF
:100620001EE0B9F1000F02D0B9F1100F18D1A9697D
:10063000761E24F400747F1C01988847824610209F
:1006400002E0082000E00A20814609E008FB0908D2
:10065000A969761E44F400747F1C0198884782467D
:10066000002E05DD4946504600F05FFC0028EDDA1B
:10067000E96901988847A00502D46FF00100A8E756
:10068000E00725D1600613D5600502D5C8F100004A
:1006900000E0404629680A1D2A600968220501D544
:1006A000087015E0220701D5088011E008600FE00E
:1006B0002868011D29600068210502D580F80080A6
:1006C00006E0210702D5A0F8008001E0C0F8008014
:1006D00038467EE72DE9FF5FD2E901A74FF0000819
:1006E000916999461446DDF838B046460198884726
:1006F000054659EA0B0005D009E0A169761C01986E
:1007000088470546216A284688470028F5D1681C95
:1007100003D05FEACA7005D015E04FF0FF3004B097
:10072000BDE8F09F2068011D2160D0F800800AE03C
:100730005FEACA7001D108F8015BA169761C7F1ECF
:10074000019888470546002F1ADD681C18D0B9F1BA
:10075000000F0DD0E81705EBD060421120F01F000C
:1007600059F822102A1A012090400142E0D107E0F6
:10077000BBF1000FDCD1216A284688470028D7D07A
:10078000E16901988847BBF1000F07D1002E05DD14
:100790005FEACA7002D1002188F80010A068B84250
:1007A00003DDBBF1000F03D017B16FF00100B6E716
:1007B0003046B4E72DE9FF4F087883B09946FF280B
:1007C00005D0491C2D2804D00024002008E000207A
:1007D0000BE00124F9E700EB800003EB4000491C2B
:1007E0000B78FF2BF7D104B1404200230293147819
:1007F00019461D462D2C01D02B2C04D1521C2D2C1A
:1008000013D000240294AA461478FF2C0FD00A2596
:10081000A3FB057801FB05814FF0000C03FB0C11D5
:10082000521CE3194AEB0101EEE70124EAE7814497
:1008300053EA010002D019F5C87F06DA03980021B7
:10084000C0E9001107B0BDE8F08F0025AE4E2F467D
:10085000DFF8B882184600F06AFDCDE90001B9F171
:10086000000002DAC9F1000400E004460023A74AB0
:100870001AEB030B42EB045A12E0E00707D02A46BA
:1008800033463846414600F020FA074688462A4655
:1008900033461046194600F018FA05460E46641015
:1008A000002CEAD1DDE90001B9F1000F5A465346A8
:1008B00006DA00F07CFA3A46434600F078FA05E0A2
:1008C00000F003FA3A46434600F0FFF9029A0AB1F3
:1008D00081F00041039AC2E90001B3E72DE9FF4F1F
:1008E0001F468DB0D7E901464FF0FF382E20454610
:1008F0004FF000090B90B9696D1C0E988847396A52
:10090000824688470028F6D1BAF1FF3F0AD024F486
:10091000D064002E11DDBAF12B0F08D0BAF12D0FE3
:100920000BD102E0404611B08DE744F48064B96910
:100930006D1C0E9888478246761E6946600501D573
:100940002D2000E02B208DF8000001F1010B0DF1AE
:10095000200809E0B9696D1C0E98884782460F98F7
:1009600044F40074761E0560002E02DDBAF1300FEB
:10097000F0D00B998A453ED144F0800406E00F99EF
:10098000681CA9F1010944F400740860B9696D1C80
:10099000761E0E98884782463028F0D02BE00B99BF
:1009A0008A4505D1200603D444F08004761E18E061
:1009B00050460AF0C9F808B30DF11302761EAAF1E9
:1009C000300044F40074934506D20BF8010B200666
:1009D00007D5A9F1010003E0200602D409F10100C6
:1009E0008146A00502D50F99681C0860B9696D1C85
:1009F0000E9888478246002ED1DC53E0002E51DD50
:100A0000BAF1650F02D0BAF1450F4BD1A00549D517
:100A1000B9696D1C24F44074761E0E98884782468E
:100A2000002E0CDD2B2804D0BAF12D0F07D144F491
:100A30008074B9696D1C0E9888478246761EE00561
:100A400001D52D2100E02B2108F8011BCDF82C80C9
:100A500021E00DF12901761E44F4007488450CD282
:100A6000AAF1300010F0FF0088F8000002D10B99C5
:100A7000884509D908F1010806E0E00501D52448B8
:100A800001E042F20F708146B9696D1C0E988847EB
:100A900082460F980560002E04DD50460AF054F897
:100AA0000028D6D1F9690E988847FF208BF80000FE
:100AB00088F800000020069007904B466A4608A977
:100AC00006A8FFF777FEA00502D46FF001002AE721
:100AD00014F0240F0AD0E00714D1DDE906123868BB
:100AE000031D3B600068C0E900120BE0DDE9060170
:100AF00000F029FC0146E00704D13868021D3A6085
:100B00000068016028460EE7000014400000F03F36
:100B1000F1D8FFFF0268114413780160184670474E
:100B2000D1600449516104491162002111611146EB
:100B300000F00ABA150B0002190F0002426842B118
:100B4000016811F8013B23B1521EC0E9001218469A
:100B500070470121C160881E704742685AB1C3685E
:100B6000016843B983688B4205D0491E521CC0E915
:100B70000012002070474FF0FF3070472DE9FE4F04
:100B8000804681EA0300C00F0C46009021F000412E
:100B900023F00045B8EB0200A94105D240462146AA
:100BA00090461C460B46024623F00040104347D0B7
:100BB000270DC7F30A00C3F30A510290401A0190AF
:100BC00040286BDAC3F3130040F4801B0098924670
:100BD00020B10023D2EB030A63EB0B0B01985946BB
:100BE000C0F140025046FFF705FC06460D46504650
:100BF0005946019A00F07AF910EB0800614100248F
:100C000087EA115284EAE7731A4340D0009A62B32C
:100C1000019A012A4FEA075215DC001B61EB020121
:100C20004FF0004202EA0752CDE90042001C41F5B4
:100C3000801132462B4600F02CFB03B0BDE8F08F4C
:100C400040462146F9E7001B61EB0201001C41F51B
:100C5000801300185B412018A2F5001747EB030131
:100C600040EAD570B6196D4111E06D084FEA3606BD
:100C700045EAC0754FEA0752001B61EB0201001CF8
:100C800041F5801149084FEA3000001951413246C0
:100C90002B4603B0BDE8F04F00F0ECBA00980122FB
:100CA00040000023D0EB020263EBE0730098214682
:100CB0004FEAE074B8EB000061EB0401E9E783F070
:100CC00000435BE781F0004158E72DE9FE4F81EAE0
:100CD000030404F0004421F0004100944FF0000BA5
:100CE00023F0004350EA01045ED052EA03045BD0D3
:100CF000C3F30A54C1F30A552C44A4F2F33401940B
:100D0000A0FB0254C1F3130141F48011C3F3130398
:100D100043F4801301FB024400FB034E840A970A4C
:100D200044EA815447EA8357A4FB076802958D0A79
:100D300005FB07854FEA932C04FB0C542705029D05
:100D40004FEA065847EA1637B5EB08056EEB070C75
:100D5000870E920E47EA811742EA8312A7FB02012F
:100D6000B6EB0B0164EB00042B0D43EA0C335E1869
:100D700044EB1C50DA465146E7FB0201C5F313046D
:100D80004FEA0B3343EA14534FEA0432019C43EA1F
:100D90000603A4F10C040294009CCDE900B400F019
:100DA00078FA03B0BDE8F08F00200146F9E72DE99D
:100DB000F04D81EA030404F0004B21F00045144695
:100DC0004FF0000A23F0004150EA050220D054EA17
:100DD00001021DD0C5F30A570246C5F31303C1F340
:100DE0001300C1F30A5640F4801543F48013A7EBB7
:100DF0000608101BD64608F2FD3873EB050002D337
:100E000008F1010801E092185B41B8F1000F03DA24
:100E100000200146BDE8F08D00204FF48011064609
:100E200084460EE0171B73EB050705D3121B63EB1B
:100E3000050306434CEA010C49084FEA30009218BA
:100E40005B4150EA0107EDD152EA030012D082EA79
:100E5000040083EA0501084305D0101BAB4106D20C
:100E60000122002306E000224FF0004302E06FF071
:100E7000010253101AEB06004CEB085110EB0A006C
:100E800041EB0B01BDE8F04D00F0F4B9C1F30A529B
:100E9000C1F3130140F2FF3341F480119A4202DAA8
:100EA00000200146704740F233439A42A2F2334297
:100EB00002DC5242FFF7ADBAFFF79CBA30B5041E10
:100EC00071F1000404DB4FF00044404264EB010187
:100ED000141E73F1000405DB1C464FF00043524220
:100EE00063EB0403994208BF904230BD202A06DB21
:100EF000CB17203A41FA02F043EAE07306E041FAE8
:100F000002F3D040C2F120029140084319467047D5
:100F1000004870476CB4000210B50446FFF7F8FFB4
:100F20000068005D00F0010010BD3A2800D23038A2
:100F300020F02002412A01D3A2F13700884201D3D8
:100F40004FF0FF30704700002DE9F34F8BB04FF0AA
:100F5000000801F10C000C464FF0010B46460DF164
:100F6000080A01906269012101989047051E2DD061
:100F7000252D2CD0216A8847C0B1626901210198D2
:100F80009047216A88470028F7D1411E626901987D
:100F9000904700E0761CA1690B988847216A884732
:100FA0000028F7D1E1690B988847DBE7A1690B9826
:100FB00088470746A84201D1761CD3E7E1690B9820
:100FC00088477F1C02D1B8F1000F6FD046E100279F
:100FD00062693D463946019890472A2804D16269E2
:100FE0000121019890470125DFF88492626901216F
:100FF00001989047A0F130010A290AD24F45E5DC5B
:1010000007EB870100EB4107303FDFD445F01005C7
:10101000ECE7E90601D46FF000476C280AD04C28B1
:1010200014D0682815D06A280DD074281CD07A28CE
:101030001AD01DE062690121019890476C2802D006
:1010400045F0040514E045F002050DE045F02005EB
:101050000AE06269012101989047682802D045F0B2
:10106000080505E045F40065626901210198904793
:10107000C4E9015765283DD019DC58287AD00CDC2A
:10108000452837D004DC252826D0412831D131E04D
:1010900046282FD047282CD12CE05B2877D0612818
:1010A00028D063287CD0642823D15AE0D0E06F2870
:1010B00048D008DC66281DD067281BD0692821D0BD
:1010C0006E2816D127E0702845D0732868D075287F
:1010D00047D078280DD14DE0A1690B988847054687
:1010E00025283FF469AFE1690B9888476D1C3FF4F0
:1010F0006AAFB3E023466A466FF001000B99FFF731
:10110000EDFB9EE045F040006060A80723464FF0ED
:10111000000236D43EE0E8077FF447AF2068011DA7
:1011200021600068290501D506701BE7290701D554
:10113000068017E7A90703D5F117C0E9006111E799
:1011400006600FE745F040006060A80723464FF0B7
:10115000080216D41EE040F60E0125EA0100606088
:1011600016E045F040006060A80723464FF00A02F1
:1011700007D40FE045F040006060A80708D523467B
:1011800010226FF001000B99FFF753F959E007E0C7
:10119000234610226FF001000B99FFF7F5F950E09C
:1011A0004FF000094F464B46632802D05B2806D01B
:1011B00040E0E80601D40120A06001273AE062691E
:1011C0000121019890475E2805D14FF0010962691D
:1011D000494601989047216939B900210A4653468A
:1011E00043F82120491C0829FADBB0B3216969B909
:1011F000C11700EBD16253110AEB830122F01F02E9
:10120000821A01200B68904003430B606269012140
:10121000019890475D28E8D1B9F1000F09D000206E
:10122000514651F82020D24341F82020401C082884
:10123000F7DB02AB224600976FF001000B99FFF736
:1012400049FA00280CDA401C08D1BBF1000F05D088
:101250004FF0FF300DB0BDE8F08FFFE74046F9E7F3
:10126000E90701D108F1010806444FF0000B79E6C7
:10127000CCCCCC0C10B5141E73F1000408DA401C61
:1012800041F1000192185B411A4301D120F00100A5
:1012900010BD2DE9F04D92469B4611B1B1FA81F295
:1012A00002E0B0FA80F220329046FFF7A3F804463D
:1012B0000F4640EA0A0041EA0B0153465A460843EA
:1012C00013D0114653EA010019D0C8F1400250462C
:1012D000FFF79FF805460E46504659464246FFF72F
:1012E00089F8084305D0012004E020463946BDE8CE
:1012F000F08D0020054346EAE0762C4337430A98F8
:101300006305E40AA0EB08000022FD0A44EA475402
:101310000A3002D500200146E9E7010510196941AC
:10132000DDE9084500196941BDE8F04DA2E70EB5B9
:1013300040F2334202920022CDE900221346FFF729
:10134000A8FF03B000BD01F0004330B421F000411C
:1013500050EA010206D00A0DA2F56072C1F3130132
:10136000002A02DC30BC00207047440F44EAC1046C
:10137000C100E01830BC00EBC250AFF30080002980
:10138000A8BF7047401C490008BF20F0010070470B
:1013900010B4B0FA80FC00FA0CF050EA010404BF6B
:1013A00010BC704749B1CCF1200421FA04F411FAC1
:1013B0000CF118BF012121430843A3EB0C01CB1D05
:1013C0004FEA00614FEA102042BF002010BC704776
:1013D00000EBC35010440029A4BF10BC7047401C50
:1013E000490008BF20F0010010BC70470000000059
:1013F00000BE70470000000080B582B04CF20010C3
:10140000C4F200000088ADF806004CF22010C4F2CF
:1014100000000088BDF806100840ADF80400002068
:101420008DF80300FFE79DF803000F2814DCFFE7A9
:10143000BDF804009DF80310C840C00728B1FFE7BD
:101440009DF8030002F034FCFFE7FFE79DF803007E
:1014500001308DF80300E6E7BDF804004CF21011EE
:10146000C4F200010880FFE74CF22010C4F2000033
:101470000088BDF804100840000408B1FFE7F3E756
:1014800002B080BD0000000085B00490039102927C
:10149000019304980090039800994861029800997C
:1014A000C861019800998861002005B0704700006C
:1014B00080B586B0049004980390039806F0D0F8A5
:1014C0000290029808B9FFE702E0029805902FE029
:1014D0000398007BC00728B1FFE7039880680C30B1
:1014E000009004E00398806808300090FFE70098BF
:1014F00001900199F4200870019900200871039867
:10150000406890F91200213068B1FFE70398406805
:1015100090F9120002F0DCF90399486890F9120082
:1015200001F00EF8FFE70399002008600590FFE73F
:10153000059806B080BD000083B0029001918DF83F
:101540000320062003B0704784B0039003980290F4
:101550000298007BC00728B1FFE7029880680C3032
:10156000009004E00298806808300090FFE700983F
:1015700001900199F0200870002004B0704700002D
:1015800083B0029001910092062003B070470000E2
:1015900084B00390039802900298007BC00728B1A2
:1015A000FFE7029880680C30009004E002988068A1
:1015B00008300090FFE7009801900298007BC00778
:1015C00030B1FFE70298816800690138086005E0E2
:1015D00002988168006901380880FFE70199F120CD
:1015E0000870002004B0704780B58AB00890079159
:1015F00008980690069806F033F80590059808B903
:10160000FFE702E00598099067E0069800690799EE
:10161000886006984068C069049004980078502853
:101620004CD1FFE70698007BC00730B1FFE7069872
:101630004068007C0138029005E006984068007C14
:1016400001380290FFE70298C1B240F2FC60C2F29A
:10165000002050F8210020B9FFE7079900204860DA
:101660002BE006988068A0F5807003900398069997
:10167000097B01F0010105F0A7FF01900698007BAE
:10168000C00730B1FFE706984068007C0138009041
:1016900005E006984068007C01380090FFE701985B
:1016A0000099CAB240F2FC61C2F2002151F8221046
:1016B000B0FBF1F007994860FFE709E006998868F8
:1016C000097B01F0010105F07FFF07994860FFE702
:1016D0000799002008700990FFE709980AB080BDBB
:1016E00080B58CB0089007910898069007980699E5
:1016F000486006990020087341F20000C4F22200FD
:10170000059005980799097C00EB01200490049846
:10171000069988600698007BC00728B1FFE7069805
:1017200080680C30019004E00698806808300190D1
:10173000FFE70198039000200290EFF310800990DA
:101740000998029001200B900B9880F3108806985E
:10175000007BC00720B1FFE70798007C009003E002
:101760000798007C0090FFE70098C0B2C0F1050028
:10177000012101FA00F343F20C00C4F220000268D8
:101780009A4302600068962000F03EFD02980A909D
:101790000A9880F31088039900200870FFE70398E7
:1017A00000784008C00708B1FFE7F8E70399002078
:1017B00088700698079905F07BFF06980799496895
:1017C00005F0D2FF079890F91200002808D4FFE72F
:1017D000079991F91200497C069A00F0C9F9FFE7D0
:1017E0000798406906994861079880690699C86119
:1017F000069900208861069A44F25471C0F24101B2
:1018000011600CB080BD000080B586B004900391DB
:1018100004980290029805F023FF0190019808B9FE
:10182000FFE702E00198059006E00298039905F0B1
:101830009BFF00200590FFE7059806B080BD0000E3
:1018400080B584B0029002980190019805F008FFDD
:101850000090009808B9FFE702E00098039013E0B9
:101860000198007BC00730B1FFE7019881680069EB
:101870000138086005E00198816800690138088036
:10188000FFE700200390FFE7039804B080BD00004D
:1018900080B586B0049004980390039805F0E0FEAC
:1018A0000290029808B9FFE702E00298059021E053
:1018B0000398007BC00728B1FFE7039880680C30CD
:1018C000009004E00398806808300090FFE70098DB
:1018D0000190039840680078012805D1FFE703983C
:1018E000016905F041FFFFE70199F1200870002030
:1018F0000590FFE7059806B080BD000000000000DD
:1019000080B588B00690059106980490049805F07B
:10191000A7FE0390039808B9FFE702E00398079039
:101920002BE00498007BC00728B1FFE7049880688B
:101930000C30019004E00498806808300190FFE7C3
:101940000198029002980078C0F340000599087150
:101950000498007BC00728B1FFE7049880680068FE
:10196000009004E00498806800880090FFE70098E9
:101970000599086000200790FFE7079808B080BD30
:1019800080B586B0049004980390039805F068FE33
:101990000290029808B9FFE702E00298059016E06D
:1019A0000398007BC00728B1FFE7039880680C30DC
:1019B000009004E00398806808300090FFE70098EA
:1019C00001900199F020087000200590FFE705982C
:1019D00006B080BD000000004CF20411C4F2010109
:1019E00001200880FFE74CF20410C4F201000088D7
:1019F00008B1FFE7F7E74CF20011C4F20101012042
:101A0000088070470000000080B584B042F22801D1
:101A1000C4F22001002002900870C820012100F0CB
:101A2000F3FB029842F22401C4F220010870FFE7A0
:101A300042F22400C4F22000007808B1FFE7F7E783
:101A400042F22401C4F22001087840F0020008703C
:101A5000FFE742F22400C4F2200000784008C007EB
:101A600008B1FFE7F5E742F22201C4F220010020AD
:101A70000870FFE742F22200C4F22000007808B1AB
:101A8000FFE7F7E700208DF80F00FFE79DF80F0054
:101A9000022822D8FFE79DF80F2042F24001C4F24D
:101AA000200111F8120000F07F0001F81200FFE79A
:101AB0009DF80F1042F24000C4F2200010F81110FF
:101AC0000020B0EBD11F01D0FFE7F1E7FFE79DF861
:101AD0000F0001308DF80F00D8E70120019000F0D1
:101AE0000BFB01984EF64C42C4F20102002111702A
:101AF00000F042FB04B080BD80B584B08DF80F00CB
:101B0000029101929DF90F00029901F0FDFE9DF9ED
:101B10000F00019900F014FD04B080BD000000002A
:101B200080B584B08DF80F00029101929DF90F00ED
:101B3000029901F00DFF9DF90F00019900F010FDD1
:101B400004B080BD0000000080B584B08DF80F00A7
:101B5000029101929DF90F00029901F01DFF9DF97C
:101B60000F00019900F00CFD04B080BD00000000E2
:101B700080B584B08DF80F00029101929DF90F009D
:101B80000299019AFFF7B8FF9DF90F0000F0ECF8F9
:101B900004B080BD0000000080B584B08DF80F0057
:101BA000029101929DF90F000299019AFFF7B8FF87
:101BB0009DF90F0000F0E8F804B080BD00000000BF
:101BC00080B582B08DF807009DF9070000F074F928
:101BD000BFF35F8F9DF907000090009800F01F0190
:101BE000012088409DF907104A094EF28021CEF26B
:101BF000000141F8220002B080BD0000000000009A
:101C000080B582B08DF807009DF9070000F084F9D7
:101C1000BFF35F8F9DF907000090009800F01F014F
:101C2000012088409DF907104A094EF28021CEF22A
:101C3000000141F8220002B080BD00000000000059
:101C400080B582B08DF807009DF9070000F094F987
:101C5000BFF35F8F9DF907000090009800F01F010F
:101C6000012088409DF907104A094EF28021CEF2EA
:101C7000000141F8220002B080BD00000000000019
:101C800080B582B08DF807009DF9070000F0A4F937
:101C9000BFF35F8F9DF907000090009800F01F01CF
:101CA000012088409DF907104A094EF28021CEF2AA
:101CB000000141F8220002B080BD000000000000D9
:101CC00082B08DF807009DF907000090009800F0A1
:101CD0001F01012088409DF907104A094EF280112A
:101CE000CEF2000141F82200BFF34F8FBFF36F8F98
:101CF00002B070470000000082B08DF807009DF927
:101D000007000090009800F01F01012088409DF915
:101D100007104A094EF28011CEF2000141F822006C
:101D2000BFF34F8FBFF36F8F02B07047000000000A
:101D300082B08DF807009DF907000090009800F030
:101D40001F01012088409DF907104A094EF28011B9
:101D5000CEF2000141F82200BFF34F8FBFF36F8F27
:101D600002B070470000000080B582B08DF8070017
:101D70009DF90700FFF724FF9DF9070000F034F8F4
:101D800002B080BD0000000080B582B08DF8070071
:101D90009DF90700FFF734FF9DF9070000F038F8C0
:101DA00002B080BD0000000080B582B08DF8070051
:101DB0009DF90700FFF744FF9DF9070000F03CF88C
:101DC00002B080BD0000000080B582B08DF8070031
:101DD0009DF90700FFF754FF9DF9070000F040F858
:101DE00002B080BD0000000082B08DF807009DF9B0
:101DF00007000090009901F01F02012090404A095D
:101E00004EF20011CEF2000141F8220002B07047FC
:101E100082B08DF807009DF907000090009901F04D
:101E20001F02012090404A094EF20011CEF200013B
:101E300041F8220002B0704782B08DF807009DF98A
:101E400007000090009901F01F02012090404A090C
:101E50004EF20011CEF2000141F8220002B07047AC
:101E600082B08DF807009DF907000090009901F0FD
:101E70001F02012090404A094EF20011CEF20001EB
:101E800041F8220002B0704781B08DF803009DF93F
:101E900003204CF20030C4F2000050F8221021F46C
:101EA000803140F822109DF9031050F8210001B054
:101EB000704700000000000081B08DF803009DF91C
:101EC00003204CF20030C4F2000050F8221021F43C
:101ED000803140F822109DF9031050F8210001B024
:101EE000704700000000000081B08DF803009DF9EC
:101EF00003204CF20030C4F2000050F8221021F40C
:101F0000803140F822109DF9031050F8210001B0F3
:101F1000704700000000000081B08DF803009DF9BB
:101F200003204CF20030C4F2000050F8221021F4DB
:101F3000803140F822109DF9031050F8210001B0C3
:101F4000704700000000000081B08DF803009DF98B
:101F500003204CF20030C4F2000050F8221021F4AB
:101F6000803140F822109DF9031050F8210001B093
:101F7000704700000000000081B08DF803009DF95B
:101F800003204CF20030C4F2000050F8221021F47B
:101F9000803140F822109DF9031050F8210001B063
:101FA000704700000000000081B08DF803009DF92B
:101FB00003204CF20030C4F2000050F8221021F44B
:101FC000803140F822109DF9031050F8210001B033
:101FD000704700000000000081B08DF803009DF9FB
:101FE00003204CF20030C4F2000050F8221021F41B
:101FF000803140F822109DF9031050F8210001B003
:10200000704700000000000084B000200090EFF353
:10201000108001900198009001200390039880F3B4
:10202000108840F25860C2F20020006840B1FFE71B
:1020300040F25861C2F20021086801380860FFE7E9
:1020400040F25860C2F20020006848B9FFE740F64D
:102050001451C4F240010020087080200870FFE78E
:1020600000980290029880F3108804B07047000036
:1020700084B000200090EFF3108001900198009050
:1020800001200390039880F3108840F25860C2F258
:102090000020006848B9FFE740F61451C4F240013F
:1020A0000020087040200870FFE740F25861C2F23B
:1020B000002108680130086000980290029880F3BF
:1020C000108804B07047000081B0ADF80200BDF880
:1020D00002106FF03F0000EA9100C9B200EB8100EE
:1020E00040F60001C4F240014058C0F3400001B086
:1020F000704700000000000085B08DF80700002048
:102100000090EFF31080029002980090012004905C
:10211000049880F310889DF8071040F25060C2F2D6
:10212000002030F8110090B9FFE74EF2FA31C4F206
:10213000010108889DF807304BF63012C0F20022EA
:1021400032F81320104340F425400880FFE79DF843
:10215000072040F25061C2F2002131F81200013034
:1021600021F8120000980390039880F3108805B0BE
:10217000704700000000000085B08DF807000020C7
:102180000090EFF3108002900298009001200490DC
:10219000049880F310889DF8071040F25060C2F256
:1021A000002030F8110060B1FFE79DF8072040F2F1
:1021B0005061C2F2002131F81200013821F81200FA
:1021C000FFE79DF8071040F25060C2F2002030F89F
:1021D000110090B9FFE74EF2FA31C4F2010108880C
:1021E00040F425409DF807304BF63012C0F2002233
:1021F00032F8132090430880FFE70098039003987B
:1022000080F3108805B0704780B58CB00B900A91B0
:10221000002008900B980A994843079040F280509C
:10222000C2F2002000680990099841F20021C0F232
:102230007A0188421AD3FFE709984DF68361C4F208
:102240001B31A0FB0110800C069007980699A0FB9B
:10225000010105910490059820B1FFE74FF0FF3090
:10226000089002E004980890FFE731E009994CF6E5
:102270000020C3F69A30B0FBF1F0029007984FF4BB
:102280007A71A0FB010101910090019840B9FFE72C
:1022900000980299B0FBF1F003900398089016E0C3
:1022A00007980299B0FBF1F0079007984FF47A7104
:1022B000A0FB010101910090019818B9FFE7009877
:1022C000089003E04FF0FF300890FFE7FFE7FFE7DB
:1022D000089820B1FFE7089801F002FEFFE70CB074
:1022E00080BD00000000000082B08DF807009DF85E
:1022F000071042F2AC70C2F2002050F821000090AA
:10230000009802B07047000081B0009001B07047A3
:1023100081B08DF803009DF8030008B9FFE7FFE7DF
:102320009DF80300012801D1FFE707E09DF80300B5
:10233000022801D1FFE700E0FFE7FFE701B07047A7
:1023400082B000900098022805D8FFE7009901208C
:10235000884001902BE00098032803D1FFE7062076
:10236000019024E00098042803D1FFE708200190A1
:102370001DE00098052803D1FFE70320019016E037
:102380000098062803D1FFE7052001900FE0009890
:10239000072803D1FFE70A20019008E0FFE7FFE7E5
:1023A000FFE7FFE7FFE7FFE710200190FFE7019855
:1023B00002B070470000000082B0EFF3038001908C
:1023C00001980090BDF80000103840B202B070478C
:1023D00082B0EFF30380019001980090BDF80000F7
:1023E000103840B202B0704782B0EFF30380019022
:1023F00001980090BDF80000103840B202B070475C
:1024000082B0EFF30380019001980090BDF80000C6
:10241000103840B202B0704782B0EFF303800190F1
:1024200001980090BDF80000103840B202B070472B
:1024300082B0EFF30380019001980090BDF8000096
:10244000103840B202B0704782B0EFF303800190C1
:1024500001980090BDF80000103840B202B07047FB
:1024600081B08DF803009DF9031040F20470C2F2B0
:10247000002050F8210001B070470000000000006B
:1024800081B08DF803009DF9031040F20470C2F290
:10249000002050F8210001B070470000000000004B
:1024A00081B08DF803009DF9031040F20470C2F270
:1024B000002050F8210001B070470000000000002B
:1024C00081B08DF803009DF9031040F20470C2F250
:1024D000002050F8210001B070470000000000000B
:1024E00081B08DF803009DF9031040F20470C2F230
:1024F000002050F8210001B07047000000000000EB
:1025000081B08DF803009DF9031040F20470C2F20F
:10251000002050F8210001B07047000000000000CA
:1025200081B08DF803009DF9031040F20470C2F2EF
:10253000002050F8210001B07047000000000000AA
:1025400082B08DF80700009100989DF9072040F2B5
:102550000471C2F2002141F8220002B0704700006D
:1025600082B08DF80700009100989DF9072040F295
:102570000471C2F2002141F8220002B0704700004D
:1025800082B08DF80700009100989DF9072040F275
:102590000471C2F2002141F8220002B0704700002D
:1025A00080B584B04EF25400C4F20100007803906C
:1025B000039800F00F00FFF7C3FE02904EF25500A3
:1025C000C4F20100007800F00F008DF807009DF8BC
:1025D0000700FFF789FE0299B0FBF1F004B080BD5F
:1025E00087B08DF817004EF22000C4F20100006899
:1025F000049004989DF81710C84000F00F00039055
:102600009DF81700202807D1FFE740F28050C2F262
:102610000020006806904DE04EF22400C4F2010054
:10262000007800F00F000290029803990843000719
:10263000002834D5FFE79DF808000007002807D5DB
:10264000FFE7029800F0070103208840019004E0B2
:102650000299012088400190FFE7019802909DF8BF
:102660000C000007002807D5FFE7039800F00701DA
:1026700003208840009004E00399012088400090E6
:10268000FFE70098039040F28050C2F200200068FB
:10269000029948430399B0FBF1F006900AE040F23A
:1026A0008050C2F200200068029988400399C84017
:1026B0000690FFE7069807B0704700000000000092
:1026C00087B08DF817004EF22000C4F201000068B8
:1026D000049004989DF81710C84000F00F00039074
:1026E0009DF81700202807D1FFE740F28050C2F282
:1026F0000020006806904DE04EF22400C4F2010074
:10270000007800F00F000290029803990843000738
:10271000002834D5FFE79DF808000007002807D5FA
:10272000FFE7029800F0070103208840019004E0D1
:102730000299012088400190FFE7019802909DF8DE
:102740000C000007002807D5FFE7039800F00701F9
:1027500003208840009004E0039901208840009005
:10276000FFE70098039040F28050C2F2002000681A
:10277000029948430399B0FBF1F006900AE040F259
:102780008050C2F200200068029988400399C84036
:102790000690FFE7069807B07047000000000000B1
:1027A00085B00490039102920193049800900398DD
:1027B0000099486102980099C86101980099886160
:1027C000002005B07047000080B586B005900598E0
:1027D000049000200090039004984068C069029023
:1027E0000498406890F9120004F0F2FF029890F902
:1027F000240004F0EDFF029890F9250004F0E8FFB2
:10280000009804990860049805F032F80146009891
:10281000019104998A68C96891600499896848633C
:102820000498019941F4254105F02AF8039806B06F
:1028300080BD00000000000080B586B005900491C6
:102840008DF80F2005980290029805F011F801907C
:1028500004980138029989689DF80F2001EB8201E4
:10286000C8640298019941F4254105F009F8002057
:1028700006B080BD0000000080B584B003900398CE
:102880000290029804F0F4FF0190029802F000FB1D
:102890000298019941F4254104F0F2FF002004B0B0
:1028A00080BD00000000000080B58AB0099008914A
:1028B0000792079800F00300069009980590002001
:1028C00004904FF0FF30039005980899079B03AAE6
:1028D00002F0FAF9059804F0CBFF029005988068A1
:1028E000006B0190049858BBFFE7022000909DF810
:1028F0001C000007002803D5FFE704200090FFE735
:102900009DF81C00800700280FD5FFE70398059964
:102910008968009A01EB8201C86403980599896867
:10292000009A01EB8201086509E00398059989681E
:10293000069A009B1A4401EB8201C864FFE7FFE797
:102940009DF81C004006002807D5FFE70598816820
:10295000086C40F480000864FFE7069801280AD05C
:10296000FFE7019820F4403001900499019840EA73
:1029700001400190FFE7079802280AD1FFE7049879
:1029800038B1FFE70598089903AA012302F09CF9E2
:10299000FFE7069850B1FFE7019820F040700190E2
:1029A0000499019840EA01600190FFE701980599B8
:1029B000896808630598029941F4254104F060FF95
:1029C00000200AB080BD000080B588B0079007984D
:1029D000069006984068C06905904FF0004004904A
:1029E0000390029005984168049808430490059864
:1029F00081680398084303900598C16802980843CA
:102A00000290069804F034FF0190039806998968B3
:102A100048610298069989688861049806998968CE
:102A200008610598006906998968486205984069B7
:102A30000699896888620698019941F4254104F055
:102A40001FFF002008B080BD80B586B005900491BE
:102A50000598039003988068406E029002980130B8
:102A60000190019804998860039802F0A5F90499EF
:102A70004860049901200870002006B080BD000065
:102A800080B584B003900291039801900298017C74
:102A9000012088400199C8600198029902F0A0F9CC
:102AA0000198029902F00CFA019945F25400C0F223
:102AB00047000860002004B080BD00000000000056
:102AC00080B586B00590049105980390039804F0B2
:102AD000CFFE02900498013801900198039989680B
:102AE000886603984068007878B9FFE704994FF04A
:102AF000FF3000EB51000090009803998968486509
:102B00000098039989688865FFE703988068C06A20
:102B1000C00770B9FFE70198039989684866039870
:102B200081684FF4AA00086403988168C068C8608F
:102B3000FFE70398029941F4254104F0A1FE00202B
:102B400006B080BD0000000082B0019001980090A6
:102B500000988168C068C860002002B0704700001B
:102B600082B001900198009000988168C068486028
:102B7000002002B07047000083B0029001910298DB
:102B8000009000988068C06A00F001000199087107
:102B900000988068806C01990860002003B070473D
:102BA00082B001900198009000988168C0688860A8
:102BB000002002B07047000082B0019001980090A0
:102BC00000990020086002B070470000000000007B
:102BD00080B584B00390029103980190019945F269
:102BE0005420C5F24F000860029804F0C5FE002092
:102BF00004B080BD0000000080B588B00790ADF83B
:102C00001A100592BDF81A00ADF80400059800905E
:102C10000120ADF808006846039002A801F0A4F96D
:102C2000FFF726FABDF81A00059904F06DFEFFF7CC
:102C3000EBF9002008B080BD85B00490ADF80E100F
:102C40000292BDF80E100020C4F2400040EAD1000C
:102C500041F6E071C4F240010840009000984068DD
:102C6000000CADF806009DF80E1001208840ADF86C
:102C70000400BDF80600BDF804100840884204D1E5
:102C8000FFE702990120087003E002990020087014
:102C9000FFE7002005B0704780B582B00190ADF825
:102CA00002108DF80120BDF8021021F0FF00C9B21A
:102CB0009DF8012004F0ECFD002002B080BD000072
:102CC00080B584B00390ADF80A100192BDF80A00F7
:102CD000FFF7FAF901990870002004B080BD0000E8
:102CE00086B00590ADF812108DF811200020ADF8D7
:102CF0000E00ADF80C009DF813000002ADF80A00BC
:102D00009DF81200ADF80800BDF8081001208840B9
:102D1000ADF806009DF8110028B9FFE7BDF80600E0
:102D2000ADF80C0004E0BDF80600ADF80E00FFE7BA
:102D3000BDF80A100020C4F2400040EAD10041F67C
:102D4000E071C4F2400108400090BDF80C10BDF8DD
:102D50000E0040EA014000998860002006B07047EC
:102D600080B582B001900091009804F005FE00202B
:102D700002B080BD0000000088B00790ADF81A10C6
:102D8000ADF81820ADF81630BDF81A100020C4F2C6
:102D9000400040EAD10041F6E071C4F24001084031
:102DA0000090009800680490BDF81800BDF8161057
:102DB00008400390BDF81810BDF816008843029033
:102DC0000498019003990198084301900299019891
:102DD00088430190019800990860002008B070476E
:102DE00084B00390ADF80A100192BDF80A100020DB
:102DF000C4F2400040EAD10041F6E071C4F2400163
:102E00000840009000984068000C0199088000205C
:102E100004B070470000000085B00490ADF80E10BB
:102E2000ADF80C20ADF80A30BDF80C00BDF80A1062
:102E30000840ADF80800BDF80C10BDF80A00884342
:102E4000ADF80600BDF80E100020C4F2400040EAC4
:102E5000D10041F6E071C4F2400108400090BDF895
:102E60000610BDF8080040EA01400099C860002043
:102E700005B070470000000084B00390ADF80A1060
:102E80000192BDF80A100020C4F2400040EAD100CF
:102E900041F6E071C4F2400108400090009840689B
:102EA00001990880002004B0704700000000000075
:102EB00085B00490ADF80E10ADF80C20ADF80A30D6
:102EC000BDF80C00BDF80A100840ADF80800BDF8C8
:102ED0000C10BDF80A008843ADF80600BDF80E10CE
:102EE0000020C4F2400040EAD10041F6E071C4F293
:102EF000400108400090BDF80610BDF8080040EA07
:102F0000014000998860002005B070470000000073
:102F100085B003908DF80B10039801900620009067
:102F20009DF80B00800700282BD5FFE700200090BC
:102F30000198016A886820F440108860FFE70198D2
:102F4000006A806C800FC00708B9FFE7F7E70198B7
:102F5000016A886820F010008860FFE70198006A25
:102F6000007F0009C00708B1FFE7F7E701990020DB
:102F70000861009808B9FFE702E0009804900DE0AE
:102F8000FFE79DF80B00C00728B1FFE70020009085
:102F900001998861FFE700980490FFE7049805B065
:102FA000704700000000000080B592B010908DF8CE
:102FB0003F100E920D930D99FF2048700D9988785F
:102FC00000F0FE0088700D998020C87048F2A06063
:102FD000C0F201000C90002002908DF82F000A90A2
:102FE000FFF7DEFA0146029809910890FFE7089979
:102FF00000200129019007D8FFE70C980E9988421C
:103000005FEADF900190FFE70198C007002800F019
:10301000DC80FFE700200790FFE707980C2800F20C
:10302000CF80FFE79DF82000079A4BF27041C0F275
:1030300000218A5C510841EA920101F001014840F7
:10304000000608B1FFE7B7E007994BF61400C0F29D
:10305000002030F81100109948430A9009980A9905
:10306000B0FBF1F006900698B0F5807F00F2A380E7
:10307000FFE7FFE70698002800F09C80FFE706982E
:10308000013806900A98069901314843059009983D
:1030900048F2A061C0F20101A0FB0101059AD3171B
:1030A000FDF7BFF847F66011CFF6FE7108440490B3
:1030B00000208DF80F009DF83F00C00708B3FFE720
:1030C00005980999090AB0FBF1F08DF80F009DF9F8
:1030D0000F00002801D4FFE76CE0049848F2A061DB
:1030E000C0F2010108449DF80F104843C11700EBDE
:1030F000116147F66010CFF6FE7000EB21200490BE
:10310000FFE70498B0F1FF3F04DCFFE7049840427A
:103110000490FFE704980C9988423ADAFFE7079990
:103120004BF27040C0F20020415C01F001030D9AA7
:10313000117801F0EF0141EA031111700799435C26
:103140000D9A117803F0020301F0DF0141EA031147
:1031500011700799435C0D9A117803F0040301F094
:10316000BF0141EA031111700799425C0D998878FB
:1031700002F0180200F0CF0040EA42008870069882
:103180000D99487004980C909DF80F008DF82F0051
:10319000FFE79DF83F00C00750B1FFE70D99887821
:1031A00040F0010088709DF82F000D99C87000E074
:1031B00000E05FE7FFE7FFE70798013007902CE7A3
:1031C000FFE708980130089011E70C980E998842A3
:1031D00001DCFFE702E00320119002E000201190E3
:1031E000FFE7119812B080BD84B00390029103985C
:1031F00001900198006A806820F4401000900098C7
:103200004FF6EE71CFF6FE7108400199096A8860A9
:1032100001990020C86002990968019A126A116137
:103220000099019A126A916004B070470000000092
:1032300085B0049003910292019304980090039842
:103240000099486202980099C862019800998862C2
:10325000002005B07047000080B588B00390039847
:1032600002900298406844F64211C5F24331884208
:1032700001D1FFE702E0072004905BE00298016AB9
:10328000886820F4401088600298016A886820F0FD
:1032900010008860FFE70298006A007F0009C007FD
:1032A00008B1FFE7F7E70298C06990F90700FEF759
:1032B00023FD0298C06990F90900FEF71DFD0298F0
:1032C000016A886820F4803088600298C06990F9AB
:1032D0000500FEF711FD0298C06990F90B00FEF79A
:1032E0000BFD002000900190EFF3108005900598F1
:1032F000019001210791079880F310880298C06916
:103300000078C0F11F0001FA00F343F20400C4F298
:10331000200002681A43026000689620FEF774FFDE
:10332000009801990691069981F3108802994860E6
:103330000490FFE7049808B080BD00000000000082
:1033400082B00190009100994FF0FF3048600099E1
:103350000860002002B0704780B58AB006900591E1
:10336000069804900598017848F20000C4F23500F0
:1033700000EB012004990862049900200870059967
:10338000049AD16105994969049A5162059989693C
:10339000049AD162049988620598C06903900499DF
:1033A000887800F0FC00013088700598407838B9C2
:1033B000FFE70499887800F0FC0002308870FFE78E
:1033C0000498059904F01CFB4FF4806002900020E3
:1033D00000900190EFF31080079007980190012171
:1033E0000991099880F3108805980078C0F11F00B2
:1033F00001FA00F343F20400C4F2200002689A4389
:10340000026000689620FEF7FFFE01980890089879
:1034100080F3108802980499096A886004980599D5
:1034200004F0AEFB00980499C860049908610499FF
:103430004861049988610398408904990881049837
:10344000016A1020C9F607508866029840F0010012
:1034500002900498C06990F90500FEF7A5FC049855
:10346000C06990F90B00FEF79FFC029840F4803091
:1034700002900498C06990F90700FEF795FC049843
:10348000C06990F90900FEF78FFC029840F0100027
:10349000029002980499096A8860FFE70498006A1C
:1034A000007FC00708B9FFE7F8E7049944F6421027
:1034B000C5F24330486000200AB080BD0000000023
:1034C00085B004900391029204980190002000902E
:1034D000039801994861029801998861009805B0A4
:1034E000704700000000000083B002900191029834
:1034F0000090009880690199086000990020886117
:1035000003B070470000000084B003900291019264
:10351000039800900098016A886820F44010886041
:10352000FFE70098006A806C800FC00708B9FFE7CA
:10353000F7E70098016A886820F010008860FFE7CC
:103540000098006A007F0009C00708B1FFE7F7E7AD
:1035500001980099086102980099C8600098016A72
:10356000886840F010108860002004B070470000A8
:1035700080B500F095F802F0E3FAFFE7FEE70000FF
:1035800082B04EF22600C4F20100007801904EF2A3
:103590002400C4F20100007800F00F008DF8030051
:1035A0009DF803008DF802009DF80200082814D150
:1035B000FFE7019942F2AC70C2F2002050F82100FE
:1035C0004AF6AB21CAF6AA21A0FB0110400840F23E
:1035D0008051C2F2002108605DE09DF802000928D8
:1035E00014D1FFE7019942F2AC70C2F2002050F80A
:1035F00021004AF6AB21CAF6AA21A0FB01108008DF
:1036000040F28051C2F20021086043E09DF80200C0
:103610000A2814D1FFE7019942F2AC70C2F20020EF
:1036200050F821004AF6AB21CAF6AA21A0FB0110EE
:10363000C00840F28051C2F20021086029E09DF8E4
:1036400002000B2814D1FFE7019942F2AC70C2F2DC
:10365000002050F821004AF6AB21CAF6AA21A0FBAF
:103660000110000940F28051C2F2002108600FE011
:10367000019942F2AC70C2F2002050F821009DF88E
:103680000210C84040F28051C2F200210860FFE7FA
:10369000FFE7FFE7FFE702B070470000000000000F
:1036A00080B588B04EF61451CEF2000140F20120F0
:1036B000C0F20E000860BFF34F8FBFF36F8F4EF262
:1036C0000001CEF20101086840F004000860BFF379
:1036D0004F8FBFF36F8F4EF20801CEF200010868E2
:1036E00040F480300860BFF34F8FBFF36F8F4EF60A
:1036F0008851CEF200014FF47000086040F20000E3
:10370000C0F2002001904EF60851CEF20001086090
:1037100000200290FEF7FCFD00F022FA0120FEF7E7
:10372000F7FD01980068A0F580300790079880F3B6
:103730000A8840F28050C2F2002042F22C21C0F2EE
:103740000001FCF7C2FD40F20000C2F200204DF67D
:103750000001C0F2002140F28052C0F20002FCF7EA
:103760009BFD00F0F5FA00F0BFFA0298BFF34F8F0F
:10377000BFF36F8F4EF65071CEF200010860BFF3B9
:103780004F8FBFF36F8F40F2C012C0F2002240F2A1
:10379000C011C0F20021891A891006910590FFE737
:1037A00005980699884210DAFFE7059940F2C010A3
:1037B000C0F2002050F8211008440490049880477B
:1037C000FFE7059801300590EAE7FFF7D9FEFEF71D
:1037D0001BF90320FEF790FC00200390FFE70398FD
:1037E0000B280DD8FFE7039A40F63051C4F2400190
:1037F000002021F82200FFE7039801300390EEE754
:1038000003200090FEF7B8FC0098FEF775FC0098C6
:1038100044F20402C4F220020021116044F20802C2
:10382000C4F22002116044F20C02C4F220021160C2
:1038300044F21002C4F220021160FEF79DFC4EF229
:10384000D830C4F20100006858B1FFE74EF2D8301A
:10385000C4F20100006801282ED1FFE7012058BB07
:10386000FFE74EF21010C4F20100007820B3FFE72A
:103870000120FEF741FCFFE74EF21010C4F20100F8
:10388000007800F0C000802801D0FFE7F4E74EF296
:103890001011C4F2010100200870FFE74EF2101071
:1038A000C4F20100007810F0C00F01D0FFE7F5E787
:1038B0000120FEF761FCFFE70220FEF729FD00F082
:1038C00063FA002000F040FA08B080BD000000005C
:1038D00081B08DF803009DF90300002812D4FFE7A2
:1038E0009DF9031001F01F02012090404A094EF299
:1038F0008011CEF2000141F82200BFF34F8FBFF3D9
:103900006F8FFFE701B0704782B08DF8070000911C
:103910009DF9070000280AD4FFE7009800019DF9EF
:1039200007104EF20042CEF2000288540BE00098DD
:1039300000019DF8071001F00F014EF61452CEF26F
:1039400000028854FFE702B070470000000000004A
:1039500082B08DF8070000919DF9070000280AD475
:10396000FFE7009800019DF907104EF20042CEF2E9
:10397000000288540BE0009800019DF8071001F048
:103980000F014EF61452CEF200028854FFE702B047
:10399000704700000000000082B08DF80700009121
:1039A0009DF9070000280AD4FFE7009800019DF95F
:1039B00007104EF20042CEF2000288540BE000984D
:1039C00000019DF8071001F00F014EF61452CEF2DF
:1039D00000028854FFE702B07047000000000000BA
:1039E00080B5002003F0C8FD80BD0000000000008D
:1039F00081B000900098007940B9FFE741F20C11C6
:103A0000C2F20021086801300860FFE701B070478A
:103A100081B000900098007908B9FFE7FFE701B096
:103A2000704700000000000080B58AB0FEF7D0FCAF
:103A30008DF827009DF92700FEF73EFA9DF9270033
:103A4000FEF71EFD08900898007BC00728B1FFE72D
:103A5000089880680C30019004E00898806808306D
:103A60000190FFE701980790079800780690089862
:103A70004068007801280BD1FFE70799F42008700F
:103A8000069800F0F0000690069807990870FFE786
:103A900008984069A0B3FFE70898806902900298EF
:103AA00018B9FFE703A8029007E0029A106851686E
:103AB0009268059204910390FFE79DF81800800634
:103AC000002804D5FFE7029900200871FFE7089855
:103AD000C069029908600898416902988847089867
:103AE000806948B1FFE7089881690398049A059BAB
:103AF0008B604A600860FFE7079800780690FFE750
:103B0000069800F00F00079908700AB080BD000009
:103B100080B542F2AC71C2F2002146F60040C0F21C
:103B2000DC20086041F20020C0F27A0048604FF4C7
:103B30000040886042F60052C0F23112CA6008614B
:103B400043F60000C1F69C404861C8610862886184
:103B500048628862FFF714FD80BD0000000000008D
:103B600080B582B04EF2FA31C4F201014AF203503C
:103B70000880FDF731FFFFF7CBFF4EF65021C4F26E
:103B80000101062008704EF2A201C4F201010920D1
:103B9000087000F0A9F94EF23601C4F201010020CC
:103BA00008704EF23201C4F201010870FFE74EF2D4
:103BB0003C00C4F201000078C008C00708B9FFE764
:103BC000F5E74EF24800C4F2010045F601720280AA
:103BD0004EF24E00C4F2010040F2111101804EF28B
:103BE0004A03C4F20103002018704EF22803C4F205
:103BF00001031A804EF24C02C4F2010211804EF20F
:103C00002A01C4F201010870FFE74EF23C00C4F241
:103C1000010000784009C00708B9FFE7F5E700F0A8
:103C20000BF94EF23001C4F20101012008704EF28E
:103C30005201C4F2010108704EF25301C4F20101B5
:103C40000870002300938DF807309DF807004EF2AE
:103C50003E01C4F2010108709DF8070040F08000A9
:103C60008DF807009DF8070008704EF25500C4F269
:103C700001004EF25401C4F201011A4600F0ACF802
:103C8000009B4EF25700C4F201004EF25601C4F2FE
:103C900001011A4600F0A0F84EF2FA31C4F2010117
:103CA0004FF42540088002B080BD000000000000F5
:103CB00080B582B08DF807009DF8071040F20860CB
:103CC000C2F2002050F8210050B1FFE79DF8070034
:103CD00040F20861C2F2002151F820108847FFE746
:103CE00002B080BD0000000080B586B040F2000048
:103CF000C2F2000005904DF68051C0F200210491FF
:103D00004DF68050C0F20020401AC008039040F2E7
:103D10000001C2F20001029140F20000C2F2000074
:103D2000401AC008019005980499039A01F014FF05
:103D3000029801996A46116000231A4601F028FF93
:103D400006B080BD0000000081B0009001B0704757
:103D500080B584B040F20000C0F2000003904DF640
:103D60008051C0F2002102914DF68050C0F2002037
:103D7000401AC008019003980299019A01F0ECFEE4
:103D800004B080BD0000000081B000200090FFE77B
:103D900000985F281CD8FFE700994BF62E00C0F270
:103DA000002030F8110070B1FFE7009A4BF62E00AA
:103DB000C0F2002030F812004CF20031C4F20001D1
:103DC00041F82200FFE7FFE7009801300090DFE7AD
:103DD00001B070470000000083B0029001918DF89F
:103DE00003208DF802300299087840F040000870F6
:103DF000FFE7029801780120B0EBD11F01D0FFE767
:103E0000F7E79DF80300019908709DF8020040F063
:103E1000C000029908700299087800F0BF0008708D
:103E2000FFE7029801780020B0EBD11F01D0FFE737
:103E3000F7E703B07047000080B588B04CF21C1162
:103E4000C4F20101042008704EF22001C4F2010105
:103E5000029142F23230C3F21210039008604EF227
:103E60002401C4F2010101910120079008704EF273
:103E70002601C4F201010591052006900870FFF7A4
:103E80007FFB079996200490FEF7BEF9019B0299EB
:103E9000039800221A700860FFF772FB04980799D4
:103EA000FEF7B2F9059906980870FFF769FB0798C5
:103EB00042F20001C4F200014AF201520A80BFF34B
:103EC0005F8F42F20802C4F200021070BFF35F8FEE
:103ED0004FF42540088008B080BD000000000000BD
:103EE00001380028FCD1704780B54EF60040C4F27E
:103EF0000100007840B9FFE74EF60140C4F201002E
:103F00000078800738B3FFE74EF60040C4F20100A6
:103F10000078A0B9FFE74EF60040C4F2010001218D
:103F20000170C820FEF770F9FFE74EF60040C4F2BA
:103F300001000078012801D0FFE7F6E7FFE74EF621
:103F40000141C4F20101002008704EF60041C4F2A4
:103F50000101087004E04FF47A70FEF7D5F9FFE72D
:103F600080BD00000000000080B588B007904EF2D0
:103F70000000C4F20100049042F20000C4F22000EC
:103F8000039000200690FFE7069807990988884269
:103F900080F0A780FFE700200590FFE70598022842
:103FA00000F29A80FFE707984068069900EBC1008D
:103FB0008088059A4BF6AC21C0F2002131F812102E
:103FC000884240F08480FFE707984068069950F8DF
:103FD000310000F0F85002900298B0F1807F05D0D7
:103FE000FFE70298B0F1106F38D1FFE7049890F81E
:103FF0004C0C059A012191400840000688B9FFE762
:1040000001200190FEF778F80198059900FA01F374
:10401000049A92F84C1C194382F84C1CFEF7ACF839
:1040200000E0FFE70398059900EB410090F840108D
:104030000020B0EBD11F0FD1FFE70398059900EBEB
:10404000410191F8400040F0800081F84000C82014
:104050000121FEF7D9F800E0FFE737E0049890F877
:104060004C0C059A012191400840C0B2012811DB97
:10407000FFE701200090FEF73FF80098059900FA4D
:1040800001F3049A92F84C1C994382F84C1CFEF7F9
:1040900073F800E0FFE70398059900EB410090F802
:1040A0004000C00901280FDBFFE70398059900EBEA
:1040B000410191F8400000F07F0081F84000C820E5
:1040C0000121FEF7A1F800E0FFE7FFE7FFE7FFE7C8
:1040D00005980130059061E7FFE7069801300690EA
:1040E00052E708B080BD000080B586B0059004910D
:1040F000059880690090009818B9FFE7049800902F
:104100000FE0009A10685168926803920291019042
:104110000099049B18685A689B688B604A60086025
:10412000FFE705984169009888470598806948B17C
:10413000FFE7059881690198029A039B8B604A60AA
:104140000860FFE706B080BD80B586B048F2740114
:10415000C4F23401086805900598C0430860FEF772
:1041600043F98DF813009DF91300FDF7BDFE9DF98D
:104170001300FEF795F903900398406980B1FFE7BB
:104180000598039909690840009003988068019098
:104190000398C069029003986946FFF7A5FFFFE7FF
:1041A00006B080BD0000000080B54BF64822C0F28A
:1041B00000221068516892681268904780BD000024
:1041C00080B584B0039000208DF80B00FFE70398C2
:1041D0000078C00720B1FFE702208DF80B0034E023
:1041E0000399087840F00100087003990020886066
:1041F0000399C860039948690861039840780146AB
:10420000019140B1FFE7019801280AD0FFE701982A
:1042100002280DD013E0039948684969FCF755F866
:104220000DE00399486849694900FCF74EF806E03B
:104230000399486849698900FCF747F8FFE7039943
:10424000087800F0FE000870FFE79DF80B0004B04E
:1042500080BD00000000000082B001900091009A33
:104260000199C8681044C860FFE70198C1684069B7
:10427000884206D8FFE70199C8684A69801AC86071
:10428000F3E702B07047000082B001900091009AFD
:104290000199886810448860FFE701988168406947
:1042A000884206D8FFE7019988684A69801A8860C1
:1042B000F3E702B07047000085B004908DF80F104E
:1042C0000292019300208DF80300FFE7029820B9C5
:1042D000FFE703208DF8030014E00298049948607A
:1042E0000499002008709DF80F10049A51700499E9
:1042F00088600499C860019804990861019804993C
:104300004861FFE79DF8030005B07047000000001A
:1043100080B588B00790069105928DF81330002083
:104320008DF81200FFE7069820B9FFE703208DF80B
:104330001200A2E00799087840F00400087007987E
:1043400000F0CAF90290059800680299884207D9DE
:10435000FFE702980599086005208DF81200FFE735
:104360000798C1684069401A03900598006803994E
:10437000884231D8FFE7079840780146019140B163
:10438000FFE7019801280ED0FFE70198022816D018
:1043900021E00698079A5168D2681144059A12687C
:1043A000FBF77AFF17E00698079A5168D26801EB8D
:1043B0004201059A12685200FBF76EFF0BE0069867
:1043C000079A5168D26801EB8201059A126892003F
:1043D000FBF762FFFFE74FE0079840780146009146
:1043E00040B1FFE70098012817D0FFE700980228A6
:1043F0002AD040E00698079A5168D2681144039A7F
:10440000FBF74AFF0698039B184407994968059AE9
:104410001268D21AFBF740FF2DE00698079A516800
:10442000D26801EB4201039A5200FBF735FF069870
:10443000039B00EB430007994968059A1268D21A5A
:104440005200FBF729FF16E00698079A5168D268D8
:1044500001EB8201039A9200FBF71EFF0698039B73
:1044600000EB830007994968059A1268D21A9200F6
:10447000FBF712FFFFE7FFE7FFE79DF81300F8B92E
:10448000FFE707980078C00720B1FFE702208DF80A
:10449000120016E00799087840F0010008700798AC
:1044A00005990968FFF7D8FE059802680799086919
:1044B000104408610799087800F0FE000870FFE7D3
:1044C000FFE70799087800F0040008709DF81200D3
:1044D00008B080BD0000000080B588B0079006914C
:1044E00005928DF8133000208DF81200FFE7069832
:1044F00020B9FFE703208DF81200C1E00799087882
:1045000040F004000870079800F0E6F80290059863
:1045100000680299884207D9FFE702980599086068
:1045200005208DF81200FFE707998868C96888425E
:1045300007D8FFE70798806805990968884234D34F
:10454000FFE7079840780146019140B1FFE70198E5
:1045500001280FD0FFE70198022818D024E0069820
:10456000079A51689368059A12689B1A1944FBF7D9
:1045700093FE19E00698079A51689368059A1268A5
:104580009B1A01EB43015200FBF786FE0CE00698F4
:10459000079A51689368059A12689B1A01EB830188
:1045A0009200FBF779FEFFE769E00598006807993C
:1045B0008968401A0390079840780146009140B1FD
:1045C000FFE7009801281DD0FFE70098022837D0A8
:1045D00054E00698079A51685369039A9B1A194444
:1045E000FBF75AFE0698039B1844079A5168D2F8C5
:1045F00008C0059A1268ACEB020C6144D21AFBF7B2
:104600004BFE3BE00698079A51685369039A9B1A40
:1046100001EB43015200FBF73FFE0698039B00EBC2
:104620004300079A5168D2F808C0059A1268ACEBAB
:10463000020C01EB4C01D21A5200FBF72DFE1DE0DB
:104640000698079A51685369039A9B1A01EB8301F4
:104650009200FBF721FE0698039B00EB8300079A6C
:104660005168D2F808C0059A1268ACEB020C01EB55
:104670008C01D21A9200FBF70FFEFFE7FFE7FFE77E
:104680009DF81300E8B9FFE707980078C00720B14C
:10469000FFE702208DF8120014E00799087840F037
:1046A00001000870079802694169891AFFF7D4FD73
:1046B0000799486908610799087800F0FE000870BA
:1046C000FFE7FFE70799087800F0040008709DF8FD
:1046D000120008B080BD000081B000900098016910
:1046E0004069401A01B0704780B588B007900691C4
:1046F000059200208DF813000390FFE7069820B97B
:10470000FFE703208DF81300DCE0079800788007AE
:10471000002804D5FFE701208DF81300D2E00799A7
:10472000087840F0020008700598079909698842E6
:1047300000F2BE80FFE7079881684069401A039045
:1047400005980399884273D9FFE707984078014696
:10475000029140B1FFE70298012822D0FFE70298BA
:10476000022841D063E0079948688968084406999F
:10477000039AFBF791FD07980399FFF785FD0799C9
:104780004868896808440699039B1944059AD21A17
:10479000FBF782FD07980599039A891AFFF774FDC4
:1047A00045E007994868896800EB41000699039A3B
:1047B0005200FBF771FD07980399FFF765FD079914
:1047C0004868896800EB41000699039B01EB4301AF
:1047D000059AD21A5200FBF75FFD07980599039AD4
:1047E000891AFFF751FD22E007994868896800EBB4
:1047F00081000699039A9200FBF74EFD07980399F2
:10480000FFF742FD07994868896800EB8100069927
:10481000039B01EB8301059AD21A9200FBF73CFD42
:1048200007980599039A891AFFF72EFDFFE739E0EB
:10483000079840780146019140B1FFE701980128AF
:1048400011D0FFE7019802281CD02AE00799486898
:10485000896808440699059AFBF71EFD0798059993
:10486000FFF712FD1DE007994868896800EB4100D9
:104870000699059A5200FBF70FFD07980599FFF777
:1048800003FD0EE007994868896800EB81000699EE
:10489000059A9200FBF700FD07980599FFF7F4FCD5
:1048A000FFE7FFE7059A07990869801A086103E0A6
:1048B00004208DF81300FFE70799087800F0FD0049
:1048C0000870FFE79DF8130008B080BD00000000ED
:1048D00080B582B001900198B0F9180060B9FFE787
:1048E0000198B0F91A0038B9FFE70199888A08835E
:1048F0000199C88A48834AE00199888A098B401A3D
:10490000ADF80200BDF90200FBF7C2FC042809DB88
:10491000FFE7BDF902100320002950EAC0B0ADF84E
:104920000200FFE7BDF9020046F26761C6F2666168
:1049300050FB01F1480800EBD1720199088B10443B
:1049400008830199C88A498B401AADF80000BDF967
:104950000000FBF79DFC042809DBFFE7BDF9001010
:104960000320002950EAC0B0ADF80000FFE7BDF910
:10497000000046F26761C6F2666150FB01F148082B
:1049800000EBD1720199488B10444883FFE702B0D5
:1049900080BD00000000000080B586B0ADF81600B4
:1049A000ADF81410BDF8160040F6EE41C2F2002139
:1049B0000B7840F6F042C2F2002222F81300BDF854
:1049C00014000B7840F6FA42C2F2002222F81300DB
:1049D000087801304CF6CD42CCF6CC42A0FB022345
:1049E00003F0FC0202EB9302801A087040F6ED40DF
:1049F000C2F200200078C007F0B9FFE740F6EE40B1
:104A0000C2F20020007838B9FFE740F6ED41C2F26B
:104A10000021012008700EE0BDF8160040F2FC51A4
:104A2000C2F200210880BDF8140040F20061C2F219
:104A30000021088061E0FFE70020049003900290CD
:104A4000FFE70298042819DCFFE7029940F6F040DE
:104A5000C2F2002030F91110049808440490029921
:104A600040F6FA40C2F2002030F9111003980844D1
:104A70000390FFE7029801300290E2E7049846F2C3
:104A80006761C6F2666150FB01F2500800EBD2701C
:104A9000ADF80600039850FB01F1480800EBD17017
:104AA000ADF80400BDF9060040F2FC51C2F200214D
:104AB000B1F90010401AFBF7EBFB02280EDCFFE710
:104AC000BDF9040040F20061C2F20021B1F900100A
:104AD000401AFBF7DDFB03280FDBFFE7BDF80600FC
:104AE00040F2FC51C2F200210880BDF8040040F2FF
:104AF0000061C2F200210880FFE706B080BD00001F
:104B000080B582B00190009141F6A061C2F200210F
:104B1000002008704BF64821C0F20021086889681F
:104B20008B6801A901229847FFE741F6A060C2F215
:104B300000200078C00708B9FFE7F6E7019802B047
:104B400080BD00000000000089B00890079100209F
:104B50008DF80B000190FFE7089808B9FFE75EE0C9
:104B60000798B0F1FF3F09DCFFE70899481C08905F
:104B70002D20087007984042079007E0079820B959
:104B8000FFE708993020087049E0FFE7FFE7079842
:104B900070B3FFE7079846F26761C6F2666150FBA3
:104BA00001F2911001EBD27101EB8101A0EB410008
:104BB00001900198002803D4FFE70198009003E0DA
:104BC000019840420090FFE700989DF80B20511C8F
:104BD0008DF80B1003A98854079846F26761C6F256
:104BE000666150FB01F1881000EBD1700790CEE7B1
:104BF000FFE79DF80B0088B1FFE79DF80B0003A9C4
:104C0000084410F8010C303008994A1C08920870CA
:104C10009DF80B0001388DF80B00EAE7FFE709B0BB
:104C2000704700000000000041F20C10C2F20020AA
:104C3000006870470000000041F20C10C2F2002032
:104C4000006870470000000080B584B00290BDF895
:104C5000081040F24860C2F200200DF10702FEF792
:104C60002FF89DF8070020B1FFE701208DF80F0015
:104C700003E000208DF80F00FFE79DF80F0004B05F
:104C800080BD00000000000080B582B001908DF86A
:104C900003109DF8030050B1FFE7BDF8041040F287
:104CA0004860C2F200200122FEF71AF809E0BDF8C0
:104CB000041040F24860C2F200200022FEF710F813
:104CC000FFE702B080BD000089B00890079106920E
:104CD000059308988068806E0490049801300490D1
:104CE000079800285FEA1F908DF80F000798049935
:104CF00088425FEA3F908DF80E009DF80F00C007D4
:104D000030B9FFE79DF80E00C007002847D0FFE745
:104D10009DF81400C00738B9FFE708988068406B19
:104D200000F01F00029006E008988068406BC0F316
:104D300004400290FFE7089840680078042808DBE8
:104D4000FFE7029810F0100F5FEA1F908DF8070040
:104D500008E0029800F00C0004285FEA1F908DF82C
:104D60000700FFE79DF80F00C00728B1FFE79DF897
:104D70000700C00750B1FFE79DF80E00C00748B11B
:104D8000FFE79DF80700C00720B1FFE70699022062
:104D9000486003E0069903204860FFE708E00798B1
:104DA0000090009801380090009806990860FFE78D
:104DB00009B070470000000080B584B003900398EC
:104DC0008068C06AC0F3C3508DF80B000020FDF767
:104DD00077FC019001989DF80B10C84004B080BD8D
:104DE00083B00290019101980299486002990120D4
:104DF00008740298007B20B1FFE702990020087434
:104E0000FFE70198017C42F20000C4F2320000EB9F
:104E100001200090009802998860019840690299E9
:104E20004861019880690299C861029900208861EF
:104E300003B070470000000084B003908DF80B10A1
:104E40009DF80B10880140EA011040F48070019039
:104E50000920009003980078022801D1FFE710E0B4
:104E600003980078032803D1FFE70320009007E0B0
:104E70009DF80B0018B9FFE706200090FFE7FFE759
:104E8000FFE70099019808430190019804B070472A
:104E900081B00090009881684FF00040086100994F
:104EA0008968486100998968886100988168002054
:104EB000486200998968886201B07047000000006C
:104EC00080B594B010900F910F98C0690E9000209B
:104ED00001900D90EFF31080119011980D90012129
:104EE0001391139880F310880F98007CC0F11F0075
:104EF00001FA00F343F21000C4F2200002689A4362
:104F0000026000689620FDF77FF901980D991291D3
:104F1000129981F3108810998A684FF42541116025
:104F200010998968C86210998968C863109989685E
:104F300088640F98007A0C900C98C0050B900F981D
:104F4000406801380A900F980078032805D1FFE7E0
:104F50000B9840F480300B90FFE70B98109989680C
:104F6000C8621098FFF794FF0E98806910998968BD
:104F7000C8610E98C0691099896808620A981099EA
:104F8000896888660A98109989684866002009909F
:104F90000E99896B089107904FF0FF3006900F989B
:104FA000007850B9FFE70F9841684FF0FF3000EBF1
:104FB0005100059005980690FFE70F9800780228A9
:104FC00008DBFFE710980F99C96806AA0023FFF7CE
:104FD0007BFEFFE706981099896848650698109946
:104FE000896888650F980078042809DBFFE7069830
:104FF00010998968C8650698109989680866FFE75E
:105000000799099840EA014009900799099840EAF0
:10501000016009900E98806B10BBFFE70E98007836
:10502000C00758B1FFE70F980E994978FFF704FFC2
:1050300004900499089808430890FFE70E98807838
:10504000C00760B1FFE70F980E99C978FFF7F4FE2B
:1050500003900399089840EA01400890FFE7FFE7B2
:10506000109802F0E1FB1098816800208863109985
:105070008968C1F888000E98806B78B9FFE70E98B0
:1050800090F82010089840EA413008900E9890F867
:105090002110089840EA41700890FFE74FF4AA00F9
:1050A00002900E9890F8300020B1FFE74FF4A00076
:1050B0000290FFE702981099896808640F980078B9
:1050C000012808D1FFE7109881680020C864109972
:1050D00089680865FFE70898109989684863099806
:1050E00040F00300109989680863099840F00100B6
:1050F00010998968086310988168C068C860109822
:105100004AF2015102F0BCFB0F9991F91200497C5F
:10511000109A02F075FB0E9991F9240091F8221073
:10512000109A02F06DFB0E9991F9250091F8231069
:10513000109A02F065FB14B080BD00000000000072
:1051400010B598B000F02CFCFFF72EF84FF49670D5
:1051500003F09AFD4CF20410C0F2002005F09EF816
:105160004CF2F400C0F2002005F098F84CF62950FB
:10517000C0F2002005F092F84CF67E20C0F200202C
:1051800005F08CF84CF68A00C0F2002005F086F895
:105190004CF6DD40C0F2002005F080F84CF6BD0072
:1051A000C0F2002005F07AF84CF6B110C0F20020F1
:1051B00005F074F840F21400C2F2002001684CF6C9
:1051C0003330C0F2002005F069F840F21800C2F256
:1051D000002001684CF64930C0F2002005F05EF86E
:1051E00040F21000C2F2002001684CF61C30C0F200
:1051F000002005F053F840F20800C2F200200168D8
:105200004CF6BA20C0F2002005F048F840F20C003D
:10521000C2F2002001684CF67950C0F2002005F07F
:105220003DF84CF2D870C0F2002005F037F84CF68B
:105230006240C0F2002005F031F84CF69040C0F218
:10524000002005F02BF801F057FD03F08DFC03F072
:10525000C3FD04F0CDF804F037F940F2EC51C2F28E
:1052600000210020109008604860087240F2F85158
:10527000C2F20021087040F2E851C2F20021087029
:105280004BF6DA70C0F2002005F008F84BF68C708F
:10529000C0F2002005F002F84BF65670C0F2002074
:1052A00004F0FCFF109841F61621C2F2002108809C
:1052B00041F61421C2F20021088041F69E61C2F23B
:1052C0000021088041F69C61C2F20021088041F66D
:1052D0001A61C2F20021088040F20461C2F200218A
:1052E000087040F2C451C2F20021087040F69401E7
:1052F000C2F20021086040F69001C2F2002108705D
:105300008DF85F00FFE79DF85F00072810DCFFE7DE
:105310009DF85F2040F2C851C2F20021002041F800
:105320002200FFE79DF85F0001308DF85F00EAE79B
:1053300040F28452C2F200220D9200200E90D06101
:10534000906150611061D06090605060106040F2D8
:10535000A451C2F200210F91C861886148610861BF
:10536000C8608860486008601070087040F2026190
:10537000C2F20021087040F69801C2F200210860D4
:105380001690ADF85600ADF85400FFF74DFC40F60E
:105390008401C2F200210860FFE703F0A1FE41F2A0
:1053A0001110C2F200204FF4806103F0E5FC40B31D
:1053B000FFE74CF22850C0F2002041F21111C2F276
:1053C0000021099104F06AFF09984BF64821C0F2C8
:1053D00000210C910A680B92896889680A91FAF792
:1053E000A7FF09990A9B02460B9898470C990868F1
:1053F00089688B684CF61761C0F200210222984739
:10540000FFE7FFE741F69E60C2F20020008841F608
:105410009C61C2F200210988884279D0FFE741F6F9
:105420009E61C2F200210A8841F61C60C2F200208F
:10543000805C8DF853000888013000F07F00088000
:105440004BF64821C0F20021086889688B680DF18D
:105450005301012298479DF853000A2824D0FFE702
:105460009DF853000D281FD0FFE741F61A60C2F2E5
:105470000020008840F2FE31884215DCFFE79DF8ED
:10548000530041F61A63C2F200231A88511C198096
:1054900041F61921C2F20021885440F20461C2F29F
:1054A000002101200870FFE79DF853000A2805D06D
:1054B000FFE79DF853000D2829D1FFE740F2046073
:1054C000C2F200200078C00708B3FFE741F61A6077
:1054D000C2F200200790038841F61921C2F2002190
:1054E000069100220892CA5402884CF2BD10C0F204
:1054F000002004F0D3FE069803F02EFE07990898CA
:10550000088040F20461C2F200210870FFE779E7E9
:10551000FFE741F61620C2F20020008841F6142170
:10552000C2F200210988884200F05F81FFE741F65E
:105530001621C2F200210A8841F61410C2F200209E
:10554000805C8DF8520008880130C0B2088040F6B7
:105550008C01C2F200210868013008609DF85200F9
:10556000FF2808D1FFE740F20361C2F2002108786A
:105570000130087006E040F20361C2F20021002011
:105580000870FFE740F20360C2F2002000780428B0
:1055900033DBFFE741F6CC60C2F200200078C007A1
:1055A00058BBFFE741F6CC61C2F200210120087030
:1055B00041F61211C2F20021002008801390FFE78B
:1055C0001398032812DCFFE741F61211C2F2002102
:1055D0000A88501C088041F21151C2F20021FF20BC
:1055E0008854FFE7139801301390E9E740F2036114
:1055F000C2F20021002008708BE741F6CC60C2F2B5
:1056000000200078C007002800F0EE80FFE741F698
:105610001210C2F2002001880020B0EB912F40F060
:10562000E380FFE79DF8521041F61210C2F200200D
:1056300003885A1C028041F21152C2F20022D15456
:10564000008806282DD1FFE741F21150C2F2002058
:1056500001798DF84B1040798DF84A009DF84B1078
:105660009DF84A0040EA0120ADF84800BDF8480026
:10567000ADF85600BDF85600652811DBFFE741F68E
:10568000CC61C2F200210020087041F61211C2F272
:105690000021088040F20361C2F20021087038E75F
:1056A000FFE741F61210C2F2002000880A280BD151
:1056B000FFE741F21150C2F20020017A407A40EA3D
:1056C0000120ADF85400FFE741F61210C2F20020AD
:1056D00000880A286CDBFFE741F21150C2F200207B
:1056E000017A407A40EA0120ADF84600BDF8460054
:1056F00042F20101884229D1FFE741F61210C2F2BD
:1057000000200088252821DBFFE741F61210C2F2B5
:1057100000200590018841F21150C2F2002000F0F3
:105720001BFF059940F68802C2F200221068013082
:10573000106041F6CC62C2F2002200201070088096
:1057400040F20361C2F20021087030E0BDF846006B
:1057500042F20201884229D1FFE741F61210C2F25B
:1057600000200088102821DBFFE741F61210C2F26A
:1057700000200490018841F21150C2F2002000F094
:10578000EBFE049940F68802C2F200221068013054
:10579000106041F6CC62C2F2002200201070088036
:1057A00040F20361C2F200210870FFE7FFE7FFE764
:1057B00041F61210C2F20020008840F2FF31884208
:1057C00011D3FFE741F6CC61C2F20021002008703E
:1057D00041F61211C2F20021088040F20361C2F2C8
:1057E00000210870FFE7FFE793E6FFF71DFA169028
:1057F000169840F68401C2F200210968401A42F26C
:1058000010718842C0F0C780FFE7169840F6840107
:10581000C2F200210860169844F6D351C1F2620129
:10582000A0FB0110810940F68C00C2F20020026842
:1058300040F68800C2F20020036840F2FC50C2F239
:105840000020B0F9000040F2006CC2F2002CBCF95C
:1058500000E040F2C45CC2F2002C9CF80040EC4630
:10586000CCF80840CCF804E0CCF800004CF26C20F6
:10587000C0F2002004F012FD40F69000C2F20020B9
:105880000078C00790B3FFE740F2C450C2F2002096
:10589000007801282ADBFFE74CF6D510C0F2002083
:1058A00004F0FCFC00208DF84500FFE79DF8450062
:1058B00040F2C451C2F200210978884215DAFFE7AC
:1058C0009DF8451040F2C850C2F2002050F8211057
:1058D0004BF6C730C0F2002004F0E0FCFFE79DF873
:1058E000450001308DF84500E0E7FFE740F28450C5
:1058F000C2F2002003900078C2074CF6D551C0F2E6
:1059000000214CF6CB50C0F20020002A024618BFFE
:105910000A4640F2A453C2F200231B78DB07002B97
:1059200018BF0846694608604CF20E40C0F20020DD
:1059300040F277114FF4BC7304F0B0FC0398007888
:10594000C00738B3FFE740F2A450C2F2002000784D
:10595000C007F8B1FFE740F28450C2F2002040F2E5
:10596000A452C2F20022B0F91810B0F91A00B2F92C
:105970001830B2F91A20194401EBD17149101044C2
:1059800000EBD07042104BF62040C0F2002004F033
:1059900085FCFFE7FFE70A2003F076F9FDE400004D
:1059A00080B54BF6F002C0F2002210685168926890
:1059B0001268904764200121FCF726FC43F624413D
:1059C000C4F20001088820F4E0600880FFE743F695
:1059D0005040C4F20000007808B1FFE7F7E743F653
:1059E0002441C4F20001088840F0200020F0D000DB
:1059F0000880FFE743F65040C4F20000007808B189
:105A0000FFE7F7E743F62441C4F20001088840F0BD
:105A1000050020F00A000880FFE743F65040C4F27A
:105A20000000007808B1FFE7F7E743F62041C4F231
:105A30000001087840F001000870FFE743F650408D
:105A4000C4F200000078C008C00708B1FFE7F5E71E
:105A500043F60041C4F20001087800F0CF0008705E
:105A600043F60241C4F20001087840F001000870DA
:105A700043F60141C4F20001087800F0FE0008700E
:105A8000FFE743F65040C4F20000007808B1FFE79A
:105A9000F7E743F64841C4F200014FF40C70088068
:105AA000FFE743F65040C4F200000078C00708B199
:105AB000FFE7F6E743F64441C4F200010868052217
:105AC00062F3124008600868022262F30D30086039
:105AD000086862F34B200860086840F48070086032
