S00A000041542E7372656385
S3150000000000070020491500005D130000451500009B
S315000000104515000045150000451500004515000072
S315000000200000000000000000000000004515000070
S3150000003045150000000000004515000045150000AC
S31500000040190A00008D090000A90A0000F10A000043
S315000000500348044B834202D0034B03B11847704751
S31500000060680000206800002000000000064B0749D9
S31500000070C91A891048BF0131491003D0044B0BB18E
S3150000008001481847704700BF68000020680000203C
S315000000900000000010B5064C237843B9FFF7D8FFDF
S315000000A0044B13B10448AFF300800123237010BD45
S315000000B088000020000000006028000008B5054BFD
S315000000C01BB105490548AFF30080BDE80840FFF7BE
S315000000D0CDBF00BF000000008C000020602800009B
S315000000E008B50849084800F057FF0849064800F0D7
S315000000F025FE00B908BD1221054B064A064801F047
S31500000100F9F800BFE0250000B0000020CC25000073
S31500000110F0240000B42500000825000008B50849B1
S31500000120084800F039FF0849064800F007FE00B904
S3150000013008BD1A21054B064A064801F0DBF800BF48
S3150000014018260000D400002004260000F024000039
S31500000150A82500000825000008B50849084800F051
S315000001601BFF0849064800F0E9FD00B908BD222139
S31500000170054B064A064801F0BDF800BF50260000B0
S31500000180F80000203C260000F02400009C2500001A
S315000001900825000010B5104882B000F0B9FD012313
S315000001A00D4C8DF80430204601A900F0B7FD9DF8EE
S315000001B00430012BF7D0002107480DF1060200F0AC
S315000001C0B5FD18B9BDF8060002B010BD3421034BC9
S315000001D0034A044801F08EF8B0000020F024000025
S315000001E0902500000825000010B5104882B000F0E8
S315000001F08FFD01230D4C8DF80430204601A900F037
S315000002008DFD9DF80430012BF7D0042107480DF130
S31500000210060200F08BFD18B9BDF8060002B010BD4D
S315000002204621034B034A044801F064F8D400002039
S31500000230F0240000842500000825000010B51048B1
S3150000024082B000F065FD01230D4C8DF80430204688
S3150000025001A900F063FD9DF80430012BF7D00721BA
S3150000026007480DF1060200F061FD18B9BDF8060059
S3150000027002B010BD5821034B034A044801F03AF876
S31500000280F8000020F0240000782500000825000072
S315000002900379022B02D10122014B1A70704700BF6D
S315000002A0A400002008B5064BD3E9000100F094F93C
S315000002B000B908BD2821034B034A044801F01AF887
S315000002C074260000F0240000C02500001C25000054
S315000002D010B50648144600F0CBF805490B78002BFC
S315000002E0FCD000230B70204610BD00BF1C0100206F
S315000002F0A40000202DE9F04383B0FFF7D3FF0026CA
S31500000300DFF84C80114FFFF7EBFEFFF743FF054682
S31500000310FFF704FFFFF768FF8146FFF71DFFFFF7B2
S315000003208DFF04464046A4B201F048FA31461FFA52
S3150000033089F3AAB23846009401F040FA4FF47A7174
S31500000340084600F0DFFF0136DDE700BF4825000064
S3150000035030250000022800D070470249024800F00C
S31500000360CDBC00BFB4260000A80000204FF0FF302F
S31500000370704700BF002070470020704711B14FF44E
S3150000038000534B60002070470120704708B5FFF707
S31500000390B1FF002008BD00BF03460020012110B4B4
S315000003A01A6A58609070DA692C4C92F905204FEA67
S315000003B0521C02F01F0201FA02F20CF1200C44F862
S315000003C02C20BFF34F8FBFF36F8FDA6992F90B20A2
S315000003D04FEA521C02F01F0201FA02F20CF1200C45
S315000003E044F82C20BFF34F8FBFF36F8FDA6992F971
S315000003F007204FEA521C02F01F0201FA02F20CF12A
S31500000400200C44F82C20BFF34F8FBFF36F8FDA69AF
S3150000041092F909204FEA521C02F01F0201FA02F279
S315000004200CF1200C44F82C20BFF34F8FBFF36F8FD5
S31500000430EFF3108481F31088DB69094A93F800C052
S315000004404FF00043516823FA0CF30B435360536893
S3150000045084F310885DF8044B704700BF00E100E0AC
S315000004600040084003460020C3E90512704700BF5C
S3150000047010B4046AA37803F07B03A3708378046A3C
S3150000048003F00303D21A0B44C0E90332A37843F006
S315000004908003A370837803F00303022B06D0036A5C
S315000004A00A780020DA705DF8044B70470B88026A00
S315000004B043F47E43D38100205DF8044B704700BFB0
S315000004C084460020CCE90A32CCF82410704700BFDD
S315000004D001220346C0690078824012F0060F02D05E
S315000004E00A78120725D410B5186A827802F07B0EB6
S315000004F002F00B0282700020D8601A6A8C78547061
S3150000050092F800C04C7864F3010C82F800C091F8B0
S3150000051003C082F812C0097892F807C001F05C01A6
S315000005200CF0A30C41EA0C01D1711B6A83F802E0BE
S3150000053010BD0320704700BF4FF0FF330020C1E914
S31500000540003370470346880710D510B40024186A94
S31500000550C907827802F07B02827020461C6102D5B0
S31500000560002210469A615DF8044B7047CA0748BFDF
S3150000057000224FF0060044BF9A611046704700BF44
S315000005800346002210B49C6910460C609A615DF81F
S31500000590044B7047F0B5846A85B005460F4694460D
S315000005A06E46B4B194E80F0086E80F00EB6920466A
S315000005B01B78A760236084F804C0EB6AE3606B6A6B
S315000005C09847AC6A1CB196E80F0084E80F0005B0A6
S315000005D0F0BD3446EAE700BF0122034608788240B0
S315000005E012F0060F05D0CA6952681278120700F198
S315000005F0CB8100224FF0010C00F580002DE9F0417F
S3150000060000F58C500002C3E907101A704D699878FE
S315000006105D628D696CF30100C3E90A25987048781C
S31500000620D44C904214BF65460225987865F30100C4
S31500000630987091F90B5091F80AE0680905F01F06C9
S3150000064020300CFA06F644F82060BFF34F8FBFF354
S315000006506F8FC94805F1C00650F8267062F310473F
S3150000066040F8267050F82660C44E4FEA0E1E6719F1
S315000006705FFA8EFE87F800E346F8253091F90550BB
S3150000068091F804E06F0905F01F0820370CFA08F806
S3150000069044F82780BFF34F8FBFF36F8F05F1C00774
S315000006A050F8278062F3104840F8278050F82770EA
S315000006B04FEA0E1E67195FFA8EFE87F800E346F8CA
S315000006C0253091F9075091F806E06F0905F01F08EB
S315000006D020370CFA08F844F82780BFF34F8FBFF392
S315000006E06F8F05F1C00750F8278062F3104840F875
S315000006F0278050F827704FEA0E1E67195FFA8EFEA4
S3150000070087F800E346F8253091F9095091F808E09A
S315000007106F0905F01F0820370CFA08F844F82780FF
S31500000720BFF34F8FBFF36F8F05F1C00750F82780D7
S3150000073062F3104840F8278050F827004FEA0E1061
S31500000740C0B22C4484F8000346F82530EFF3108637
S315000007508CF310884FF000450C788948E5404468D2
S3150000076024EA05044460406886F31088186A82709B
S31500000770186A0271186A4272186A8272186AC2721C
S31500000780186A428340F2F93208780CFA00FC1CEA37
S31500000790020F02D040201A6AD0740625012240F2C8
S315000007A0F9301C6A25770C78A240024240F0CA80D4
S315000007B0CA7848788C78D200032842EA041200F0FE
S315000007C0D58000280CBFE220F2201C6AD2B222702B
S315000007D01A6A9071CC69227B082A00F0C380186AD5
S315000007E0520002F00202427300256278A078D2011C
S315000007F0400100F02000D2B20243186A0572207848
S3150000080002380128186A40F2A280D2B2C27160682A
S315000008101A6A847854704578147865F30104147064
S31500000820C4789474D479007804F0A30400F05C00D2
S315000008302043D0710020C3E90300C3E90500DC6949
S315000008404D4A94F90540CD6904F1C00152F8216082
S3150000085095F800C060F3104642F821600CF0030CD6
S3150000086052F82110BFF35F8F4FF0010E6109890026
S3150000087004F01F0401F1604101F561410EFA04F430
S31500000880C1F880410C60D96991F90B4004F1C001AF
S3150000089052F8216060F3104642F8216052F82110A8
S315000008A0BFF35F8F6109890004F01F0401F1604105
S315000008B00EFA04F401F56141C1F880410C60D96972
S315000008C091F9074004F1C00152F8216060F3104627
S315000008D042F8216052F82110BFF35F8F6109890049
S315000008E004F01F0401F160410EFA04F401F56141C0
S315000008F0C1F880410C60D96991F9091001F1C00471
S3150000090052F8246060F3104642F8246052F824201E
S31500000910BFF35F8F4A09920001F01F0102F16042A6
S315000009200EFA01F102F56142C2F8801111601A6AED
S315000009304CF0700C82F802C06989124A19815A601B
S31500000940BDE8F0814FF478401A6A908230E7FF25BF
S3150000095045702078022808BF42F01002186AD2B209
S31500000960C27167E70A201A6A50733DE7F22042F027
S3150000097040022AE700E100E000600040900100200C
S31500000980004008405549435303207047EFF3038363
S31500000990103B1F4A5BB203F1C00152F8210020F45C
S315000009A0803042F8210052F821201A4A52F82300DA
S315000009B0C3691B6983B1036903B17047026A0021E9
S315000009C0937803F07F0343F004039370436AC16096
S315000009D0C3B18022FFF7DEBD0369026A002BEED0A9
S315000009E08378C16803F00303022B0CD00B78D37015
S315000009F08278D0E9031302F003029B1A1144C0E97E
S31500000A000313D9E770470B8843F47E43D381EFE79E
S31500000A10006000409001002010B582B0EFF3038320
S31500000A20103B1F4A5BB203F1C00152F8210020F4CB
S31500000A30803042F8210052F821201A4A52F8234009
S31500000A40A27802F00303022B236A0CBF198A597994
S31500000A50A3690CBFC1F30801C9B2019143B9636A26
S31500000A60B3B10422204602B0BDE81040FFF792BDA4
S31500000A7002F0030201A9606900F04DFFD4E90521E7
S31500000A80A37803F003031A44C91AC4E9052109B17E
S31500000A9002B010BD636A002BFAD00122E2E700BF64
S31500000AA0006000409001002010B5EFF303830E4A6A
S31500000AB0103B5CB252F82400026A937803F07B0381
S31500000AC09370436A1BB102220021FFF763FD074AB8
S31500000AD004F1C00352F8231021F4803142F82310A8
S31500000AE052F8233010BD00BF900100200060004086
S31500000AF010B5EFF303831A4A103B5CB252F8240098
S31500000B00837803F00303022B036A0CBF198A597911
S31500000B1093F804C00CBFC1F30801C9B21CF0100F52
S31500000B200CF0380206D093F81CC01CF0010F08BF69
S31500000B3042F0400293F804C00CF0C70C83F804C0DE
S31500000B40436A0BB1FFF726FD064A04F1C00352F8CB
S31500000B50231021F4803142F8231052F8233010BDBF
S31500000B6090010020006000402DE9F84F0388DBB1BA
S31500000B7082464FF0000B4FF00109DFF8D0800024C9
S31500000B80304D4FEACB07DAF8043035F8022BD91985
S31500000B90898891420AD00134032CF4D1BAF8003086
S31500000BA00BF1010B5B45EAD8BDE8F88FDB5909FA72
S31500000BB004F603F0B853B3F1807FF6B298F8BB346D
S31500000BC013D0334231D1204A04F1200612F81630F0
S31500000BD0DB09E0D012F81630012123F08003C8208B
S31500000BE002F8163000F08EFBD5E7334211D0164AD4
S31500000BF004F1200112F81130DB09CCD112F81130C2
S31500000C00C82043F0800302F81130012100F07AFB7E
S31500000C10C1E7012000F04CFC98F8BB3401203343B7
S31500000C2088F8BB3400F014FCE1E7012000F040FC3A
S31500000C3098F8BB34012023EA060388F8BB3400F099
S31500000C4007FCC0E71C2800000030084000E0014017
S31500000C50F8B50646FFF788FFEFF31082012383F30A
S31500000C601088234F3B681BB92249CB704023CB70B9
S31500000C703B6801333B6082F31088338823B300213D
S31500000C801D4D08E01B01134445F82340328801310D
S31500000C908BB29A4218D9736853F8314003EBC102FC
S31500000CA09288E0034FEA1223D2B2EBD502EB03108F
S31500000CB055F820E024F4803C2EF4803E45F820E0F0
S31500000CC01B0145F820C0DEE7EFF31082012383F312
S31500000CD010883B6813B13B68013B3B603B681BB91E
S31500000CE080200449CB70C87082F31088F8BD00BF1D
S31500000CF08C010020000D08400008084008B5034B91
S31500000D0003600846FFF7A4FF002008BD54524F5069
S31500000D1003461A689B8A00201380704703461B68A7
S31500000D2000201B88C3F3C0330B70704703461B6853
S31500000D30103133F811300020138070472DE9F04749
S31500000D40D1E9018E764B41F2360C1A6803460868E3
S31500000D505F681C681FFA80F97F69A4F804901C6814
S31500000D601FFA88F9A4F814901C681FFA8EF9A4F8E3
S31500000D7008901C6820F0C0404FEA1049A4F806907D
S31500000D801C6828F0C0484FEA1848A4F816801C686A
S31500000D902EF0C04E4FEA1E4E624EA4F80AE0366AA6
S31500000DA0614DC6F3026802FA08F2C6F3021E22FA81
S31500000DB00EF2A5FB025292090CFB02F2DFF878A1B3
S31500000DC0AAFB0242D1E90045920C0132072A45EA04
S31500000DD0040538BF072215F0005420D0EFF3108C1D
S31500000DE0012484F31088514CE66826F48006E660F8
S31500000DF0E4688CF3108890264D4C26701C68D6B299
S31500000E0084F8DE600C688E6814F0005F0CBF4FF447
S31500000E1080644FF48074B60048BF44F001046E004D
S31500000E200FD51D68D2B285F8DF200A6855008A689A
S31500000E304CBF44F4007444F40064520048BF44F0CC
S31500000E4002041A68A4B25482CA68002A66D01489B9
S31500000E5026052ED42546AD050DD5D67C957C354385
S31500000E601E6886F8A6501D68D689A5F8A860158A5A
S31500000E701A68A2F8AA501A68A2F890401A680C8A52
S31500000E80A2F880403A796AB1B0FA80F01C682288EC
S31500000E9092B222F01F021F32121A92B22280988A50
S31500000EA002439A82234A0020DA600A681A61BDE882
S31500000EB0F0871D68A5F890401D685689A5F89C60C6
S31500000EC01D689689A5F89E6015681E681FFA85FC40
S31500000ED0A6F894C04FEA154C1E682CF4C04C1FFAB5
S31500000EE08CFCA6F896C01E68C5F3417586F892502C
S31500000EF055681E681FFA85FCA6F898C04FEA154C7F
S31500000F001E682CF4C04C1FFA8CFCA6F89AC01E680A
S31500000F10C5F3417586F8935015899CE71446AAE7F0
S31500000F20AC01002000E00140D34D621000400840B3
S31500000F3000300F404344415283DE1B4310B400F19E
S31500000F40604C134C0901134BC9B20CF5614C8CF87B
S31500000F50001300F1C00144F8202053F8212022F4A8
S31500000F60803243F8212053F82130BFF35F8F0122EE
S31500000F7043099B0000F01F0003F1604303F5614342
S31500000F808240C3F880211A605DF8044B704700BFA9
S31500000F90900100200060004000222DE9F8434E69D0
S31500000FA04160CB68044683610B690D46C0E907239F
S31500000FB00B885B0203F1804303F5B81303604869AD
S31500000FC08B7882785B03002A6BD143F450710379E6
S31500000FD0002B6CD189B2A1828278C77812022B7954
S31500000FE007F03F0702F47C523A43EF78DB0343EA0B
S31500000FF04703477890F800E043EA4713EFF3108978
S315000010004FF0010C8CF31088B5F800802D4FC8F115
S3150000101010080CFA08FCD7F80C8028EA0C0CC7F864
S315000010200CC0FF6889F3108847F6FF5739402768D8
S3150000103092B2398021689BB20A822268D3812368E2
S3150000104083F80CE083792268A3F10103B3FA83F3F2
S315000010505B0982F8D03095F90600002803DB2246AA
S31500001060697AFFF76BFF95F90700002803DB224634
S31500001070A97AFFF763FF96F90700002803DB2246EB
S31500001080717AFFF75BFF96F90800002803DB22461A
S31500001090B17AFFF753FF00200B4B2061A360BDE838
S315000010A0F8833F2A077943F4107108D117B141F04C
S315000010B080018FE743F4024141F040018AE7002FA7
S315000010C088D0F4E70040084043444152064B0749A4
S315000010D093F826001A6A51F82030C2F302620449D6
S315000010E0D3400B60704700BF00E00140680000205D
S315000010F0AC010020704700BFF8B54AF20350012347
S315000011004549464AA1F8FE03A2F80431B2F8043173
S315000011109BB2002BFAD101204FF400454FF0090C89
S315000011203F4CDFF818E13F4EC4F804E0DFF810E169
S315000011303D4FC4F80CE0A2F800013C4A3649B060C5
S3150000114030602760A5602561626191F82620086AF3
S3150000115054F82220364EC0F30260C240326081F855
S31500001160133481F8A2C091F880341BB991F8813408
S3150000117099074CD0284D95F88034002B3CD000229E
S31500001180254B83F8812483F880240023224981F8A3
S31500001190323091F83C301A07FBD543F20210002397
S315000011A01D4A088581F82A3092F83C309B06FBD50B
S315000011B00320052319494FF0F10C81F81C011D4944
S315000011C0116282F8263092F82630156A54F8230008
S315000011D0C5F30264E04030600123F0244FF425405B
S315000011E0154981F80CC00B720C7382F8303082F806
S315000011F05230A2F8FE03F8BD0121C82085F88014FC
S3150000120000F080F895F88034012BFBD1B7E74FF456
S315000012107A70FFF76FFFB8E700E0014000C00140B9
S315000012206800002000700040002D310100C2EB0B69
S31500001230AC010020211201200020004000127A009B
S3150000124000366E0138B50025284C0121C82084F8E7
S31500001250285000F057F884F8245094F82430002BD6
S31500001260FBD194F82430214943F0020384F824305A
S3150000127091F82430C3F340009B07F9D41B4A81F848
S31500001280220092F8223003F0FF00002BF9D192F8E9
S315000012904030164960F3C71382F8403091F8403069
S315000012A0DB09FBD191F84200104A63F3C71081F8BD
S315000012B0420092F84230DB09FBD192F844000B4918
S315000012C063F3C71082F8440091F84430C3F3C014A6
S315000012D0DB09F9D1012000F0EBF8054B012083F87A
S315000012E0BB44BDE8384000F0B3B800BF003008404A
S315000012F000E0014000BEFEE7A0F101000028FBD19E
S31500001300704700BF4FF47A7310B400FB01F1114C23
S31500001310114A2468B2FBF4F2A1FB03043CB9B0FB0A
S31500001320F2F0800860B15DF8044BFFF7E5BF92006C
S31500001330B1FBF2F1A1FB03132BB908460028F2D149
S315000013405DF8044B70474FF0FF3C5DF8044B604678
S31500001350FFF7D2BFAC01002000CA9A3B70B500244B
S315000013600B4B0C4EB3F82021B3F84051ADB21540EB
S3150000137025FA04F3DB0704D556F82430E0B203B1AE
S3150000138098470134102CF3D1014BA3F8305170BDAE
S31500001390006000404C01002070B5032084B000F0CE
S315000013A087F86FF0FF054FF0FF31254A254C13886B
S315000013B05088002BA5640BBF002601260B466FF054
S315000013C00103CDE90111039138B3918823F002039B
S315000013D059B3D28823F0040322BB019319491A4A50
S315000013E00B67C2F88032029B03204B67C2F8843237
S315000013F0039B164C8B67C2F8883200F029F800234D
S315000014000F4931F8022B03F1C00001330AB144F849
S315000014102020042BF5D104B070BD90880028D8D1C7
S31500001420D28842B123F00803D7E7D288002AD4D065
S3150000143023F00803D1E7002ECFD10B46CEE700BF3D
S31500001440F02700000080004000E100E0006000405E
S31500001450EFF31081012383F31088124B33F8102029
S3150000146092B22AB133F81020013A92B223F8102032
S3150000147033F810309BB293B910B40B4A0B4CB2F848
S31500001480FE3334F810009BB243F4254323EA0003ED
S31500001490A2F8FE3381F310885DF8044B704781F3A0
S315000014A010887047A001002000E0014024280000B9
S315000014B030B4EFF31081012383F310880E4A32F81B
S315000014C010309BB26BB90D4C0D4DB4F8FE3335F8A8
S315000014D010C09BB243EA0C0343F425439BB2A4F825
S315000014E0FE3332F8103001339BB222F8103081F30C
S315000014F0108830BC704700BFA001002000E001400A
S315000015002428000008B50C4A0346106840B103338E
S315000015100A4923F0030303448B4205D8136008BD30
S31500001520074908461160F2E700F0ECF90C22034681
S315000015301A604FF0FF3008BDA8010020000300200C
S315000015400003002000BE704708B500F003F8FEF760
S315000015501DFFFEE74FF4700270B52B4B2B4CC3F802
S31500001560882000209C60FEF7F5FEFFF7C5FD0120F0
S31500001570FEF7F0FE2368A3F5806383F30A88244808
S31500001580244A0021121A00F06EF92348234A2449FE
S31500001590121A00F0C0F9234D234B5B1B002B07DD0D
S315000015A000249E1055F8043B01349847A642F9DC06
S315000015B0FFF78CFDFFF746FE0320FFF779FF0023B8
S315000015C04FF6FF70194903F1080201330C2B21F87D
S315000015D01200F8D100240320FFF73AFF0320FFF79B
S315000015E067FF134B03205C609C60DC601C61FFF7A7
S315000015F02FFF0220FEF7AEFEFFF7CEFE2046BDE827
S31500001600704000F017B800BF00ED00E000000000D9
S3150000161088000020FC020020000000206800002056
S31500001620642800006000002064000020000D0840CF
S3150000163000000E40704700BF002310B504468360CB
S31500001640818119464366C28108228361C0E900335D
S31500001650C0E904335C3000F006F90D4B2462636286
S315000016600C4BA3620C4BE3620C4B23630C4B9C426A
S3150000167006D003F16802944202D0D0339C4205D1D1
S3150000168004F15800BDE8104000F042B910BD00BF9B
S31500001690E1170000031800003B1800005F18000067
S315000016A0B0010020024A0349034800F069B800BFB0
S315000016B004000020CD2100001400002041680C4BDE
S315000016C0994210B5044601D000F080FDA168094B8F
S315000016D0994202D0204600F079FDE168064B994216
S315000016E004D02046BDE8104000F070BD10BD00BF1C
S315000016F0B0010020180200208002002010B50B4B1C
S3150000170004210B4C0B4A20461A600022FFF794FF77
S3150000171004F1680001220921FFF78EFF04F1D000D1
S3150000172002221221BDE81040FFF786BFE802002022
S31500001730B0010020A5160000014800F0EAB800BF7D
S31500001740F1020020014800F0E5B800BFF1020020D8
S3150000175010B50446FFF7F0FF236A1BB1BDE8104041
S31500001760FFF7F0BF044B2362044B1B68002BF5D137
S31500001770FFF7C4FFF2E700BFBD160000E802002035
S315000017802DE9F8430746884614460026D4E9019514
S31500001790B9F1010905D52468002CF7D13046BDE81A
S315000017A0F883AB89012B07D9B5F90E30013303D085
S315000017B029463846C04706436835E9E70FB407B5FA
S315000017C0064904AB086853F8042B8168019300F0BE
S315000017D0D1F903B05DF804EB04B0704710000020A7
S315000017E010B50C46B1F90E1000F068F80028ABBF32
S315000017F0636DA3891B1823F48053ACBF6365A38173
S3150000180010BD2DE9F0411F468B8905460C46DB05C8
S31500001810164605D502230022B1F90E1000F03CF859
S31500001820A3893246B4F90E10284623F48053A381C7
S315000018303B46BDE8F04100F053B810B50C46B1F98F
S315000018400E1000F029F8431CA38915BF606523F428
S31500001850805343F48053A38118BFA38110BDB1F90F
S315000018600E1000F009B802440346934200D17047B7
S3150000187003F8011BF9E7FFFF38B50023054D0446C1
S3150000188008462B60FEF772FD431C02D12B6803B19C
S31500001890236038BDEC02002038B50446064D0846E4
S315000018A0114600222A601A46FEF764FD431C02D147
S315000018B02B6803B1236038BDEC02002038B504461E
S315000018C0064D0846114600222A601A46FEF754FDC8
S315000018D0431C02D12B6803B1236038BDEC02002003
S315000018E038B50446064D0846114600222A601A46B7
S315000018F0FEF7EEFC431C02D12B6803B1236038BD12
S31500001900EC020020014B1868704700BF1000002051
S315000019107047704770470A44431E914200D1704792
S3150000192010B511F8014B914203F8014FF9D110BDE2
S3150000193038B50546002941D051F8043C0C1F002B50
S31500001940B8BFE41800F0E0F81D4A136833B96360C5
S3150000195014602846BDE8384000F0DCB8A34208D938
S31500001960206821188B4201BF19685B68091821603D
S31500001970EDE71A465B680BB1A342FAD91168501815
S31500001980A0420BD120680144501811608342E0D177
S3150000199018685B68084453601060DAE702D90C23C4
S315000019A02B60D6E7206821188B4202BF19685B6856
S315000019B00918636008BF21605460CAE738BD00BFDC
S315000019C0F802002070B50F4E0C460546316811B975
S315000019D000F0B8FC30602146284600F0B3FC431CFA
S315000019E003D14FF0FF34204670BDC41C24F003041D
S315000019F0A042F8D0211A284600F0A4FC0130F2D10A
S31500001A00EFE700BFF40200202DE9F843CD1C06469F
S31500001A1025F0030508350C2D38BF0C25002D01DBFC
S31500001A20A94204D90C2333600020BDE8F883DFF80F
S31500001A30D48000F069F8D8F800301C4644BB29462B
S31500001A403046FFF7BFFF431C044658D1D8F8004084
S31500001A502746002F43D1002C4BD023683946304609
S31500001A6004EB030900F06EFC814542D12168304643
S31500001A706D1A2946FFF7A6FF01303AD023682B449A
S31500001A802360D8F800305A6862BBC8F800700FE0CF
S31500001A902268521B20D40B2A17D96119A34225604C
S31500001AA018BF5960636808BFC8F8001062514B60E0
S31500001AB0304600F02FF804F10B00231D20F007003C
S31500001AC0C21A1CBF1B1AA350AFE76268A3420CBF21
S31500001AD0C8F800205A60EBE723466468AEE73C4648
S31500001AE07F68B6E71A465B68A342FBD100235360C2
S31500001AF0DEE70C233046336000F00CF894E705600F
S31500001B00D6E700BFF80200200148FFF702BF00BF7A
S31500001B10F00200200148FFF7FDBE00BFF0020020E2
S31500001B209368013B002B936010B408DA9469A342D2
S31500001B3001DB0A2903D15DF8044B00F06FBB136883
S31500001B40581C1060084619705DF8044B7047F8B5CC
S31500001B5006460F461446D518AC4201D1002007E0D0
S31500001B603A4614F8011B3046FFF7DAFF431CF3D15F
S31500001B70F8BDFFFF2DE9F04F0D469DB0144698467F
S31500001B80064618B1036A0BB9FFF7E2FD6B6ED9077B
S31500001B9005D4AB899A0502D4A86DFFF7BAFEAB89C6
S31500001BA01B0701D52B699BB92946304600F074FB0B
S31500001BB070B16B6EDC0704D54FF0FF301DB0BDE889
S31500001BC0F08FAB899805F7D4A86DFFF7A3FEF3E76E
S31500001BD00023CDF80C804FF00109DFF8B48109939A
S31500001BE020238DF8293030238DF82A3023469A4653
S31500001BF013F8012B0AB1252AF9D1BAEB040B0BD045
S31500001C005B46224629463046FFF7A1FF013000F029
S31500001C10A780099A5A4409929AF80030002B00F0DE
S31500001C209F8000234FF0FF320AF1010A04930793C5
S31500001C308DF853301A93CDE90523544605225448AE
S31500001C4014F8011B00F08EFB049AD8B9D10644BFE4
S31500001C5020238DF85330130744BF2B238DF85330C0
S31500001C609AF800302A2B15D0079A544600204FF0D8
S31500001C700A0C214611F8013B303B092B4BD9B0B178
S31500001C80079214E0A0EB0803A24609FA03F31343F4
S31500001C900493D2E7039B191D1B68002B0391BBBF5E
S31500001CA05B4242F0020207930793B8BF049223787F
S31500001CB02E2B0AD163782A2B32D1039B02341A1DAC
S31500001CC01B6843EAE37303920593DFF8D4A003226B
S31500001CD02178504600F046FB38B1A0EB0A004022BE
S31500001CE0049B013482401343049314F8011B06221B
S31500001CF028488DF8281000F035FB00283FD0264BE9
S31500001D001BBB039B073323F0070308330393099B8D
S31500001D103B4409936AE70CFB02320C460120A8E714
S31500001D20002301344FF00A0C19460593204610F89B
S31500001D30012B303A092A03D9002BC6D00591C4E7F6
S31500001D400CFB012104460123F0E703AB2A4604A954
S31500001D5030460093114BAFF300800746781CD6D16E
S31500001D606B6ED90705D4AB899A0502D4A86DFFF727
S31500001D70D1FDAB895B063FF51FAF09981EE703ABA4
S31500001D802A4604A930460093044B00F07DF8E4E7A8
S31500001D902C28000036280000000000004F1B000021
S31500001DA0322800002DE9F047164698468A6807460D
S31500001DB00B690C46DDF820909342B8BF134633609A
S31500001DC091F843200AB1013333602368990642BF74
S31500001DD0336802333360256815F0060506D104F131
S31500001DE0190AE36832689B1AAB422BDC94F843303D
S31500001DF02268003B18BF0123920630D404F1430247
S31500001E0041463846C847013023D023681A3454F86F
S31500001E100A2C03F00603042B0ABF54F80E5C0025B7
S31500001E2033684FF0000608BFED1A54F8123C08BF9D
S31500001E3025EAE5759342C4BF9B1AED18B5421AD13F
S31500001E40002008E00123524641463846C847013083
S31500001E5003D14FF0FF30BDE8F0870135C1E7E11847
S31500001E605A1C30200233224481F8430094F845106E
S31500001E7082F84310C2E70123224641463846C84746
S31500001E800130E6D00136D9E72DE9FF470F7E9146AE
S31500001E9080460C46782F9A460C9E01F1430207D8DD
S31500001EA0622F0AD8002F00F0D180582F00F0B8809A
S31500001EB004F1420684F842703AE0A7F16303152B59
S31500001EC0F6D801A151F823F0211F0000351F0000AC
S31500001ED0B11E0000B11E0000B11E0000B11E0000C0
S31500001EE0351F0000B11E0000B11E0000B11E00002B
S31500001EF0B11E0000332000005F1F0000ED1F000030
S31500001F00B11E0000B11E000055200000B11E0000E9
S31500001F105F1F0000B11E0000B11E0000F51F00008B
S31500001F2033681A1D1B68326004F1420684F8423099
S31500001F3001239CE033682068191D3160060601D52F
S31500001F401D6803E04506FBD5B3F90050002D03DA02
S31500001F502D236D4284F8433058480A2311E0216846
S31500001F603368080653F8045B02D4490648BFADB28D
S31500001F706F2F3360514814BF0A230823002184F8C9
S31500001F8043106668002EA66005DB21682E4321F00B
S31500001F90040121604BD01646B5FBF3F103FB115744
S31500001FA0C75D06F8017D2F460D46BB42F4D9082BC6
S31500001FB00BD12368DF0708D5236961689942DEBF24
S31500001FC0302306F8013C06F1FF36921B22614B4690
S31500001FD003AA21464046CDF800A0FFF7E3FE0130F4
S31500001FE04AD14FF0FF3004B0BDE8F087236843F0D4
S31500001FF02003236078273248236884F845701F063B
S31500002000316851F8045B02D45F0648BFADB2316057
S31500002010D90744BF43F0200323601DB11023ADE769
S315000020202648E9E7236823F020032360F6E71646EF
S31500002030BDE733682568181D616930602E061B6888
S3150000204001D5196002E06806FBD519800023164603
S315000020502361BCE7336800211A1D32601E6862687E
S31500002060304600F07FF908B1801B60606368236129
S31500002070002384F84330AAE723693246494640469E
S31500002080D0470130ADD023689B0713D4E068039B8B
S315000020909842B8BF1846A6E701233246494640464D
S315000020A0D04701309DD00135E36803995B1AAB42F6
S315000020B0F2DCEBE7002504F11906F5E73D28000000
S315000020C04E280000B1F90C202DE9F041160705460F
S315000020D00C4654D44B68002B02DC0B6C002B48DDFD
S315000020E0E66A002E45D0002312F480522F68216A3A
S315000020F02B6030D0626DA389590705D56368D21A63
S31500002100636B0BB1236CD21A0023E66A216A284658
S31500002110B047431CA38906D129681D292BD82A4A12
S31500002120CA40D60727D50022D904626022692260F8
S3150000213004D5421C01D12B6803B96065616B2F6021
S31500002140B9B104F14403994202D02846FFF7F0FBE7
S31500002150002363630DE001232846B0470246501C66
S31500002160C9D12B68002BC6D01D2B01D0162B1DD133
S315000021702F60002021E043F040031BB21AE00F69F4
S31500002180002FF6D093070E680F600CBF4B69002333
S31500002190A6EB07088B60B8F1000FEADD43463A4626
S315000021A0216A2846A66AB047002808DCB4F90C3034
S315000021B043F040034FF0FF30A381BDE8F0810744B0
S315000021C0A8EB0008E7E700BF0100402038B50B691F
S315000021D005460C4613B90025284638BD18B1036AD2
S315000021E00BB9FFF7B5FAB4F90C30002BF3D0626ED9
S315000021F0D00704D4990502D4A06DFFF78AFB2846C0
S315000022002146FFF75FFF636E0546DA07E4D4A3892C
S315000022109B05E1D4A06DFFF77DFBDDE7F8B50E4623
S315000022201446054618B1036A0BB9FFF791FAA3697C
S31500002230A360A3891A0701D5236943B92146284615
S3150000224000F02AF818B14FF0FF373846F8BD23687A
S31500002250F6B222693746981A6369834205DC21463D
S315000022602846FFF7B3FF0028EDD1A368013BA36022
S3150000227023685A1C22601E70431C62699A4204D06D
S31500002280A389DB07E1D50A2EDFD121462846FFF7D1
S315000022909DFF0028D9D0D6E738B5294B05460C4610
S315000022A0186818B1036A0BB9FFF752FAB4F90C3083
S315000022B0190722D4DA0607D409222A6043F040031C
S315000022C04FF0FF30A38133E0580712D5616B41B15F
S315000022D004F14403994202D02846FFF729FB002364
S315000022E06363A38923F02403A38100236360236926
S315000022F02360A38943F00803A38123694BB9A3890B
S3150000230003F42073B3F5007F03D02146284600F07E
S315000023105CF8B4F90C3013F001020AD00022A26076
S3150000232062695242A261226942B913F08000C5D1A6
S3150000233038BD990758BF6269A260F4E70020F7E745
S315000023401000002038B50023054D044608462B60D2
S31500002350FFF7D8F8431C02D12B6803B1236038BDC0
S31500002360EC020020C9B20346024410B59342184657
S3150000237001D1002003E0047801338C42F6D110BD70
S3150000238070B50C46B1F90E1096B0154600291E46DA
S315000023900CDAA389002113F0800F14BF40234FF4F9
S315000023A08063002031602B6016B070BD6A4600F075
S315000023B049F80028EDDB019901F47041A1F50053BD
S315000023C0594259414FF48063EBE78B89F7B59D0776
S315000023D006460C4607D504F1470323602361012313
S315000023E0636103B0F0BD01AB6A46FFF7C9FF009F0A
S315000023F0054630463946FFF707FB48B9B4F90C30B5
S315000024009A05EED423F0030343F00203A381E2E727
S31500002410A389206043F08003A381019BC4E90407DC
S315000024205BB1B4F90E10304600F01EF828B1A3894E
S3150000243023F0030343F00103A381A3891D43A58170
S31500002440CFE7FFFF38B50023064D04460846114680
S315000024502B60FDF793FF431C02D12B6803B1236069
S3150000246038BD00BFEC02002038B50023054D0446F8
S3150000247008462B60FDF788FF431C02D12B6803B189
S31500002480236038BDEC0200204275696C74207769C0
S3150000249074682052656E6573617320416476616E5F
S315000024A063656420466C657869626C6520536F6667
S315000024B07477617265205061636B6167652076652C
S315000024C07273696F6E20352E392E3000352E392EF7
S315000024D03000000000000905F8B500BFF8BC08BCD4
S315000024E09E467047F8B500BFF8BC08BC9E467047CC
S315000024F04653505F53554343455353203D3D206556
S3150000250072720000000000002E2E2F7372632F627D
S3150000251073705F6164632E63000000002E2E2F73BC
S3150000252072632F6273705F756172742E63000000B0
S315000025300D0A2A2A5254545F5072696E74665F748B
S315000025406573742A2A000000525454207072696E12
S31500002550746620636F756E743D2025642061643057
S315000025603D202564206164343D2025642061643764
S315000025703D20256400FFFFFF616463375F70726F63
S3150000258000FFFFFF616463345F70726F00FFFFFF3F
S31500002590616463305F70726F00FFFFFF4144433731
S315000025A05F496E697400FFFF414443345F496E69B9
S315000025B07400FFFF414443305F496E697400FFFFBA
S315000025C0756172745F696E697400FFFF0100000037
S315000025D000000000000000000000000000000018DD
S315000025E000000000000FDFDF00FFFF00000000001A
S315000025F000000000F825000000013F3F000000DF5A
S31500002600DFFFFFFF100000000000000000000000D8
S31500002610000000000000001800000000000FDFDFCF
S3150000262000FFFF0000000000000000003026000050
S3150000263000013F3F000000DFDFFFFFFF80000000DA
S31500002640000000000000000000000000000000186C
S3150000265000000000000FDFDF00FFFF0000000000A9
S31500002660000000006826000000013F3F000000DF78
S31500002670DFFFFFFF1C01002080260000F827000076
S31500002680060200000C000C010C020C030000000006
S31500002690000000009102000000000000A0260000DB
S315000026A000010000000000200F00FFFF00000000F6
S315000026B0FFFF000026000000C0260000000000000A
S315000026C00080000000000000004000000100000043
S315000026D0004000000200000000800000040000002E
S315000026E00080000007000000008000000E000000CF
S315000026F000000106000100000000010601010000C3
S3150000270000000106020100000000010603010000AE
S315000027100000010008010000050000000E01000095
S315000027200000011305020000000001150802000068
S31500002730000001150A020000000001150B0200004E
S31500002740000001150E020000000001000003000059
S315000027500000010401030000000001040203000060
S31500002760000001040403000000000104050300004A
S315000027700000011202040000000001120304000020
S31500002780000001120404000000000112050400000C
S3150000279000000112060400000004010707040000FF
S315000027A00004010708040000000001130F040000E4
S315000027B000000111000500000000011101050000E4
S315000027C000000111020500000000011103050000D0
S315000027D000000111040500000000011105050000BC
S315000027E000000105010600000000010502060000C8
S315000027F0A401A501A601A701D905000065040000F2
S3150000280071040000D10400003905000045050000F0
S31500002810C1040000990300008105000002040304BE
S315000028200404FFFF0100020008001000232D302BD6
S315000028302000686C4C0065666745464700303132BB
S315000028403334353637383941424344454600303112
S31500002850323334353637383961626364656600FF72
S30900002860000000006E
S31500002864400035000000000003000000B001002015
S315000028741400002000000000B0010020180200200F
S31500002884800200200000000000000000000000009C
S31500002894000000000000000000000000000000002E
S315000028A4000000000000000000000000000000001E
S315000028B4000000000000000000000000000000000E
S30D000028C4BD00000095000000B4
S3150100A100FFFFFFFFFFFFFFFFFFFFFFFFFFFFFFFF58
S3090100A110FFFFFFFF48
S3090100A134FFFFFFFF24
S3150100A200FFFDFFFFFFFFFFFFFFFFFFFFFFFFFFFF59
S3150100A210FFFFFFFFFFFFFFFFFFFFFFFFFFFFFFFF47
S3150100A220FFFFFFFFFFFFFFFFFFFFFFFFFFFFFFFF37
S3150100A230FFFFFFFFFFFFFFFFFFFFFFFFFFFFFFFF27
S3150100A240FFFFFFFFFFFFFFFFFFFFFFFFFFFFFFFF17
S3150100A250FFFFFFFFFFFFFFFFFFFFFFFFFFFFFFFF07
S3150100A260FFFFFFFFFFFFFFFFFFFFFFFFFFFFFFFFF7
S3150100A270FFFFFFFFFFFFFFFFFFFFFFFFFFFFFFFFE7
S3150100A280F8F8FFFFFFFFFFFFFFFFFFFFFFFFFFFFE5
S3150100A290FFFFFFFFFFFFFFFFFFFFFFFFFFFFFFFFC7
S3150100A2A0FFFFFFFFFFFFFFFFFFFFFFFFFFFFFFFFB7
S3150100A2B0FFFFFFFFFFFFFFFFFFFFFFFFFFFFFFFFA7
S3150100A2C0FFFFFFFFFFFFFFFFFFFFFFFFFFFFFFFF97
S705000015499C
