:020000040200F8
:10000000C0370222B1300002E1090002D909000222
:10001000D9090002D9090002D9090002D909000250
:10002000000000000000000000000000D9090002EC
:10003000D909000200000000D9090002D909000214
:10004000618F00026190000219900002A98E0002E7
:10005000B99E0002799F0002019F0002119E0002DA
:1000600071370002618F0002619000021990000256
:10007000A98E000259470002818D0002498E0002BC
:10008000018E0002418D0002B1370002618F000233
:100090006190000219900002A98E000221910002D5
:1000A0007191000209920002B137000200000000C5
:1000B0000000000000000000000000000000000040
:1000C0000000000000000000000000000000000030
:1000D0000000000000000000000000000000000020
:1000E0000000000000000000000000000000000010
:1000F0000000000000000000000000000000000000
:1001000000000000000000000000000000000000EF
:1001100000000000000000000000000000000000DF
:1001200000000000000000000000000000000000CF
:1001300000000000000000000000000000000000BF
:1001400000000000000000000000000000000000AF
:10015000000000000000000000000000000000009F
:10016000000000000000000000000000000000008F
:10017000000000000000000000000000000000007F
:10018000000000000000000000000000000000006F
:10019000000000000000000000000000000000005F
:1001A000000000000000000000000000000000004F
:1001B000000000000000000000000000000000003F
:1001C0002DE9F05F0546002092469B46884606468C
:1001D000814640241BE0284641464746224600F01F
:1001E00029F953465A46C01A914110D31146184670
:1001F000224600F010F92D1A67EB01084F462246FF
:100200000120002100F007F917EB00094E41201EE4
:10021000A4F10104DFDC484631462A464346BDE8E6
:10022000F09F2DE9F0410024061B254671F10006E0
:1002300005DA01240027D0EB070067EB0101161E49
:1002400073F1000605DA0027D2EB0702012567EB00
:100250000303FFF7B5FF86460E4617469C46AC42A1
:1002600004D00025D0EB050E65EB010624B100207B
:10027000D2EB000760EB030C704631463A4663460A
:10028000BDE8F0810649074A0868504343F2390245
:10029000104408604008704701490860704700003A
:1002A000040000226D4EC641002800DA404270472B
:1002B00040EA01039B0703D009E008C9121F08C0E8
:1002C000042AFAD203E011F8013B00F8013B521E68
:1002D000F9D27047D2B201E000F8012B491EFBD2DF
:1002E00070470022F6E710B513460A460446194641
:1002F000FFF7F0FF204610BD421E12F8013F002B11
:10030000FBD111F8013B02F8013B002BF9D17047FA
:1003100030B505462A460B4612F8010B13F8014B7F
:1003200008B1A042F8D01CB1002802D06D1CF1E742
:10033000284630BD10B5044604E00B7800F8013BB8
:1003400003B1491C521EF8D2204610BDCAB2401E4D
:1003500010F8011F8A4202D00029F9D1002070470D
:10036000421C10F8011B0029FBD1801A704710B500
:10037000002200E0521C835C8C5CA34201D1002B64
:10038000F8D1D8B2E1B2401A10BD034611F8012BE2
:1003900000F8012B002AF9D11846704730B5054600
:1003A0000020034600E05B1C934205D2EC5CC85C75
:1003B000201A01D1002CF6D130BD0022CBB2017839
:1003C000994200D10246401C0029F8D110467047DE
:1003D00070B506460BF080FC046805460A22002131
:1003E000304600F037F82C6070BD30B50B46014642
:1003F00000202022012409E021FA02F59D4205D3C4
:1004000003FA02F5491B04FA02F52844151EA2F16D
:100410000102F1DC30BD202A04DB203A00FA02F1AF
:10042000002070479140C2F1200320FA03F31943E2
:1004300090407047202A04DB203A21FA02F0002184
:10044000704721FA02F3D040C2F1200291400843E4
:10045000194670472DE9F04791460F4680460446FD
:10046000002614F8015B2DB100F0F6F90068405D3C
:10047000C007F6D12B2D02D02D2D18D0641E4A4670
:100480003946204600F0ECF927B13968A14201D184
:10049000C7F8008071054FF002040BD540420028D8
:1004A00003DD0BF019FC0460A007BDE8F08746F4FB
:1004B0008066E4E70028F8DA0BF00EFC04606FF0C9
:1004C0000040F2E72DE9FE4F804681EA0300C00FAD
:1004D0000C46009021F0004123F00045B8EB0200EB
:1004E000A94105D24046214690461C460B4602468D
:1004F00023F00040104347D0270DC7F30A00C3F391
:100500000A510290401A019040286BDAC3F313009D
:1005100040F4801B0098924620B10023D2EB030ADE
:1005200063EB0B0B01985946C0F140025046FFF7B0
:1005300072FF06460D4650465946019A00F07AF978
:1005400010EB08006141002487EA115284EAE77346
:100550001A4340D0009A62B3019A012A4FEA075227
:1005600015DC001B61EB02014FF0004202EA07526A
:10057000CDE90042001C41F5801132462B4600F0C7
:10058000CDF903B0BDE8F08F40462146F9E7001BE6
:1005900061EB0201001C41F5801300185B4120183B
:1005A000A2F5001747EB030140EAD570B6196D417B
:1005B00011E06D084FEA360645EAC0754FEA07526A
:1005C000001B61EB0201001C41F5801149084FEA54
:1005D00030000019514132462B4603B0BDE8F04FC0
:1005E00000F08DB90098012240000023D0EB0202F8
:1005F00063EBE073009821464FEAE074B8EB00002B
:1006000061EB0401E9E783F000435BE781F000411F
:1006100058E72DE9FE4F81EA030404F0004421F07D
:10062000004100944FF0000B23F0004350EA010416
:100630005ED052EA03045BD0C3F30A54C1F30A55F7
:100640002C44A4F2F3340194A0FB0254C1F313012F
:1006500041F48011C3F3130343F4801301FB0244FC
:1006600000FB034E840A970A44EA815447EA835701
:10067000A4FB076802958D0A05FB07854FEA932CBA
:1006800004FB0C542705029D4FEA065847EA16372B
:10069000B5EB08056EEB070C870E920E47EA811743
:1006A00042EA8312A7FB0201B6EB0B0164EB0004E4
:1006B0002B0D43EA0C335E1844EB1C50DA465146CE
:1006C000E7FB0201C5F313044FEA0B3343EA14536B
:1006D0004FEA0432019C43EA0603A4F10C0402949D
:1006E000009CCDE900B400F019F903B0BDE8F08F2B
:1006F00000200146F9E72DE9F04D81EA030404F0FA
:10070000004B21F0004514464FF0000A23F0004151
:1007100050EA050220D054EA01021DD0C5F30A5761
:100720000246C5F31303C1F31300C1F30A5640F4A4
:10073000801543F48013A7EB0608101BD64608F279
:10074000FD3873EB050002D308F1010801E09218AF
:100750005B41B8F1000F03DA00200146BDE8F08DDF
:1007600000204FF48011064684460EE0171B73EB01
:10077000050705D3121B63EB050306434CEA010C86
:1007800049084FEA300092185B4150EA0107EDD169
:1007900052EA030012D082EA040083EA050108430A
:1007A00005D0101BAB4106D20122002306E0002237
:1007B0004FF0004302E06FF0010253101AEB060005
:1007C0004CEB085110EB0A0041EB0B01BDE8F04D7A
:1007D00000F095B8C1F30A52C1F3130140F2FF33A0
:1007E00041F480119A4202DA00200146704740F23B
:1007F00033439A42A2F2334202DC5242FFF71ABE5E
:10080000FFF709BE30B5041E71F1000404DB4FF0A0
:100810000044404264EB0101141E73F1000405DB47
:100820001C464FF00043524263EB0403994208BF59
:10083000904230BD202A06DBCB17203A41FA02F065
:1008400043EAE07306E041FA02F3D040C2F120022D
:1008500091400843194670470048704734C600026B
:100860002DE9F05F82460078002715468B460AF195
:100870000104B946302801D09DB113E014F8010BF2
:100880000127782803D0582801D045B10AE00DB1DE
:10089000102D07D10027102514F8010B02E00825C0
:1008A00000E00A250026B0460EE005FB080005FB27
:1008B00006F1012701EB10461FFA80F8B6F5803FDC
:1008C00000D3B94614F8010B294600F075F800284A
:1008D000EBDABBF1000F05D00FB1641E00E0544607
:1008E000CBF80040B9F1000F06D00BF0F5F902216A
:1008F0000160C81EBDE8F09F48EA0640FAE710B55F
:10090000141E73F1000408DA401C41F10001921832
:100910005B411A4301D120F0010010BD2DE9F04DDB
:1009200092469B4611B1B1FA81F202E0B0FA80F230
:1009300020329046FFF76FFD04460F4640EA0A005A
:1009400041EA0B0153465A46084313D0114653EA75
:10095000010019D0C8F140025046FFF76BFD054673
:100960000E46504659464246FFF755FD084305D00E
:10097000012004E020463946BDE8F08D0020054303
:1009800046EAE0762C4337430A986305E40AA0EB75
:1009900008000022FD0A44EA47540A3002D500202C
:1009A0000146E9E7010510196941DDE9084500192B
:1009B0006941BDE8F04DA2E73A2800D2303820F076
:1009C0002002412A01D3A2F13700884201D34FF01F
:1009D000FF3070470000000000BE704700000000BC
:1009E00080B582B04CF20010C4F200000088ADF86F
:1009F00006004CF22010C4F200000088BDF806107A
:100A00000840ADF8040000208DF80300FFE79DF8D2
:100A100003000F2814DCFFE7BDF804009DF8031065
:100A2000C840C00728B1FFE79DF8030003F048FC69
:100A3000FFE7FFE79DF8030001308DF80300E6E7CC
:100A4000BDF804004CF21011C4F200010880FFE769
:100A50004CF22010C4F200000088BDF804100840D9
:100A6000000408B1FFE7F3E702B080BD000000001A
:100A700082B001900091062002B070470000000093
:100A800085B004900391029201930498009003981A
:100A90000099886102980099086201980099C861DC
:100AA000002005B07047000080B588B0049004981D
:100AB000039003990020009088600399C860039810
:100AC0004068406902900398406890F9060006F07B
:100AD0005BFE0398406890F9070006F055FE029807
:100AE00090F9070006F050FE029890F9080006F011
:100AF0004BFE0098039909680882039909680880E9
:100B000003990968A1F866000190EFF31080059041
:100B10000598019001210791079880F310880398A8
:100B200040680088C0F1100001FA00F343F20C00A5
:100B3000C4F2200002681A4302600068962001F0A7
:100B40008FF8009801990691069981F3108808B0F2
:100B500080BD00000000000080B58AB008900791B9
:100B6000089806900020059004900698006904906B
:100B7000049838B3FFE7049820F0C040039003982E
:100B8000C00003900499039840EA517003900398C1
:100B900006F02AFE029006980068029900EB4100D8
:100BA0001A3007990860039809900998B0FA80F004
:100BB000C0F11F00019001980299401A0130079975
:100BC000486003E0079900204860FFE7079901208B
:100BD000087206984068008800EB40014FF4D77017
:100BE00000EB410007994881069840680188082079
:100BF00000EB41000799487207994FF0FF30C86039
:100C00004BF27C10C4F2110000680090BDF80000A7
:100C10000799C86007994FF47A60088205980AB06E
:100C200080BD00000000000083B002908DF8071026
:100C30000092062003B0704780B586B005900491FD
:100C400005980390049840690290049803994860BD
:100C50000498C06803998861049800690399086240
:100C6000039900200090C8614FF400700190019832
:100C70000499098842F20002C4F2330200FB012009
:100C8000039908600398049906F0C6FD049991F948
:100C90000600497A039A06F08FFD049991F907003E
:100CA000897A039A06F088FD029991F90700497A3A
:100CB000039A06F081FD029991F90800897A039A56
:100CC00006F07AFD009803990861039A44F24341C3
:100CD000C5F24121916006B080BD00000000000017
:100CE00084B003908DF80B10019203980090009847
:100CF00000689DF90B1000EB4100008C0199088001
:100D0000002004B07047000080B588B006908DF8D0
:100D1000171004920020ADF80E00029006989DF97D
:100D200017100DF10E02FFF7DBFF0190019808B9D3
:100D3000FFE702E00198079014E0BDF80E00029072
:100D400006980090009840680079012804D1FFE7D8
:100D5000029800040290FFE70298049908600020BE
:100D60000790FFE7079808B080BD00000000000072
:100D700080B586B005900491049803900598029080
:100D8000002001900298039906F0EAFD039800689C
:100D900002990861019806B080BD000000000000C3
:100DA00082B00190ADF80210062002B0704700003A
:100DB00082B00190019800900099888A09680880A3
:100DC000002002B07047000082B0019001980090AE
:100DD000009801680020088002B070470000000001
:100DE00083B00290019102980090009800680088FA
:100DF000C00B01990870002003B07047000000008C
:100E000085B0049003910292019304980090039896
:100E10000099486102980099C86101980099886119
:100E2000002005B07047000080B586B0049004989B
:100E30000390039806F0A4FF0290029808B9FFE718
:100E400002E0029805902FE00398007BC00728B1CC
:100E5000FFE7039880680C30009004E003988068F6
:100E600008300090FFE7009801900199F420087085
:100E70000199002008710398406890F91200213010
:100E800068B1FFE70398406890F9120002F044FB54
:100E90000399486890F9120001F0EEF9FFE7039911
:100EA000002008600590FFE7059806B080BD0000AF
:100EB00083B0029001918DF80320062003B07047A3
:100EC00084B00390039802900298007BC00728B179
:100ED000FFE7029880680C30009004E00298806878
:100EE00008300090FFE7009801900199F020087009
:100EF000002004B07047000083B00290019100927E
:100F0000062003B07047000084B00390039802905D
:100F10000298007BC00728B1FFE7029880680C3078
:100F2000009004E00298806808300090FFE7009885
:100F300001900298007BC00730B1FFE702988168FA
:100F400000690138086005E002988168006901388D
:100F50000880FFE70199F1200870002004B0704775
:100F600080B58AB00890079108980690069806F018
:100F700007FF0590059808B9FFE702E0059809907A
:100F800067E0069800690799886006984068C0691C
:100F900004900498007850284CD1FFE70698007B15
:100FA000C00730B1FFE706984068007C0138029026
:100FB00005E006984068007C01380290FFE702983F
:100FC000C1B247F2CC60C2F2002050F8210020B933
:100FD000FFE70799002048602BE006988068A0F59D
:100FE0008070039003980699097B01F0010106F0D7
:100FF0007BFE01900698007BC00730B1FFE70698A2
:101000004068007C0138009005E006984068007C4C
:1010100001380090FFE701980099CAB247F2CC610D
:10102000C2F2002151F82210B0FBF1F0079948609C
:10103000FFE709E006998868097B01F0010106F0E5
:1010400053FE07994860FFE7079900200870099050
:10105000FFE709980AB080BD80B58CB00890079171
:10106000089806900798069948600699002008732A
:1010700041F20000C4F22200059005980799097C0E
:1010800000EB012004900498069988600698007B84
:10109000C00728B1FFE7069880680C30019004E093
:1010A0000698806808300190FFE7019803900020BF
:1010B0000290EFF3108009900998029001200B90A4
:1010C0000B9880F310880698007BC00720B1FFE7DB
:1010D0000798007C009003E00798007C0090FFE7F1
:1010E0000098C0B2C0F10500012101FA00F343F2FB
:1010F0000C00C4F2200002689A4302600068962047
:1011000000F0AEFD02980A900A9880F310880399C7
:1011100000200870FFE7039800784008C00708B176
:10112000FFE7F8E70399002088700698079906F012
:101130004FFE06980799496806F0A6FE079890F9B1
:101140001200002808D4FFE7079991F91200497CA2
:10115000069A00F0F1F9FFE707984069069948619F
:10116000079880690699C861069900208861069AE7
:1011700044F25471C0F2410111600CB080BD000016
:1011800080B586B00490039104980290029806F00E
:10119000F7FD0190019808B9FFE702E0019805907A
:1011A00006E00298039906F06FFE00200590FFE725
:1011B000059806B080BD000080B584B0029002980A
:1011C0000190019806F0DCFD0090009808B9FFE757
:1011D00002E00098039013E00198007BC00730B153
:1011E000FFE70198816800690138086005E001980F
:1011F0008168006901380880FFE700200390FFE75D
:10120000039804B080BD000080B586B004900498B7
:101210000390039806F0B4FD0290029808B9FFE726
:1012200002E00298059021E00398007BC00728B1F6
:10123000FFE7039880680C30009004E00398806812
:1012400008300090FFE7009801900398406800780C
:10125000012805D1FFE70398016906F015FEFFE7B5
:101260000199F120087000200590FFE7059806B06D
:1012700080BD00000000000080B588B00690059198
:1012800006980490049806F07BFD0390039808B933
:10129000FFE702E0039807902BE00498007BC0076B
:1012A00028B1FFE7049880680C30019004E00498AE
:1012B000806808300190FFE701980290029800785A
:1012C000C0F34000059908710498007BC00728B15D
:1012D000FFE7049880680068009004E00498806844
:1012E00000880090FFE700980599086000200790AB
:1012F000FFE7079808B080BD80B586B004900498D9
:101300000390039806F03CFD0290029808B9FFE7AD
:1013100002E00298059016E00398007BC00728B110
:10132000FFE7039880680C30009004E00398806821
:1013300008300090FFE7009801900199F0200870B4
:1013400000200590FFE7059806B080BD0000000072
:101350004CF20411C4F2010101200880FFE74CF2B5
:101360000410C4F20100008808B1FFE7F7E74CF26F
:101370000011C4F201010120088070470000000044
:1013800080B584B042F22801C4F22001002002900E
:101390000870C820012100F063FC029842F2240189
:1013A000C4F220010870FFE742F22400C4F22000DA
:1013B000007808B1FFE7F7E742F22401C4F2200108
:1013C000087840F002000870FFE742F22400C4F2FF
:1013D000200000784008C00708B1FFE7F5E742F2B7
:1013E0002201C4F2200100200870FFE742F222002F
:1013F000C4F22000007808B1FFE7F7E700208DF87D
:101400000F00FFE79DF80F00022822D8FFE79DF8A4
:101410000F2042F24001C4F2200111F8120000F046
:101420007F0001F81200FFE79DF80F1042F2400024
:10143000C4F2200010F811100020B0EBD11F01D031
:10144000FFE7F1E7FFE79DF80F0001308DF80F008F
:10145000D8E70120019000F07BFB01984EF64C424A
:10146000C4F201020021117000F0B2FB04B080BD93
:1014700080B584B08DF80F00029101929DF90F00A4
:10148000029902F065F89DF90F00019900F0E4FE61
:1014900004B080BD0000000080B584B08DF80F005E
:1014A000029101929DF90F00029902F075F89DF9E1
:1014B0000F00019900F0E0FE04B080BD00000000C4
:1014C00080B584B08DF80F00029101929DF90F0054
:1014D000029902F085F89DF90F00019900F0DCFEF9
:1014E00004B080BD0000000080B584B08DF80F000E
:1014F000029101929DF90F00029902F095F89DF971
:101500000F00019900F0D8FE04B080BD000000007B
:1015100080B584B08DF80F00029101929DF90F0003
:101520000299019AFFF7A4FF9DF90F0000F03CF922
:1015300004B080BD0000000080B584B08DF80F00BD
:10154000029101929DF90F000299019AFFF7A4FF01
:101550009DF90F0000F038F904B080BD00000000D4
:1015600080B584B08DF80F00029101929DF90F00B3
:101570000299019AFFF7A4FF9DF90F0000F034F9DA
:1015800004B080BD0000000080B582B08DF8070077
:101590009DF9070000F0BCF9BFF35F8F9DF90700CC
:1015A0000090009800F01F01012088409DF907106D
:1015B0004A094EF28021CEF2000141F8220002B029
:1015C00080BD00000000000080B582B08DF80700EB
:1015D0009DF9070000F0B4F9BFF35F8F9DF9070094
:1015E0000090009800F01F01012088409DF907102D
:1015F0004A094EF28021CEF2000141F8220002B0E9
:1016000080BD00000000000080B582B08DF80700AA
:101610009DF9070000F0C4F9BFF35F8F9DF9070043
:101620000090009800F01F01012088409DF90710EC
:101630004A094EF28021CEF2000141F8220002B0A8
:1016400080BD00000000000080B582B08DF807006A
:101650009DF9070000F0BCF9BFF35F8F9DF907000B
:101660000090009800F01F01012088409DF90710AC
:101670004A094EF28021CEF2000141F8220002B068
:1016800080BD00000000000080B582B08DF807002A
:101690009DF9070000F0CCF9BFF35F8F9DF90700BB
:1016A0000090009800F01F01012088409DF907106C
:1016B0004A094EF28021CEF2000141F8220002B028
:1016C00080BD00000000000082B08DF807009DF989
:1016D00007000090009800F01F01012088409DF94C
:1016E00007104A094EF28011CEF2000141F82200A3
:1016F000BFF34F8FBFF36F8F02B070470000000041
:1017000082B08DF807009DF907000090009800F066
:101710001F01012088409DF907104A094EF28011EF
:10172000CEF2000141F82200BFF34F8FBFF36F8F5D
:1017300002B070470000000082B08DF807009DF9EC
:1017400007000090009800F01F01012088409DF9DB
:1017500007104A094EF28011CEF2000141F8220032
:10176000BFF34F8FBFF36F8F02B0704700000000D0
:1017700082B08DF807009DF907000090009800F0F6
:101780001F01012088409DF907104A094EF280117F
:10179000CEF2000141F82200BFF34F8FBFF36F8FED
:1017A00002B070470000000080B582B08DF80700DD
:1017B0009DF90700FFF7E8FE9DF9070000F044F8E7
:1017C00002B080BD0000000080B582B08DF8070037
:1017D0009DF90700FFF7F8FE9DF9070000F048F8B3
:1017E00002B080BD0000000080B582B08DF8070017
:1017F0009DF90700FFF708FF9DF9070000F04CF87E
:1018000002B080BD0000000080B582B08DF80700F6
:101810009DF90700FFF718FF9DF9070000F050F849
:1018200002B080BD0000000080B582B08DF80700D6
:101830009DF90700FFF728FF9DF9070000F054F815
:1018400002B080BD0000000082B08DF807009DF955
:1018500007000090009901F01F02012090404A0902
:101860004EF20011CEF2000141F8220002B07047A2
:1018700082B08DF807009DF907000090009901F0F3
:101880001F02012090404A094EF20011CEF20001E1
:1018900041F8220002B0704782B08DF807009DF930
:1018A00007000090009901F01F02012090404A09B2
:1018B0004EF20011CEF2000141F8220002B0704752
:1018C00082B08DF807009DF907000090009901F0A3
:1018D0001F02012090404A094EF20011CEF2000191
:1018E00041F8220002B0704782B08DF807009DF9E0
:1018F00007000090009901F01F02012090404A0962
:101900004EF20011CEF2000141F8220002B0704701
:1019100081B08DF803009DF903204CF20030C4F231
:10192000000050F8221021F4803140F822109DF977
:10193000031050F8210001B07047000000000000C3
:1019400081B08DF803009DF903204CF20030C4F201
:10195000000050F8221021F4803140F822109DF947
:10196000031050F8210001B0704700000000000093
:1019700081B08DF803009DF903204CF20030C4F2D1
:10198000000050F8221021F4803140F822109DF917
:10199000031050F8210001B0704700000000000063
:1019A00081B08DF803009DF903204CF20030C4F2A1
:1019B000000050F8221021F4803140F822109DF9E7
:1019C000031050F8210001B0704700000000000033
:1019D00081B08DF803009DF903204CF20030C4F271
:1019E000000050F8221021F4803140F822109DF9B7
:1019F000031050F8210001B0704700000000000003
:101A000081B08DF803009DF903204CF20030C4F240
:101A1000000050F8221021F4803140F822109DF986
:101A2000031050F8210001B07047000000000000D2
:101A300081B08DF803009DF903204CF20030C4F210
:101A4000000050F8221021F4803140F822109DF956
:101A5000031050F8210001B07047000000000000A2
:101A600084B000200090EFF3108001900198009066
:101A700001200390039880F3108847F2EC50C2F2E3
:101A80000020006840B1FFE747F2EC51C2F20021AC
:101A9000086801380860FFE747F2EC50C2F2002006
:101AA000006848B9FFE740F61451C4F24001002035
:101AB000087080200870FFE700980290029880F379
:101AC000108804B07047000084B000200090EFF34D
:101AD000108001900198009001200390039880F3FA
:101AE000108847F2EC50C2F20020006848B9FFE7C6
:101AF00040F61451C4F240010020087040200870E4
:101B0000FFE747F2EC51C2F200210868013008609B
:101B100000980290029880F3108804B0704700008B
:101B200081B0ADF80200BDF802106FF03F0000EA8E
:101B30009100C9B200EB810040F60001C4F24001FF
:101B40004058C0F3400001B07047000000000000A2
:101B500085B08DF8070000200090EFF31080029010
:101B60000298009001200490049880F310889DF85A
:101B7000071047F2E450C2F2002030F8110090B98B
:101B8000FFE74EF2FA31C4F2010108889DF80730F0
:101B90004CF6E042C0F2002232F81320104340F429
:101BA00025400880FFE79DF8072047F2E451C2F284
:101BB000002131F81200013021F812000098039042
:101BC000039880F3108805B0704700000000000003
:101BD00085B08DF8070000200090EFF31080029090
:101BE0000298009001200490049880F310889DF8DA
:101BF000071047F2E450C2F2002030F8110060B143
:101C0000FFE79DF8072047F2E451C2F2002131F8C6
:101C10001200013821F81200FFE79DF8071047F283
:101C2000E450C2F2002030F8110090B9FFE74EF204
:101C3000FA31C4F20101088840F425409DF80730CC
:101C40004CF6E042C0F2002232F8132090430880A4
:101C5000FFE700980390039880F3108805B0704761
:101C600080B58CB00B900A91002008900B980A99CF
:101C70004843079040F28050C2F20020006809906B
:101C8000099841F20021C0F27A0188421AD3FFE795
:101C900009984DF68361C4F21B31A0FB0110800C42
:101CA000069007980699A0FB0101059104900598FC
:101CB00020B1FFE74FF0FF30089002E00498089051
:101CC000FFE731E009994CF60020C3F69A30B0FBEB
:101CD000F1F0029007984FF47A71A0FB0101019195
:101CE0000090019840B9FFE700980299B0FBF1F02D
:101CF00003900398089016E007980299B0FBF1F062
:101D0000079007984FF47A71A0FB010101910090B0
:101D1000019818B9FFE70098089003E04FF0FF30F2
:101D20000890FFE7FFE7FFE7089820B1FFE7089872
:101D300002F0DEFBFFE70CB080BD000000000000F9
:101D400082B08DF807009DF8071041F28870C2F24A
:101D5000012050F821000090009802B07047000068
:101D600081B0009001B0704781B08DF803009DF8FC
:101D7000030008B9FFE7FFE79DF80300012801D140
:101D8000FFE707E09DF80300022801D1FFE700E02C
:101D9000FFE7FFE701B0704784B003900291019222
:101DA0000093062004B0704780B586B00590059872
:101DB0000490002001900390049800798DF80B00A6
:101DC0009DF90B0006F0C4F801989DF90B2040F234
:101DD0000041C2F2002141F82200049908600398F2
:101DE00006B080BD0000000080B582B0019001986F
:101DF0000090009890F9040006F0AAF8002002B0C4
:101E000080BD00000000000080B582B00190019804
:101E10000090009806F0B0F802B080BD000000000D
:101E200084B00390029103980190019890F90410F6
:101E300040F20040C2F2002050F8210000900299C8
:101E400000200860029948600099C978B0EB911FA2
:101E50001AD0FFE702994FF4807088600098C0891B
:101E6000C0B20299C8600098C1780220B0EB911FFF
:101E700009D1FFE702994FF480300860009880890B
:101E800002994860FFE708E002994FF480308860CB
:101E90000098C0890299C860FFE7002004B070472D
:101EA00080B586B0049003910498029006F094F8EF
:101EB000039840680190019800788DF803009DF91F
:101EC0000300002801D4FFE702E00B20059024E086
:101ED0009DF9031040F20040C2F2002050F82100AA
:101EE00008B9FFE702E00820059016E09DF803001E
:101EF000029908710398006830B1FFE702980399CE
:101F0000096806F04DF8FFE7029944F20030C4F288
:101F10005440086000200590FFE7059806B080BD9A
:101F200080B584B00290019102980090009890F9D9
:101F3000040006F00DF8009806F096F80098019954
:101F400006F02EF8009806F017F808B9FFE702E04F
:101F50001320039002E000200390FFE7039804B0F1
:101F600080BD00000000000084B003900291019247
:101F70000093062004B0704780B588B006900591A4
:101F80000492ADF80E3006980290029800798DF810
:101F900007009DF9071040F20040C2F2002050F8FF
:101FA000210000909DF9070005F0D2FF029806F08D
:101FB0005BF84AF61041C4F2000108200870059849
:101FC00020B1FFE7059800994860FFE7049820B129
:101FD000FFE7049800998860FFE70098C178022025
:101FE000B0EB911F05D1FFE7BDF80E000099888185
:101FF0000DE00098C1780020B0EB911F05D1FFE7FC
:10200000BDF80E000099C88100E0FFE7FFE74AF63F
:102010001041C4F2000118200870029805F0ACFFCE
:1020200008B9FFE702E01320079002E000200790C4
:10203000FFE7079808B080BD82B001908DF80310CB
:10204000062002B07047000081B00090062001B069
:10205000704700000000000082B000900098022845
:1020600005D8FFE700990120884001902BE00098F7
:10207000032803D1FFE70620019024E000980428FC
:1020800003D1FFE7082001901DE00098052803D147
:10209000FFE70320019016E00098062803D1FFE730
:1020A000052001900FE00098072803D1FFE70A20E0
:1020B000019008E0FFE7FFE7FFE7FFE7FFE7FFE743
:1020C00010200190FFE7019802B070470000000067
:1020D00082B0EFF30380019001980090BDF80000FA
:1020E000103840B202B0704782B0EFF30380019025
:1020F00001980090BDF80000103840B202B070475F
:1021000082B0EFF30380019001980090BDF80000C9
:10211000103840B202B0704782B0EFF303800190F4
:1021200001980090BDF80000103840B202B070472E
:1021300082B0EFF30380019001980090BDF8000099
:10214000103840B202B0704782B0EFF303800190C4
:1021500001980090BDF80000103840B202B07047FE
:1021600082B0EFF30380019001980090BDF8000069
:10217000103840B202B0704781B08DF803009DF96D
:10218000031047F2D460C2F2002050F8210001B0E1
:10219000704700000000000081B08DF803009DF939
:1021A000031047F2D460C2F2002050F8210001B0C1
:1021B000704700000000000081B08DF803009DF919
:1021C000031047F2D460C2F2002050F8210001B0A1
:1021D000704700000000000081B08DF803009DF9F9
:1021E000031047F2D460C2F2002050F8210001B081
:1021F000704700000000000081B08DF803009DF9D9
:10220000031047F2D460C2F2002050F8210001B060
:10221000704700000000000081B08DF803009DF9B8
:10222000031047F2D460C2F2002050F8210001B040
:10223000704700000000000081B08DF803009DF998
:10224000031047F2D460C2F2002050F8210001B020
:10225000704700000000000082B08DF80700009178
:1022600000989DF9072047F2D461C2F2002141F89D
:10227000220002B07047000082B08DF80700009184
:1022800000989DF9072047F2D461C2F2002141F87D
:10229000220002B07047000082B08DF80700009164
:1022A00000989DF9072047F2D461C2F2002141F85D
:1022B000220002B07047000082B08DF80700009144
:1022C00000989DF9072047F2D461C2F2002141F83D
:1022D000220002B07047000080B584B04EF2540076
:1022E000C4F2010000780390039800F00F00FFF79C
:1022F000B3FE02904EF25500C4F20100007800F0E7
:102300000F008DF807009DF80700FFF719FD0299EF
:10231000B0FBF1F004B080BD87B08DF817004EF22D
:102320002000C4F201000068049004989DF8171082
:10233000C84000F00F0003909DF81700202807D137
:10234000FFE740F28050C2F20020006806904DE0A6
:102350004EF22400C4F20100007800F00F00029059
:102360000298039908430007002834D5FFE79DF839
:1023700008000007002807D5FFE7029800F00701D2
:1023800003208840019004E00299012088400190D8
:10239000FFE7019802909DF80C000007002807D580
:1023A000FFE7039800F0070103208840009004E055
:1023B0000399012088400090FFE70098039040F2C5
:1023C0008050C2F200200068029948430399B0FB94
:1023D000F1F006900AE040F28050C2F2002000685E
:1023E000029988400399C8400690FFE7069807B015
:1023F000704700000000000087B08DF817004EF213
:102400002000C4F201000068049004989DF81710A1
:10241000C84000F00F0003909DF81700202807D156
:10242000FFE740F28050C2F20020006806904DE0C5
:102430004EF22400C4F20100007800F00F00029078
:102440000298039908430007002834D5FFE79DF858
:1024500008000007002807D5FFE7029800F00701F1
:1024600003208840019004E00299012088400190F7
:10247000FFE7019802909DF80C000007002807D59F
:10248000FFE7039800F0070103208840009004E074
:102490000399012088400090FFE70098039040F2E4
:1024A0008050C2F200200068029948430399B0FBB3
:1024B000F1F006900AE040F28050C2F2002000687D
:1024C000029988400399C8400690FFE7069807B034
:1024D000704700000000000082B001900198009059
:1024E00000990020086002B0704700000000000062
:1024F00080B584B00390029103980190019945F250
:102500005420C5F24F000860029805F039FE002003
:1025100004B080BD0000000080B588B00790ADF821
:102520001A100592BDF81A00ADF804000598009045
:102530000120ADF808006846039002A802F01CF8DC
:10254000FFF7C2FABDF81A00059905F0E1FDFFF7A3
:1025500087FA002008B080BD85B00490ADF80E1059
:102560000292BDF80E100020C4F2400040EAD100F3
:1025700041F6E071C4F240010840009000984068C4
:10258000000CADF806009DF80E1001208840ADF853
:102590000400BDF80600BDF804100840884204D1CC
:1025A000FFE702990120087003E0029900200870FB
:1025B000FFE7002005B0704780B582B00190ADF80C
:1025C00002108DF80120BDF8021021F0FF00C9B201
:1025D0009DF8012005F060FD002002B080BD0000E4
:1025E00080B584B00390ADF80A100192BDF80A00DE
:1025F000FFF796FA01990870002004B080BD000032
:1026000086B00590ADF812108DF811200020ADF8BD
:102610000E00ADF80C009DF813000002ADF80A00A2
:102620009DF81200ADF80800BDF8081001208840A0
:10263000ADF806009DF8110028B9FFE7BDF80600C7
:10264000ADF80C0004E0BDF80600ADF80E00FFE7A1
:10265000BDF80A100020C4F2400040EAD10041F663
:10266000E071C4F2400108400090BDF80C10BDF8C4
:102670000E0040EA014000998860002006B07047D3
:1026800080B582B001900091009805F079FD00209E
:1026900002B080BD0000000088B00790ADF81A10AD
:1026A000ADF81820ADF81630BDF81A100020C4F2AD
:1026B000400040EAD10041F6E071C4F24001084018
:1026C0000090009800680490BDF81800BDF816103E
:1026D00008400390BDF81810BDF81600884302901A
:1026E0000498019003990198084301900299019878
:1026F00088430190019800990860002008B0704755
:1027000084B00390ADF80A100192BDF80A100020C1
:10271000C4F2400040EAD10041F6E071C4F2400149
:102720000840009000984068000C01990880002043
:1027300004B070470000000085B00490ADF80E10A2
:10274000ADF80C20ADF80A30BDF80C00BDF80A1049
:102750000840ADF80800BDF80C10BDF80A00884329
:10276000ADF80600BDF80E100020C4F2400040EAAB
:10277000D10041F6E071C4F2400108400090BDF87C
:102780000610BDF8080040EA01400099C86000202A
:1027900005B070470000000084B00390ADF80A1047
:1027A0000192BDF80A100020C4F2400040EAD100B6
:1027B00041F6E071C4F24001084000900098406882
:1027C00001990880002004B070470000000000005C
:1027D00085B00490ADF80E10ADF80C20ADF80A30BD
:1027E000BDF80C00BDF80A100840ADF80800BDF8AF
:1027F0000C10BDF80A008843ADF80600BDF80E10B5
:102800000020C4F2400040EAD10041F6E071C4F279
:10281000400108400090BDF80610BDF8080040EAED
:10282000014000998860002005B07047000000005A
:1028300085B004900391029201930498009003984C
:10284000009908620298009988620198009948628C
:10285000002005B07047000080B588B0049004984F
:102860000390039881680020019088600398406875
:1028700090F90200FEF744FF0398406890F90100C8
:10288000FEF73EFF0398406890F90400FEF738FF1A
:102890000398406890F90300FEF732FF0198029018
:1028A000EFF3108005900598029001210791079899
:1028B00080F31088039840680078C0F11F0001FA87
:1028C00000F343F20400C4F2200002681A430260DD
:1028D00000689620FFF7C4F902980690069880F3E6
:1028E000108803984068406940B1FFE7039840684A
:1028F000416908688968096A8847FFE70398406862
:10290000006940B1FFE70398406801690868896879
:10291000096A8847FFE703990020086008B080BD76
:1029200080B586B004900391049802900020019035
:1029300003990A7848F20001C4F2350101EB022143
:10294000029A91600399029A516003998969029AE7
:1029500011620399C969029A9162029948620298C8
:1029600005F0BEFD0190019808B9FFE702E001986B
:10297000059027E0029805F0A3FC039991F9010066
:102980004979029AFEF7ECFD039991F902008979E1
:10299000029AFEF7E5FD039991F90300C979029ABD
:1029A000FEF7DEFD039991F90400097A029AFEF719
:1029B000D7FD029944F65310C5F2433008600198E0
:1029C0000590FFE7059806B080BD000000000000FC
:1029D00080B586B00590049103928DF80B30059870
:1029E00001900198049A039B002105F0FDFD06B0BB
:1029F00080BD00000000000080B586B00590049105
:102A000003928DF80B300598019001980499039B6F
:102A1000002205F0E9FD06B080BD000000000000C6
:102A200080B586B084460898CDF814C0049103920E
:102A300002938DF807000598009000980499039A76
:102A4000029B05F0D1FD06B080BD00000000000033
:102A500085B003908DF80B1003980190062000902C
:102A60009DF80B00800700282BD5FFE70020009081
:102A70000198016A886820F440108860FFE7019897
:102A8000006A806C800FC00708B9FFE7F7E701987C
:102A9000016A886820F010008860FFE70198006AEA
:102AA000007F0009C00708B1FFE7F7E701990020A0
:102AB0000861009808B9FFE702E0009804900DE073
:102AC000FFE79DF80B00C00728B1FFE7002000904A
:102AD00001998861FFE700980490FFE7049805B02A
:102AE000704700000000000080B592B010908DF893
:102AF0003F100E920D930D99FF2048700D99887824
:102B000000F0FE0088700D998020C87048F2A06027
:102B1000C0F201000C90002002908DF82F000A9066
:102B2000FFF7DAFB0146029809910890FFE7089940
:102B300000200129019007D8FFE70C980E998842E0
:102B40005FEADF900190FFE70198C007002800F0DE
:102B5000DC80FFE700200790FFE707980C2800F2D1
:102B6000CF80FFE79DF82000079A4CF61801C0F2CD
:102B700000218A5C510841EA920101F001014840BC
:102B8000000608B1FFE7B7E007994CF6C430C0F281
:102B9000002030F81100109948430A9009980A99CA
:102BA000B0FBF1F006900698B0F5807F00F2A380AC
:102BB000FFE7FFE70698002800F09C80FFE70698F3
:102BC000013806900A980699013148430590099802
:102BD00048F2A061C0F20101A0FB0101059AD317E0
:102BE000FDF71FFB47F66011CFF6FE710844049015
:102BF00000208DF80F009DF83F00C00708B3FFE7E5
:102C000005980999090AB0FBF1F08DF80F009DF9BC
:102C10000F00002801D4FFE76CE0049848F2A0619F
:102C2000C0F2010108449DF80F104843C11700EBA2
:102C3000116147F66010CFF6FE7000EB2120049082
:102C4000FFE70498B0F1FF3F04DCFFE7049840423F
:102C50000490FFE704980C9988423ADAFFE7079955
:102C60004CF61800C0F20020415C01F001030D9AFF
:102C7000117801F0EF0141EA031111700799435CEB
:102C80000D9A117803F0020301F0DF0141EA03110C
:102C900011700799435C0D9A117803F0040301F059
:102CA000BF0141EA031111700799425C0D998878C0
:102CB00002F0180200F0CF0040EA42008870069847
:102CC0000D99487004980C909DF80F008DF82F0016
:102CD000FFE79DF83F00C00750B1FFE70D998878E6
:102CE00040F0010088709DF82F000D99C87000E039
:102CF00000E05FE7FFE7FFE70798013007902CE768
:102D0000FFE708980130089011E70C980E99884267
:102D100001DCFFE702E00320119002E000201190A7
:102D2000FFE7119812B080BD84B003900291039820
:102D300001900198006A806820F44010009000988B
:102D40004FF6EE71CFF6FE7108400199096A88606E
:102D500001990020C86002990968019A126A1161FC
:102D60000099019A126A916004B070470000000057
:102D700085B0049003910292019304980090039807
:102D80000099486202980099C86201980099886287
:102D9000002005B07047000080B588B0039003980C
:102DA00002900298406844F64211C5F243318842CD
:102DB00001D1FFE702E0072004905BE00298016A7E
:102DC000886820F4401088600298016A886820F0C2
:102DD00010008860FFE70298006A007F0009C007C2
:102DE00008B1FFE7F7E70298C06990F90700FEF71E
:102DF000A3FC0298C06990F90900FEF79DFC0298B7
:102E0000016A886820F4803088600298C06990F96F
:102E10000500FEF791FC0298C06990F90B00FEF7DF
:102E20008BFC002000900190EFF310800590059836
:102E3000019001210791079880F310880298C069DA
:102E40000078C0F11F0001FA00F343F20400C4F25D
:102E5000200002681A43026000689620FEF700FF17
:102E6000009801990691069981F3108802994860AB
:102E70000490FFE7049808B080BD00000000000047
:102E800082B00190009100994FF0FF3048600099A6
:102E90000860002002B0704780B58AB006900591A6
:102EA000069804900598017848F20000C4F23500B5
:102EB00000EB01200499086204990020087005992C
:102EC000049AD16105994969049A51620599896901
:102ED000049AD162049988620598C06903900499A4
:102EE000887800F0FC00013088700598407838B987
:102EF000FFE70499887800F0FC0002308870FFE753
:102F00000498059905F080F94FF480600290002044
:102F100000900190EFF31080079007980190012135
:102F20000991099880F3108805980078C0F11F0076
:102F300001FA00F343F20400C4F2200002689A434D
:102F4000026000689620FEF78BFE019808900898B2
:102F500080F3108802980499096A8860049805999A
:102F600005F00EFC00980499C86004990861049962
:102F700048610499886103984089049908810498FC
:102F8000016A1020C9F607508866029840F00100D7
:102F900002900498C06990F90500FEF735FC04988A
:102FA000C06990F90B00FEF72FFC029840F48030C6
:102FB00002900498C06990F90700FEF725FC049878
:102FC000C06990F90900FEF71FFC029840F010005C
:102FD000029002980499096A8860FFE70498006AE1
:102FE000007FC00708B9FFE7F8E7049944F64210EC
:102FF000C5F24330486000200AB080BD00000000E8
:1030000085B00490039102920498019000200090F2
:10301000039801994861029801998861009805B068
:10302000704700000000000083B0029001910298F8
:1030300000900098806901990860009900208861DB
:1030400003B070470000000084B003900291019229
:10305000039800900098016A886820F44010886006
:10306000FFE70098006A806C800FC00708B9FFE78F
:10307000F7E70098016A886820F010008860FFE791
:103080000098006A007F0009C00708B1FFE7F7E772
:1030900001980099086102980099C8600098016A37
:1030A000886840F010108860002004B0704700006D
:1030B00080B500F019F903F047FCFFE7FEE70000D8
:1030C00080B58AB00890079106920593002004907D
:1030D0000390FFE704980799884260DAFFE70898B1
:1030E0000499405C0006002809D4FFE70120029003
:1030F00008980499405C0699039A885447E0089818
:103100000499405C00F0F000E0283BD1FFE7049810
:1031100002300799884204DBFFE74FF0FF30099047
:103120004FE00898049A8118805C00034A788978F7
:1031300002F03F0240EA821001F03F010844ADF87E
:103140000600BDF806104CF60870C0F2002000EB37
:10315000410046F20041CFF6FF71405AADF804003D
:103160009DF805000699039A8854BDF80400069A54
:103170000399114448700398013003900498023079
:10318000049003E04FF0FF3009901AE0FFE7FFE7FB
:103190000498013004900398013003909AE7039853
:1031A000059908600598026840F20000C2F200200C
:1031B00047F6E001C0F2012108F028FD0020099047
:1031C000FFE709980AB080BD82B04EF22600C4F233
:1031D0000100007801904EF22400C4F20100007852
:1031E00000F00F008DF803009DF803008DF8020039
:1031F0009DF80200082814D1FFE7019941F2887078
:10320000C2F2012050F821004AF6AB21CAF6AA21E9
:10321000A0FB0110400840F28051C2F2002108607A
:103220005DE09DF80200092814D1FFE7019941F201
:103230008870C2F2012050F821004AF6AB21CAF68C
:10324000AA21A0FB0110800840F28051C2F20021A7
:10325000086043E09DF802000A2814D1FFE70199B5
:1032600041F28870C2F2012050F821004AF6AB21E9
:10327000CAF6AA21A0FB0110C00840F28051C2F298
:103280000021086029E09DF802000B2814D1FFE717
:10329000019941F28870C2F2012050F821004AF6EB
:1032A000AB21CAF6AA21A0FB0110000940F280510F
:1032B000C2F2002108600FE0019941F28870C2F269
:1032C000012050F821009DF80210C84040F28051C2
:1032D000C2F200210860FFE7FFE7FFE7FFE702B067
:1032E000704700000000000080B588B04EF6145111
:1032F000CEF2000140F20120C0F20E000860BFF3E0
:103300004F8FBFF36F8F4EF20001CEF201010868BC
:1033100040F004000860BFF34F8FBFF36F8F4EF291
:103320000801CEF20001086840F480300860BFF365
:103330004F8FBFF36F8F4EF68851CEF200014FF4DE
:103340007000086040F20000C0F2002001904EF6CC
:103350000851CEF20001086000200290FEF704FD43
:1033600000F006FF0120FEF7FFFC01980068A0F5C1
:1033700080300790079880F30A8840F28050C2F2AC
:10338000002041F20821C0F20101FCF7AAFF40F23F
:103390000000C2F2002048F60041C0F2012140F2D4
:1033A0008052C0F20002FCF783FF00F0D9FF00F06A
:1033B000A3FF0298BFF34F8FBFF36F8F4EF650718C
:1033C000CEF200010860BFF34F8FBFF36F8F40F262
:1033D000C012C0F2002240F2C011C0F20021891ACE
:1033E000891006910590FFE705980699884210DA42
:1033F000FFE7059940F2C010C0F2002050F82110FC
:103400000844049004988047FFE705980130059030
:10341000EAE7FFF7D9FEFDF7B3FF0320FEF798FBBD
:1034200000200390FFE703980B280DD8FFE7039ACD
:1034300040F63051C4F24001002021F82200FFE79D
:10344000039801300390EEE703200090FEF7C0FBE5
:103450000098FEF77DFB009844F20402C4F22002BB
:103460000021116044F20802C4F22002116044F20B
:103470000C02C4F22002116044F21002C4F22002D5
:103480001160FEF7A5FB4EF2D830C4F201000068CF
:1034900058B1FFE74EF2D830C4F2010000680128AD
:1034A0002ED1FFE7012058BBFFE74EF21010C4F207
:1034B0000100007820B3FFE70120FEF749FBFFE79A
:1034C0004EF21010C4F20100007800F0C000802815
:1034D00001D0FFE7F4E74EF21011C4F20101002021
:1034E0000870FFE74EF21010C4F20100007810F0EF
:1034F000C00F01D0FFE7F5E70120FEF769FBFFE70A
:103500000220FEF731FC00F047FF002000F024FF0E
:1035100008B080BD0000000081B08DF803009DF967
:103520000300002812D4FFE79DF9031001F01F02E9
:10353000012090404A094EF28011CEF2000141F87C
:103540002200BFF34F8FBFF36F8FFFE701B07047CB
:1035500082B08DF8070000919DF9070000280AD479
:10356000FFE7009800019DF907104EF20042CEF2ED
:10357000000288540BE0009800019DF8071001F04C
:103580000F014EF61452CEF200028854FFE702B04B
:10359000704700000000000082B08DF80700009125
:1035A0009DF9070000280AD4FFE7009800019DF963
:1035B00007104EF20042CEF2000288540BE0009851
:1035C00000019DF8071001F00F014EF61452CEF2E3
:1035D00000028854FFE702B07047000000000000BE
:1035E00082B08DF8070000919DF9070000280AD4E9
:1035F000FFE7009800019DF907104EF20042CEF25D
:10360000000288540BE0009800019DF8071001F0BB
:103610000F014EF61452CEF200028854FFE702B0BA
:10362000704700000000000082B08DF80700009194
:103630009DF9070000280AD4FFE7009800019DF9D2
:1036400007104EF20042CEF2000288540BE00098C0
:1036500000019DF8071001F00F014EF61452CEF252
:1036600000028854FFE702B070470000000000002D
:1036700080B582B0019040F28451C2F20021012055
:1036800008704CF29C71C0F200210868C968096991
:10369000884702B080BD000080B582B00020ADF840
:1036A00006004CF29C71C0F200210868C968896864
:1036B0008847FFE740F28450C2F200200078C0073C
:1036C00008B9FFE7F6E740F28451C2F2002100207A
:1036D00008704CF29C71C0F200210868C9688B69BF
:1036E00005210DF106029847BDF8060002B080BD25
:1036F00080B582B00020ADF806004CF29C71C0F29B
:1037000000210868C96889688847FFE740F284504B
:10371000C2F200200078C00708B9FFE7F6E740F2E0
:103720008451C2F20021002008704CF29C71C0F25A
:1037300000210868C9688B6906210DF106029847C7
:10374000BDF8060002B080BD80B582B04CF29C721C
:10375000C0F20022019210685168D2681268904746
:10376000019A10689168D2685268904702B080BD93
:1037700080B5002004F0E0F980BD000000000000EA
:1037800081B000900098007908B9FFE7FFE701B029
:10379000704700000000000080B582B001900198E1
:1037A000007918B9FFE700F077F8FFE702B080BDB5
:1037B00080B58AB0FEF798FC8DF827009DF92700A8
:1037C000FEF7BEF89DF92700FEF7E6FC0890089882
:1037D000007BC00728B1FFE7089880680C30019093
:1037E00004E00898806808300190FFE7019807908E
:1037F00007980078069008984068007801280BD157
:10380000FFE70799F4200870069800F0F000069092
:10381000069807990870FFE708984069A0B3FFE78A
:10382000089880690290029818B9FFE703A80290EF
:1038300007E0029A1068516892680592049103901B
:10384000FFE79DF818008006002804D5FFE70299DD
:1038500000200871FFE70898C0690299086008987D
:103860004169029888470898806948B1FFE708983D
:1038700081690398049A059B8B604A600860FFE7A2
:10388000079800780690FFE7069800F00F00079968
:1038900008700AB080BD000080B545F22B20C2F24E
:1038A00000200078002800F0A180FFE7FFF7F4FE79
:1038B000A0F24E7044F22041C2F20021088045F28D
:1038C0002A20C2F20020007800285ED0FFE744F2F0
:1038D0002040C2F20020B0F90000FCF7E5FCC92846
:1038E0000DDBFFE747F68361C2F20021012008707B
:1038F0004AF68651C2F200210020088032E047F6E5
:103900008360C2F20020007858B3FFE74AF6865081
:10391000C2F20020018801310180008845F6C151C2
:1039200088421DDBFFE74AF67050C2F200200078A3
:10393000A8B1FFE745F23260C2F20020007801280A
:103940000DD1FFE745F22C21C2F2002101200870C1
:103950004AF68651C2F2002100200880FFE7FFE707
:10396000FFE7FFE740F21001C2F2002108680130D2
:10397000086040F28850C2F2002044F22041C2F2B6
:103980000021012201F004FFFFE740F21000C2F223
:1039900000200068013047F2F822C0F2250241F20F
:1039A0004311C0F28F5100FB01204FEAB0004BF6EB
:1039B0007C11C0F21201884217D8FFE745F22A2095
:1039C000C2F20020007878B1FFE744F22441C2F24D
:1039D0000021086800F6AC50086045F22921C2F2C7
:1039E000002101200870FFE7FFE7FFE744F22440D1
:1039F000C2F20020006845F20131C0F2070188429E
:103A000037D3FFE745F22A20C2F20020007880B3C6
:103A1000FFE745F23260C2F200200078012828D189
:103A2000FFE748F2E060C0F2012008F0FDF84AF636
:103A30006850C2F20020008848F2E261C0F2012121
:103A400002F052FD45F22B21C2F200210020087045
:103A500040F21001C2F20021086045F22921C2F2B1
:103A60000021087045F22821C2F2002101200870CF
:103A7000FFE780BD0000000080B586B08DF817001C
:103A80009DF81700002848D0FFE740F28850C2F2A6
:103A9000002001F075FE014645F23460C2F20020BC
:103AA00001600068B0F57A6F08D9FFE745F234612C
:103AB000C2F200214FF47A600860FFE745F23860F7
:103AC000C2F2002003904FF4FA51FCF70AFC03996C
:103AD00040F28850C2F2002045F23462C2F2002265
:103AE0000292002301F068FC4AF68C50C2F20020DA
:103AF000049043F2B061FCF7F4FB029A0398049936
:103B00001268520000F070FA47F68460C2F200209A
:103B100042F6E061FCF7E5FB08E04AF68C50C2F2A1
:103B2000002043F2B061FCF7DCFBFFE79DF81700D3
:103B30004AF68C52C2F2002269464A60086047F693
:103B40008460C2F2002048F21C12C0F2012248F246
:103B50002603C0F2012342F6E06108F075F806B0D2
:103B600080BD00000000000080B58AB047F6192033
:103B7000C0F2012008F058F845F23261C2F200218B
:103B800000200790087045F23061C2F200210870F1
:103B900045F22C21C2F20021087048F24050C0F2D8
:103BA0000120032101911E22009202F0ADFB0420AE
:103BB00002F0FEFD0220059002F016FE059802F0CC
:103BC000DBFD009B012108914FF49F72049208468F
:103BD00002F0DEFB0599079A03464AF66850C2F2E6
:103BE000002002900380008802F0A2FD0199029853
:103BF000008802F021FC0298008847F61151C0F2BB
:103C0000012102F039FC049A08982121562302F080
:103C1000BFFB0599079A03464AF66450C2F200209A
:103C200003900380008802F083FD079903980088C1
:103C300002F002FC0398008847F64771C0F20121A8
:103C400002F01AFC049A08987921572302F0A0FB8D
:103C5000059902464AF66650C2F20020069002809C
:103C600000881F2202F064FD07990698008802F080
:103C7000E3FB0698008847F63671C0F2012102F096
:103C8000FBFBFFF761FD079840F6A821C2F2012176
:103C90000991087006F0B0F948F2FD00C0F2012069
:103CA00045F22801C2F2002106F0F2FF03F030F8DD
:103CB000089940F28850C2F2002040F2A052C2F2AD
:103CC00000224FF4FA5301F04BFB4CF66850C0F25F
:103CD000002003F005F80998007800BBFFE7FFE734
:103CE00048F24900C0F2012047F62371C0F20121D9
:103CF000002207F001FC58B1FFE747F62E20C0F282
:103D0000012007F091FF4FF4FA7006F069F9E7E738
:103D100040F6A821C2F2012101200870FFE74CF60D
:103D20006850C0F2002002F0E7FF01F09DF870B982
:103D3000FFE747F63430C0F2012007F075FF01F0CD
:103D4000BBFE4AF66C51C2F20021086006E047F65D
:103D5000B630C0F2012007F067FFFFE74AF668506F
:103D6000C2F20020008848F2E771C0F2012102F09F
:103D7000BBFB47F6F730C0F2012007F055FF0AB051
:103D800080BD00000000000080B586B001F048FF53
:103D900045F23260C2F20020007818B9FFE703F064
:103DA0000BF90BE045F23260C2F2002000780128E6
:103DB00003D1FFE703F0A0FAFFE7FFE745F22B206E
:103DC000C2F200200078002800F0C280FFE745F230
:103DD0002A20C2F200200078002840F0B980FFE7D6
:103DE00047F65320C0F2012007F01EFF01F098F9BA
:103DF00000F0E2FC06F000F948F2FD00C0F20120FC
:103E000045F22801C2F2002106F042FF00208DF8A1
:103E10001700FFE745F22800C2F2002006F090FCF0
:103E200000284AD1FFE747F66E20C0F2012007F0D4
:103E3000FBFE4FF47A7006F0D3F800F0BDFC68B1D9
:103E4000FFE706F0D9F848F2FD00C0F2012045F284
:103E50002801C2F2002106F01BFFFFE79DF81700C2
:103E600001308DF817009DF81700052824DBFFE7C7
:103E700047F6F520C0F2012007F0D6FE4AF668505A
:103E8000C2F20020008848F25351C0F2012102F032
:103E90002BFB45F22B21C2F200210020087040F2DA
:103EA0001002C2F200224FF0FF31116045F2326180
:103EB000C2F20021087094E0ACE70020FFF7DCFDBF
:103EC00047F68460C2F200200290FCF749FA0146EE
:103ED000029806F0D5FD45F22A21C2F20021012008
:103EE000087047F65430C0F2012007F09DFE4AF6F4
:103EF0006850C2F20020008848F64001C0F201215B
:103F000002F0F2FA44F62840C2F200204FF4806139
:103F1000FCF7E7F944F22840C2F2002003904FF486
:103F20000061FCF7DEF9039847F64771C0F2012102
:103F300004911322FCF7FEF903994AF66450C2F289
:103F40000020008802F0D0FA049807F06DFEFFE729
:103F500045F22B20C2F20020007888B3FFE745F23B
:103F60002A20C2F20020007850B3FFE745F2292052
:103F7000C2F20020007818B3FFE745F22921C2F20F
:103F80000021002008700120FFF776FD47F68460CD
:103F9000C2F200200090FCF7E3F90146009806F019
:103FA0006FFD4FF4967006F01BF84FF6A420C2F296
:103FB0000020019006F01CFD019801F0CDF8FFE70C
:103FC00045F22820C2F20020007850B1FFE745F208
:103FD0002920C2F20020007818B9FFE701F0D8FECE
:103FE000FFE706B080BD00008EB00D900C910B92E3
:103FF00000200A900990FFE70A980B99884280F008
:104000008980FFE70A980B99884205D2FFE70D984F
:104010000A99405C049002E000200490FFE70498B5
:1040200008900A9801300B99884206D2FFE70D9953
:104030000A9808444078039002E000200390FFE7CC
:10404000039807900A9802300B99884206D2FFE73E
:104050000D990A9808448078029002E000200290AE
:10406000FFE70298069008980004079940EA0120AB
:104070000699084305900598C0F385414CF23870C5
:10408000C0F20020415C0C9A099B03F1010CCDF8B1
:1040900024C0D1540599C1F30531405C0C99099AAB
:1040A000531C099388540A9801300B9988420AD20C
:1040B000FFE70598C0F385114CF23870C0F200207C
:1040C0004056019002E03D200190FFE701980C99D5
:1040D000099A531C099388540A9802300B99884214
:1040E0000AD2FFE7059800F03F014CF23870C0F2A9
:1040F00000204056009002E03D200090FFE700982D
:104100000C99099A531C09938854FFE70A980330C5
:104110000A9071E70C99099A002088540EB07047F4
:1041200080B541F28871C2F2012146F60040C0F22A
:10413000DC20086041F20020C0F27A0048604FF4B1
:104140000040886042F60052C0F23112CA60086135
:1041500043F60000C1F69C404861C861086288616E
:1041600048628862FFF730F880BD00000000000060
:1041700080B582B04EF2FA31C4F201014AF2035026
:104180000880FDF7E5F8FFF7CBFF4EF65021C4F2AB
:104190000101062008704EF2A201C4F201010920BB
:1041A000087000F0A9F94EF23601C4F201010020B6
:1041B00008704EF23201C4F201010870FFE74EF2BE
:1041C0003C00C4F201000078C008C00708B9FFE74E
:1041D000F5E74EF24800C4F2010045F60172028094
:1041E0004EF24E00C4F2010040F2111101804EF275
:1041F0004A03C4F20103002018704EF22803C4F2EF
:1042000001031A804EF24C02C4F2010211804EF2F8
:104210002A01C4F201010870FFE74EF23C00C4F22B
:10422000010000784009C00708B9FFE7F5E700F092
:104230000BF94EF23001C4F20101012008704EF278
:104240005201C4F2010108704EF25301C4F201019F
:104250000870002300938DF807309DF807004EF298
:104260003E01C4F2010108709DF8070040F0800093
:104270008DF807009DF8070008704EF25500C4F253
:1042800001004EF25401C4F201011A4600F0ACF8EC
:10429000009B4EF25700C4F201004EF25601C4F2E8
:1042A00001011A4600F0A0F84EF2FA31C4F2010101
:1042B0004FF42540088002B080BD000000000000DF
:1042C00080B582B08DF807009DF8071047F29C502A
:1042D000C2F2002050F8210050B1FFE79DF807001E
:1042E00047F29C51C2F2002151F820108847FFE7A5
:1042F00002B080BD0000000080B586B040F2000032
:10430000C2F20000059049F28011C0F2012104912F
:1043100049F28010C0F20120401AC008039040F218
:104320000001C2F20001029140F20000C2F200005E
:10433000401AC008019005980499039A02F010FBF6
:10434000029801996A46116000231A4602F024FB84
:1043500006B080BD0000000081B0009001B0704741
:1043600080B584B040F20000C0F20000039049F232
:104370008011C0F20121029149F28010C0F20120A7
:10438000401AC008019003980299019A02F0E8FAD5
:1043900004B080BD0000000081B000200090FFE765
:1043A00000985F281CD8FFE700994CF6DE30C0F279
:1043B000002030F8110070B1FFE7009A4CF6DE30B3
:1043C000C0F2002030F812004CF20031C4F20001BB
:1043D00041F82200FFE7FFE7009801300090DFE797
:1043E00001B070470000000083B0029001918DF889
:1043F00003208DF802300299087840F040000870E0
:10440000FFE7029801780120B0EBD11F01D0FFE750
:10441000F7E79DF80300019908709DF8020040F04D
:10442000C000029908700299087800F0BF00087077
:10443000FFE7029801780020B0EBD11F01D0FFE721
:10444000F7E703B07047000080B588B04CF21C114C
:10445000C4F20101042008704EF22001C4F20101EF
:10446000029142F23230C3F21210039008604EF211
:104470002401C4F2010101910120079008704EF25D
:104480002601C4F201010591052006900870FEF78F
:104490009BFE079996200490FDF7E2FB019B029991
:1044A000039800221A700860FEF78EFE04980799A0
:1044B000FDF7D6FB059906980870FEF785FE07986C
:1044C00042F20001C4F200014AF201520A80BFF335
:1044D0005F8F42F20802C4F200021070BFF35F8FD8
:1044E0004FF42540088008B080BD000000000000A7
:1044F00001380028FCD1704780B54EF60040C4F268
:104500000100007840B9FFE74EF60140C4F2010017
:104510000078800738B3FFE74EF60040C4F2010090
:104520000078A0B9FFE74EF60040C4F20100012177
:104530000170C820FDF794FBFFE74EF60040C4F27F
:1045400001000078012801D0FFE7F6E7FFE74EF60B
:104550000141C4F20101002008704EF60041C4F28E
:104560000101087004E04FF47A70FDF7F9FBFFE7F2
:1045700080BD00000000000080B588B007904EF2BA
:104580000000C4F20100049042F20000C4F22000D6
:10459000039000200690FFE7069807990988884253
:1045A00080F0A780FFE700200590FFE7059802282C
:1045B00000F29A80FFE707984068069900EBC10077
:1045C0008088059A4CF6D061C0F2002131F81210B3
:1045D000884240F08480FFE707984068069950F8C9
:1045E000310000F0F85002900298B0F1807F05D0C1
:1045F000FFE70298B0F1106F38D1FFE7049890F808
:104600004C0C059A012191400840000688B9FFE74B
:1046100001200190FDF79CFA0198059900FA01F339
:10462000049A92F84C1C194382F84C1CFDF7D0FAFE
:1046300000E0FFE70398059900EB410090F8401077
:104640000020B0EBD11F0FD1FFE70398059900EBD5
:10465000410191F8400040F0800081F84000C820FE
:104660000121FDF7FDFA00E0FFE737E0049890F83C
:104670004C0C059A012191400840C0B2012811DB81
:10468000FFE701200090FDF763FA0098059900FA12
:1046900001F3049A92F84C1C994382F84C1CFDF7E4
:1046A00097FA00E0FFE70398059900EB410090F8C6
:1046B0004000C00901280FDBFFE70398059900EBD4
:1046C000410191F8400000F07F0081F84000C820CF
:1046D0000121FDF7C5FA00E0FFE7FFE7FFE7FFE78D
:1046E00005980130059061E7FFE7069801300690D4
:1046F00052E708B080BD000080B586B005900491F7
:10470000059880690090009818B9FFE70498009018
:104710000FE0009A1068516892680392029101902C
:104720000099049B18685A689B688B604A6008600F
:10473000FFE705984169009888470598806948B166
:10474000FFE7059881690198029A039B8B604A6094
:104750000860FFE706B080BD80B586B048F27401FE
:10476000C4F23401086805900598C0430860FDF75D
:10477000C7FC8DF813009DF91300FDF7F9F89DF9BA
:104780001300FDF719FD03900398406980B1FFE71E
:104790000598039909690840009003988068019082
:1047A0000398C069029003986946FFF7A5FFFFE7E9
:1047B00006B080BD0000000080B582B041F2F46018
:1047C000C2F20120203047F68561C0F20121FBF7DB
:1047D0009FFD50B9FFE741F2F460C2F201202030A2
:1047E000FBF7BEFD002840D1FFE747F62450C0F29A
:1047F000012007F019FA06F097FC4FF4FA7005F063
:10480000EFFB45F22D61C2F2002100200870FFE7A6
:1048100048F24900C0F2012047F62371C0F201219D
:10482000002206F069FE58B1FFE747F6EC40C0F2FF
:10483000012007F0F9F94FF47A7005F0D1FBE7E7B2
:1048400041F2F460C2F2012000F1200148F27F0041
:10485000C0F2012007F0E8F940F6A821C2F20121D8
:10486000012008708DF8070003E000208DF8070094
:10487000FFE79DF8070002B080BD000000000000C7
:1048800080B5ADF58E6D45F22D60C2F20020007846
:10489000002800F0E382FFE741F2F420C2F2012099
:1048A0000078002800F0DA82FFE741F2F420C2F23B
:1048B000012047F27131C0F20121FBF729FDCDF84B
:1048C0006C04DDF86C04002800F09E80FFE747F2DE
:1048D0007870C0F2012007F0A7F9DBA84FF48071CF
:1048E000FBF7FFFCDDF86C040430DA900020D9906F
:1048F000DA9847F66871C0F20121FBF709FDD990FB
:10490000D99848B9FFE7DA9847F67971C0F20121E2
:10491000FBF7FEFCD990FFE7D99848B9FFE7DA9892
:1049200047F64041C0F20121FBF7F2FCD990FFE7C6
:10493000D99848B9FFE7DA9847F66E71C0F20121BD
:10494000FBF7E6FCD990FFE7D998C0B1FFE7D9980B
:10495000DA99401AD890D89801280FDBFFE7D89849
:10496000FF280BD8FFE7DA99D89ADBA80D90FBF760
:10497000E1FC0D99D89A00208854FFE708E0DA9905
:10498000DBA8FF22FBF7D6FC00208DF86B04FFE7C5
:1049900047F6E470C0F20120DBA90A9107F044F960
:1049A00045F22D20C2F200200B904FF480610C9153
:1049B000FBF797FC0B9847F27131C0F20121FBF72E
:1049C000E4FC0A990B98FBF797FC0B9947F6A87043
:1049D000C0F2012007F028F90A994AF66650C2F29F
:1049E0000020008801F080FD0B98FBF7B9FC014620
:1049F0000B9889B202F060FD0C9941F2F420C2F2EA
:104A00000120FBF76EFC29E247F21A60C0F2012098
:104A100007F00AF941F2F420C2F2012047F6B24150
:104A2000C0F20121FBF774FCD790D798002800F062
:104A30000C82FFE7D7983A21FBF788FCD690D698EE
:104A4000002800F00182FFE7D6980130D690D69872
:104A500047F6B261C0F20121FBF75AFC48B9FFE703
:104A6000D69847F6BE61C0F20121FBF751FC08B1B0
:104A7000FFE7E8E1D69847F65B71C0F20121FBF74A
:104A800047FC002800F0DE81FFE7D69847F67371F7
:104A9000C0F20121FBF73CFC002800F0D381FFE7C6
:104AA000D69847F67371C0F20121FBF731FCD5901F
:104AB000D598002800F0C581FFE7D5980530D5903E
:104AC000D59847F6A841C0F20121FBF721FC002848
:104AD00000F08280FFE7D59848F21A11C0F2012158
:104AE000FBF716FC002877D0FFE7D59847F26E3128
:104AF000C0F20121FBF70CFC00286DD0FFE700207D
:104B0000D490D59847F66871C0F20121FBF700FCFC
:104B1000D490D49848B9FFE7D59847F67971C0F298
:104B20000121FBF7F5FBD490FFE7D49848B9FFE7E4
:104B3000D59847F64041C0F20121FBF7E9FBD4903C
:104B4000FFE7D49848B9FFE7D59847F66E71C0F2F1
:104B50000121FBF7DDFBD490FFE754A84FF400716F
:104B6000FBF7BFFB00205390D498D0B1FFE7D49857
:104B7000D599401A53905398012811DBFFE75399B8
:104B80000020B0EB512F0BD1FFE7D599539A54A8D1
:104B90000990FBF7CFFB0999539A00208854FFE74F
:104BA0000EE0D59954A8089040F2FF12FBF7C2FB23
:104BB000089800218DF84F13FBF7D2FB5390FFE7C5
:104BC00048F24C40C0F2012007F02EF8BDF84C111D
:104BD00054A802F0C1F833E1D59847F27131C0F220
:104BE0000121042205F0D4F9002800F08F80FFE7AE
:104BF00013A84FF48071FBF774FBD5980430129022
:104C000000201190129847F66871C0F20121FBF75D
:104C10007FFB1190119848B9FFE7129847F6797118
:104C2000C0F20121FBF774FB1190FFE7119848B91E
:104C3000FFE7129847F64041C0F20121FBF768FBFD
:104C40001190FFE7119848B9FFE7129847F66E7187
:104C5000C0F20121FBF75CFB1190FFE71198C0B196
:104C6000FFE711981299401A1090109801280FDB55
:104C7000FFE71098FF280BD8FFE71299109A13A8A6
:104C80000790FBF757FB0799109A00208854FFE71D
:104C900008E0129913A8FF22FBF74CFB00208DF8C7
:104CA0004B01FFE747F6E470C0F2012013A905911C
:104CB00006F0BAFF45F22D20C2F2002006904FF414
:104CC0008061FBF70EFB069847F27131C0F20121BB
:104CD000FBF75BFB05990698FBF70EFB069947F679
:104CE000A870C0F2012006F09FFF05994AF66650B1
:104CF000C2F20020008801F0F7FB0698FBF730FBBA
:104D00000146069889B202F0D7FB98E000200F9088
:104D1000D59847F66871C0F20121FBF7F9FA0F90B8
:104D20000F9848B9FFE7D59847F67971C0F201218D
:104D3000FBF7EEFA0F90FFE70F9848B9FFE7D59819
:104D400047F64041C0F20121FBF7E2FA0F90FFE77E
:104D50000F9848B9FFE7D59847F66E71C0F2012168
:104D6000FBF7D6FA0F90FFE745F22D20C2F20020A4
:104D70004FF48061FBF7B5FA0F98E8B1FFE70F98A1
:104D8000D599401A0E900E98012814DBFFE70E9972
:104D90000020B0EB912F0ED1FFE7D5990E9A45F286
:104DA0002D20C2F200200490FBF7C4FA04990E9A59
:104DB00000208854FFE70EE0D59945F22D20C2F27D
:104DC0000020039040F2FF32FBF7B4FA0399002071
:104DD00081F8FF03FFE747F6C370C0F2012045F2F8
:104DE0002D21C2F20021029106F01EFF029845F229
:104DF0002F62C2F200220121117047F6A841C0F2D1
:104E00000121FBF785FA60B9FFE745F22D20C2F2D8
:104E1000002047F6AD41C0F20121FBF779FA68B1F5
:104E2000FFE745F22D20C2F200200190FBF798FA2F
:104E30000146019889B201F08FFFFFE7FFE7FFE726
:104E4000FFE7FFE7FFE7FFE7FFE741F2F420C2F2E9
:104E500001204FF48061FBF744FAFFE70DF58E6DFA
:104E600080BD00000000000080B5A8B0FFF7A4FCE2
:104E700038B1FFE745F23161C2F20021002008702D
:104E8000FFE745F23160C2F2002000780A280BDB10
:104E9000FFE742F2107005F0A3F845F23161C2F26B
:104EA000002100200870FFE706F03EF94FF4FA7089
:104EB00005F096F847F65250C0F2012006F0B4FE15
:104EC00000208DF89E00FFE79DF89E0002281EDC62
:104ED000FFE748F22F00C0F2012047F6DC61C0F284
:104EE0000121002206F040F808B9FFE70FE047F67D
:104EF000F250C0F2012006F097FE9DF89E000130AE
:104F00008DF89E004FF47A7005F06AF8DCE79DF8A2
:104F10009E00032816DBFFE745F23160C2F2002055
:104F200001780131017000780A2807DBFFE748F2B9
:104F3000B950C0F2012006F077FEFFE701208DF89E
:104F40009F00BFE041F2F420C2F2012004904FF430
:104F500080610591FBF7C5F90498059906F088FB77
:104F600048F29901C0F2012147F60272C0F2012213
:104F700047F6D663C0F201230DF11E0006F07EFE57
:104F800000208DF81D008DF81C00FFE79DF81D1016
:104F900000200429039007DCFFE79DF81C0000288F
:104FA0005FEA1F900390FFE70398C007002852D0E4
:104FB000FFE70DF11E000290FBF7D2F901460298BF
:104FC00006F096FB4FF47A7005F00AF841F2F420EF
:104FD000C2F201204FF4806106F04AFBADF81A00DE
:104FE000BDF81A00B0B1FFE741F2F420C2F201208F
:104FF00047F6BE61C0F20121FBF78AF950B1FFE725
:1050000048F29E60C0F2012006F00EFE01208DF8ED
:105010001C001FE0BDF81A0058B1FFE748F2570026
:10502000C0F2012041F2F421C2F2012106F0FCFDA0
:1050300006E047F64F60C0F2012006F0F5FDFFE7FD
:105040009DF81D0001308DF81D004FF4FA7004F03A
:10505000C7FFFFE79AE79DF81C00B8B9FFE748F2E1
:105060008F70C0F2012006F0DFFD06F05DF84FF40E
:10507000FA7004F0B5FF45F23161C2F20021087800
:105080000130087001208DF89F001BE045F231616E
:10509000C2F2002100200190087045F22E61C2F298
:1050A0000021087045F22D61C2F200210120087034
:1050B00048F23D70C0F2012006F0B6FD01988DF86F
:1050C0009F00FFE79DF89F0028B080BD0000000012
:1050D00080B586B005900491039202930298049BD8
:1050E0000599DDF80CC06A46C2F804C0116048F6A4
:1050F000B002C0F201224FF4806106F0A5FD06B0B7
:1051000080BD00000000000080B54CF66C62C0F26B
:1051100000221068516892681268904780BD0000B4
:1051200080B545F22D60C2F20020007898B1FFE70B
:1051300047F67050C0F2012006F076FD05F0F4FF4E
:1051400045F22D61C2F20021002008704FF4FA7080
:1051500004F046FFFFE780BD80B5ADF6281DCDF811
:105160002409DDF82409CDF8200908A84FF40061CE
:10517000FBF7B7F800200790DDF8200947F64A4111
:10518000C0F20121FBF7C4F808B9FFE767E044F675
:105190002840C2F200204FF48061FBF7A2F8FFE73D
:1051A000DDF820090078A8B3FFE7DDF8200947F60D
:1051B0004A41C0F20121FBF7ABF80690069808B906
:1051C000FFE727E006980530069006982221FBF7B6
:1051D000BDF80590059808B9FFE71BE0059806990A
:1051E000401A04900699049A0DF502600390FBF7AB
:1051F000A1F80399049A0020885444F62840C2F28A
:105200000020FBF779F80120079005980130CDF8D0
:105210002009C5E7079810B3FFE744F22840C2F21F
:105220000020029044F62841C2F200210191FBF7D0
:1052300063F8019948F6B810C0F2012006F0F4FCBA
:1052400002994AF66450C2F20020008801F04CF93D
:105250004AF67051C2F2002101200870FFE70DF6F6
:10526000281D80BD0000000080B584B003900020A0
:105270008DF80B00FFE703980078C00720B1FFE727
:1052800002208DF80B0034E00399087840F001000B
:1052900008700399002088600399C86003994869E1
:1052A0000861039840780146019140B1FFE70198F9
:1052B00001280AD0FFE7019802280DD013E00399D6
:1052C00048684969FBF70DF80DE00399486849699A
:1052D0004900FBF706F806E0039948684969890028
:1052E000FAF7FFFFFFE70399087800F0FE00087067
:1052F000FFE79DF80B0004B080BD00000000000037
:1053000082B001900091009A0199C8681044C86069
:10531000FFE70198C1684069884206D8FFE7019914
:10532000C8684A69801AC860F3E702B07047000095
:1053300082B001900091009A0199886810448860B9
:10534000FFE7019881684069884206D8FFE7019924
:1053500088684A69801A8860F3E702B070470000E5
:1053600085B004908DF80F100292019300208DF803
:105370000300FFE7029820B9FFE703208DF8030040
:1053800014E00298049948600499002008709DF880
:105390000F10049A5170049988600499C8600198AC
:1053A00004990861019804994861FFE79DF803009A
:1053B00005B070470000000080B588B007900691E6
:1053C00005928DF8133000208DF81200FFE7069843
:1053D00020B9FFE703208DF81200A2E007990878B2
:1053E00040F004000870079800F0CAF90290059890
:1053F00000680299884207D9FFE70298059908607A
:1054000005208DF81200FFE70798C1684069401A2F
:105410000390059800680399884231D8FFE7079800
:1054200040780146019140B1FFE7019801280ED074
:10543000FFE70198022816D021E00698079A5168E4
:10544000D2681144059A1268FAF732FF17E00698FD
:10545000079A5168D26801EB4201059A126852001E
:10546000FAF726FF0BE00698079A5168D26801EB1D
:105470008201059A12689200FAF71AFFFFE74FE0DF
:10548000079840780146009140B1FFE70098012855
:1054900017D0FFE7009802282AD040E00698079A24
:1054A0005168D2681144039AFAF702FF0698039BE9
:1054B000184407994968059A1268D21AFAF7F8FE53
:1054C0002DE00698079A5168D26801EB4201039AD1
:1054D0005200FAF7EDFE0698039B00EB4300079994
:1054E0004968059A1268D21A5200FAF7E1FE16E0EE
:1054F0000698079A5168D26801EB8201039A9200DC
:10550000FAF7D6FE0698039B00EB830007994968DB
:10551000059A1268D21A9200FAF7CAFEFFE7FFE76F
:10552000FFE79DF81300F8B9FFE707980078C00778
:1055300020B1FFE702208DF8120016E007990878E5
:1055400040F001000870079805990968FFF7D8FE38
:105550000598026807990869104408610799087856
:1055600000F0FE000870FFE7FFE70799087800F0F9
:10557000040008709DF8120008B080BD0000000013
:1055800080B588B00790069105928DF81330002001
:105590008DF81200FFE7069820B9FFE703208DF889
:1055A0001200C1E00799087840F0040008700798DD
:1055B00000F0E6F80290059800680299884207D941
:1055C000FFE702980599086005208DF81200FFE7B3
:1055D00007998868C968884207D8FFE707988068F4
:1055E00005990968884234D3FFE707984078014657
:1055F000019140B1FFE7019801280FD0FFE7019822
:10560000022818D024E00698079A51689368059AF2
:1056100012689B1A1944FAF74BFE19E00698079A8C
:1056200051689368059A12689B1A01EB4301520076
:10563000FAF73EFE0CE00698079A51689368059ABF
:1056400012689B1A01EB83019200FAF731FEFFE723
:1056500069E00598006807998968401A03900798DF
:1056600040780146009140B1FFE7009801281DD025
:10567000FFE70098022837D054E00698079A51684F
:105680005369039A9B1A1944FAF712FE0698039B72
:105690001844079A5168D2F808C0059A1268ACEB12
:1056A000020C6144D21AFAF703FE3BE00698079A0F
:1056B00051685369039A9B1A01EB43015200FAF7B0
:1056C000F7FD0698039B00EB4300079A5168D2F858
:1056D00008C0059A1268ACEB020C01EB4C01D21A1F
:1056E0005200FAF7E5FD1DE00698079A51685369E4
:1056F000039A9B1A01EB83019200FAF7D9FD0698F1
:10570000039B00EB8300079A5168D2F808C0059A02
:105710001268ACEB020C01EB8C01D21A9200FAF782
:10572000C7FDFFE7FFE7FFE79DF81300E8B9FFE7D4
:1057300007980078C00720B1FFE702208DF812001B
:1057400014E00799087840F0010008700798026992
:105750004169891AFFF7D4FD0799486908610799DB
:10576000087800F0FE000870FFE7FFE70799087867
:1057700000F0040008709DF8120008B080BD000021
:1057800081B00090009801694069401A01B07047EB
:1057900080B588B007900691059200208DF813001F
:1057A0000390FFE7069820B9FFE703208DF8130068
:1057B000DCE0079800788007002804D5FFE7012087
:1057C0008DF81300D2E00799087840F002000870C5
:1057D000059807990969884200F2BE80FFE707989B
:1057E00081684069401A039005980399884273D9EB
:1057F000FFE7079840780146029140B1FFE7029821
:10580000012822D0FFE70298022841D063E00799DF
:105810004868896808440699039AFAF749FD079889
:105820000399FFF785FD0799486889680844069938
:10583000039B1944059AD21AFAF73AFD079805997D
:10584000039A891AFFF774FD45E00799486889684B
:1058500000EB41000699039A5200FAF729FD0798D8
:105860000399FFF765FD07994868896800EB4100D7
:105870000699039B01EB4301059AD21A5200FAF7ED
:1058800017FD07980599039A891AFFF751FD22E041
:1058900007994868896800EB81000699039A92008D
:1058A000FAF706FD07980399FFF742FD0799486844
:1058B000896800EB81000699039B01EB8301059A3F
:1058C000D21A9200FAF7F4FC07980599039A891AFC
:1058D000FFF72EFDFFE739E0079840780146019178
:1058E00040B1FFE70198012811D0FFE70198022895
:1058F0001CD02AE007994868896808440699059AE7
:10590000FAF7D6FC07980599FFF712FD1DE00799F5
:105910004868896800EB41000699059A5200FAF739
:10592000C7FC07980599FFF703FD0EE00799486843
:10593000896800EB81000699059A9200FAF7B8FC95
:1059400007980599FFF7F4FCFFE7FFE7059A079929
:105950000869801A086103E004208DF81300FFE74E
:105960000799087800F0FD000870FFE79DF8130024
:1059700008B080BD0000000080B582B001900091A9
:105980004FF69821C2F20021002008704CF66C619D
:10599000C0F20021086889688B6801A90122984734
:1059A000FFE74FF69820C2F200200078C00708B940
:1059B000FFE7F6E7019802B080BD0000000000009C
:1059C00089B00890079100208DF80B000190FFE747
:1059D000089808B9FFE75EE00798B0F1FF3F09DCDF
:1059E000FFE70899481C08902D200870079840424E
:1059F000079007E0079820B9FFE708993020087062
:105A000049E0FFE7FFE7079870B3FFE7079846F222
:105A10006761C6F2666150FB01F2911001EBD27131
:105A200001EB8101A0EB410001900198002803D413
:105A3000FFE70198009003E0019840420090FFE7E3
:105A400000989DF80B20511C8DF80B1003A9885469
:105A5000079846F26761C6F2666150FB01F1881053
:105A600000EBD1700790CEE7FFE79DF80B0088B1FF
:105A7000FFE79DF80B0003A9084410F8010C303033
:105A800008994A1C089208709DF80B0001388DF89F
:105A90000B00EAE7FFE709B07047000000000000D4
:105AA00081B00090FFE70098411E009108B1FFE728
:105AB000F9E701B0704700004AF68850C2F20020B2
:105AC00001680A31016000687047000000000000B2
:105AD00080B584B00290BDF8081047F2DC50C2F2E5
